:020000040800F2
:1000000038410020ED360008691200086B12000824
:100010006F12000873120008771200080000000039
:100020000000000000000000000000007B1200083B
:100030007D120008000000007F12000881120008F5
:100040000737000807370008073700080737000898
:100050000737000807370008073700080737000888
:100060000737000807370008073700080737000878
:100070000737000807370008073700080737000868
:100080000737000807370008073700080737000858
:100090000737000807370008073700080737000848
:1000A0000737000807370008073700080737000838
:1000B0000737000807370008073700080737000828
:1000C0000737000807370008073700080737000818
:1000D00007370008433400086335000893360008EA
:1000E00007370008073700080737000807370008F8
:1000F00007370008073700080737000807370008E8
:1001000007370008073700080737000807370008D7
:1001100007370008073700080737000807370008C7
:1001200007370008073700080737000807370008B7
:1001300000F002F800F090F80AA090E8000C824469
:100140008344AAF10107DA4501D100F085F8AFF246
:10015000090EBAE80F0013F0010F18BFFB1A43F0A5
:1001600001031847907D0000B07D0000103A24BFC5
:1001700078C878C1FAD8520724BF30C830C144BF0C
:1001800004680C607047000000230024002500264E
:10019000103A28BF78C1FBD8520728BF30C148BFEA
:1001A0000B6070476E2904F09485702904F0378342
:1001B000662906F07F80652906F07C80672906F0B5
:1001C00079806129AFF3008003681B0A28BF41F0E2
:1001D0008001692904F0A882642904F0A5827529A8
:1001E00004F0A2826F2904F08D86782904F003833D
:1001F000E92904F02786E42904F02486F52904F08F
:100200002186EF2904F08A86F82904F00283036826
:10021000DB0928BF41F08001632904F0968573292A
:1002200004F09B85E32905F05581F32905F05A81F7
:10023000002070471FB505F0F1F9040000200021EF
:1002400005F0C8FE401C60600020002105F0D8FECB
:10025000E0601FBD10B510BD05F0BBF91146FFF7FA
:10026000E9FF00F0D3FF05F099FA03B4FFF7F2FFBE
:1002700003BC03F08BF8000010B59AB00024642191
:1002800001A804F08BFC4FF6FF7002F0FBF900BFF1
:10029000FA480078012809D1F9A0E1B24FF6FF73BE
:1002A0001F220090002002F09EF826E0F34800781C
:1002B00002280AD1F7A0E1B24FF6FF734FF478425B
:1002C0000090002002F08FF817E0EC480078032837
:1002D0000AD1F6A0E1B24FF6FF7348F21042009047
:1002E000002002F080F808E0F5A0E1B24FF6FF73BD
:1002F00000220090104602F076F80A34F4480078A4
:10030000012809D1F3A0E1B24FF6FF731F2200903C
:10031000002002F068F826E0ED48007802280AD1B3
:10032000F0A0E1B24FF6FF734FF478420090002046
:1003300002F059F817E0E648007803280AD1EEA049
:10034000E1B24FF6FF7348F210420090002002F035
:100350004AF808E0ECA0E1B24FF6FF7300220090EB
:10036000104602F040F80A34EA480078012809D122
:10037000E9A0E1B24FF6FF731F220090002002F0C7
:1003800032F826E0E348007802280AD1E7A0E1B27B
:100390004FF6FF734FF478420090002002F023F8EC
:1003A00017E0DC48007803280AD1E5A0E1B24FF657
:1003B000FF7348F210420090002002F014F808E0A9
:1003C000E4A0E1B24FF6FF7300220090104602F065
:1003D0000AF80A34E3480078012809D1E2A0E1B222
:1003E0004FF6FF731F220090002001F0FCFF26E073
:1003F000DC48007802280AD1DFA0E1B24FF6FF7393
:100400004FF478420090002001F0EDFF17E0D5484E
:10041000007803280AD1DDA0E1B24FF6FF7348F25D
:1004200010420090002001F0DEFF08E0DBA0E1B206
:100430004FF6FF7300220090104601F0D4FF0A34FB
:10044000D9480078012812D1D84890F85C3700F2DA
:100450003E72D7A101A804F001F901A8E1B24FF65C
:10046000FF731F220090002001F0BDFF26E0CE4860
:10047000007802280AD1D2A0E1B24FF6FF734FF400
:1004800078420090002001F0AEFF17E0C6480078E7
:1004900003280AD1CFA0E1B24FF6FF7348F2104211
:1004A0000090002001F09FFF08E0CEA0E1B24FF6DF
:1004B000FF7300220090104601F095FF0A34CC48EB
:1004C0000078012809D1CBA0E1B24FF6FF731F22BB
:1004D0000090002001F087FF26E0C5480078022840
:1004E0000AD1C9A0E1B24FF6FF734FF478420090F1
:1004F000002001F078FF17E0BD48007803280AD1FA
:10050000C6A0E1B24FF6FF7348F2104200900020FF
:1005100001F069FF08E0C6A0E1B24FF6FF730022C8
:100520000090104601F05FFF0A34C54800780128AA
:1005300009D1C4A0E1B24FF6FF731F220090002042
:1005400001F051FF26E0BE48007802280AD1C2A07F
:10055000E1B24FF6FF734FF478420090002001F0B3
:1005600042FF17E0B648007803280AD1C0A0E1B2E4
:100570004FF6FF7348F210420090002001F033FF65
:1005800008E0C0A0E1B24FF6FF73002200901046D1
:1005900001F029FFBFA04FF6FF731F225A210090E0
:1005A000002001F020FFBDA04FF6FF731F22642141
:1005B0000090002001F017FFBAA04FF6FF731F2232
:1005C0006E210090002001F00EFF6648007803289D
:1005D0001DD0B6A04FF6FF734FF478425A21009019
:1005E000232001F000FFB3A04FF6FF734FF47842D1
:1005F00064210090232001F0F6FEAFA04FF6FF73B8
:100600004FF478426E210090232001F0ECFE02F0BE
:100610000DF81AB010BD10B500F0A7FF0446032C6A
:1006200001D1012010BD012C01D10220FAE70020E8
:10063000F8E710B500F099FF0446032C01D1012022
:1006400010BD012C01D10220FAE70020F8E710B517
:10065000642403209A490870FFF70EFE4FF4FA70E5
:1006600002F067FE4FF6FF7002F00CF801F0DEFFBB
:100670009448006808B9012027E125E1070000201F
:100680005732355131362074657374284F4B292108
:1006900021000000573235513136207465737428BB
:1006A0004552524F52292121000000005732355146
:1006B000313620746573742E2E2E2E2E2E000000DF
:1006C0005732355131362074657374212100000092
:1006D000010000204C45442074657374284F4B2959
:1006E000212100004C454420746573742845525202
:1006F0004F522921210000004C4544207465737439
:100700002E2E2E2E2E2E00004C4544207465737420
:10071000212100000600002031384232302074656B
:100720007374284F4B2921210000000031384232D8
:10073000302074657374284552524F52292121008C
:10074000313842323020746573742E2E2E2E2E2EA8
:10075000000000003138423230207465737421216A
:1007600000000000020000204B455920746573749E
:10077000284F4B29212100004B4559207465737483
:10078000284552524F522921210000004B45592043
:10079000746573742E2E2E2E2E2E00004B4559207C
:1007A0007465737421210000080000205C33002070
:1007B0004E42206F6B2825732928256429000000EC
:1007C0004E422074657374284552524F522921219C
:1007D000000000004E4220746573742E2E2E2E2EC3
:1007E0002E0000004E422074657374212100000029
:1007F0000300002052533233322074657374284F43
:100800004B292121000000005253323332207465FD
:100810007374284552524F522921210052533233CA
:100820003220746573742E2E2E2E2E2E00000000A2
:10083000525332333220746573742121000000005A
:10084000040000204D4158343835207465737428F5
:100850004F4B2921210000004D4158343835207478
:10086000657374284552524F52292121000000001F
:100870004D415834383520746573742E2E2E2E2E2B
:100880002E0000004D4158343835207465737421B2
:10089000210000004B4559313A0000004B455932C8
:1008A0003A0000004B4559333A000000455849547E
:1008B00000000000202020005041535300000000A1
:1008C00000000020A00121420020FB49086002F046
:1008D0008AF8A0B202F02DFD4FF4784001F0D2FE6C
:1008E00001F0A4FEF548D0F8A00108B9012000E00D
:1008F0000020F149086002F076F8002001F0DBFEEC
:10090000A0B202F016FD012001F0D5FE1F2001F07B
:10091000B9FE01F08BFEE948D0F8A00108B901202A
:1009200000E00020E449086002F05DF8A0B202F0A7
:1009300000FD4FF4FC6001F0A5FE01F077FEDF48FA
:10094000D0F8A00108B9012000E00020DA490860D1
:1009500002F049F8A0B202F0ECFC4FF6E07001F0B2
:1009600091FE01F063FED548D0F8A00108B901203E
:1009700000E00020D049086002F035F8A0B202F093
:10098000D8FC4EF67D7001F07DFE01F04FFECB48A5
:10099000D0F8A00108B9012000E00020C649086095
:1009A00002F021F8A0B202F0C4FC48F2104001F0BD
:1009B00069FE01F03BFEC148D0F8A00108B9012052
:1009C00000E00020BC49086002F00DF8A0B202F07F
:1009D000B0FC44F2082001F055FE01F027FEB748B4
:1009E000D0F8A00108B9012000E00020B249086059
:1009F00001F0F9FFA0B202F09CFC4FF6FF7001F08D
:100A000041FE002001F057FE4FF4FA7002F091FC15
:100A1000012001F050FE4FF4FA7002F08AFC002031
:100A200001F049FE4FF4FA7002F083FC012001F05E
:100A300042FE4FF4FA7002F07CFC002001F03BFE15
:100A40004FF4FA7002F075FC012001F034FE10BD85
:100A500010B503209A490870FFF70EFC4FF47A7026
:100A600002F067FC3EE0012000F039FD002000F0BC
:100A700040FD002000F047FDC82002F05AFCFFF7BF
:100A8000CAFD8F49087008460078002800DD2AE07A
:100A9000002000F024FD012000F02BFD002000F0DC
:100AA00032FDC82002F045FCFFF7B5FD844908700F
:100AB00008460078002800DD15E0002000F00FFD5A
:100AC000002000F016FD012000F01DFDC82002F0FE
:100AD00030FCFFF7A0FD7A4908700846007800282E
:100AE00000DD00E0BFE700BF10BD30B59BB00024C3
:100AF000642102A804F052F800250320714908700F
:100B0000FFF7BAFB4FF47A7002F013FC4FF6FF7058
:100B100001F0B8FD01F08AFD00F0FCFD05462A4613
:100B200069A102A803F09AFD02A84FF6FF731F22E5
:100B300014210090002001F0EAFC4EF6147085426A
:100B400030D14FF0807411220021614800F0FEFE88
:100B5000642002F0EEFB1122002102A800F05AFEF0
:100B6000112202A95A4803F067FF70B959A04FF645
:100B7000FF731F2228210090002001F0C8FC0120F3
:100B80005049087001F02FFF0CE055A04FF6FF739D
:100B90004FF4784228210090002001F0B8FC022098
:100BA0004849087047480078012836D100F0B2FD66
:100BB0004EF61471884230D14FF0807461081122D2
:100BC000434800F0C3FE642002F0B3FB6108112229
:100BD00002A800F01FFE112202A93D4803F02CFFDD
:100BE00070B943A04FF6FF731F223C2100900020F4
:100BF00001F08DFC01203349087001F0F4FE0CE097
:100C00003EA04FF6FF734FF478423C210090002045
:100C100001F07DFC02202B4908702A480078012849
:100C200038D100F077FD4EF61471884232D14FF082
:100C30008074A4F164011122254800F087FE64202D
:100C400002F077FBA4F16401112202A800F0E2FD9A
:100C5000112202A91E4803F0EFFE70B92BA04FF637
:100C6000FF731F2250210090002001F050FC012052
:100C70001449087001F0B7FE0CE027A04FF6FF738F
:100C80004FF4784250210090002001F040FC0220F7
:100C90000C4908704FF47A7002F04BFB1BB030BD6A
:100CA00010B5032020490870FFF7E6FA4FF47A7078
:100CB00002F03FFB6FE00000A00121420000214252
:100CC000010000200700002049443A257800000078
:100CD000B86200086164647231204F4B210000004B
:100CE0006164647231204552524F5221000000006D
:100CF0006164647232204F4B2100000061646472B1
:100D000032204552524F522100000000616464724B
:100D100033204F4B21000000616464723320455240
:100D2000524F52210000000005000020012001F078
:100D300050FEFFF770FCFE49087008460078002856
:100D400000DD29E04FF4967002F0F3FA002001F084
:100D500040FEFFF760FCF64908700846007800285E
:100D600000DD19E0642002F0E4FA012001F031FE18
:100D7000FFF751FCEE49087008460078002800DDB6
:100D80000AE04FF4FA7002F0D4FA002001F021FEDC
:100D9000642002F0CEFAC9E700BF002001F019FE7E
:100DA00010BD70B58AB0202102A803F0F7FE01F053
:100DB000F4FE00280FDD0220DE490870AFF29460D7
:100DC0004FF6FF734FF4784214210090002001F099
:100DD0009EFB0AB070BD0120D649087001F0F8FEF4
:100DE0000446002C0FDA604204B20A2094FBF0F1B2
:100DF00000FB114594FBF0F62B463246CEA102A82B
:100E000003F02CFC0CE00A2094FBF0F100FB1145F0
:100E100094FBF0F62B463246CDA102A803F01EFC4F
:100E200002A84FF6FF731F2214210090002001F04A
:100E30006EFB00BFCDE7F8B5002400250026032097
:100E4000C9490870FFF718FA4FF47A7002F071FA86
:100E50006CE0FFF7A6FF00F088FB0746012F04D0E7
:100E6000022F22D0032F60D13FE0012401F0BBFD0F
:100E7000BE48006808B9012000E00020BB490860B6
:100E8000BBA04FF6FF734FF478425A210090232005
:100E900001F03DFB012C07D1012D05D1012E03D11D
:100EA0000120B1490870F8BD3FE0012501F09BFD2C
:100EB000B048006808B9012000E00020AD49086092
:100EC000ABA04FF6FF734FF47842642100902320CB
:100ED00001F01DFB012C07D1012D05D1012E03D1FD
:100EE0000120A1490870DEE71FE0012601F07BFD2B
:100EF000A148006808B9012000E000209E49086070
:100F00009BA04FF6FF734FF478426E210090232090
:100F100001F0FDFA012C07D1012D05D1012E03D1DD
:100F2000012091490870BEE700BF00BF91E710B5EE
:100F30000446204602F091FA10BD9049904A12787A
:100F400088548F490978491C8D4A1170704710B533
:100F500088B003242021684603F020FE032089493D
:100F60000870FFF789F94FF47A7002F0E2F9AFF2F6
:100F7000350002F02DFB35E0002081490870142176
:100F80007E4803F0E9FD11217F4802F010FB4FF489
:100F9000967002F0CEF9112278497B4803F04CFD9F
:100FA000D8B90020764908701421744803F0D4FDA4
:100FB0001121764802F0FBFA4FF4967002F0B9F96D
:100FC00011226E49714803F037FD30B901206D4997
:100FD000087001F008FD08B010BD022069490870D2
:100FE000601EC4B2002CC7DC00BFF4E78AB0202129
:100FF00002A803F0D3FD032065490870FFF73CF910
:101000004FF47A7002F095F962A04FF6FF734FF437
:1010100078425A210090232001F079FA60A04FF61F
:10102000FF734FF4784264210090232001F06FFA9F
:10103000AFF27C704FF6FF734FF478426E21009050
:10104000232001F064FAAFF2191002F0C1FA3DE07A
:10105000FFF7A7FE00F089FA0446012C04D0022C09
:1010600011D0032C26D121E0002043492C390860FF
:101070004EA04FF6FF734FF4784278210090002085
:1010800001F045FA16E001203B492C3908604CA0DC
:101090004FF6FF734FF4784278210090002001F062
:1010A00036FA08214BA002F082FA03E00120384909
:1010B000087000BF00BF2D48006808B9012000E09B
:1010C00000202A490860642002F033F9C0E710B517
:1010D00088B000242021684603F060FD03204049C9
:1010E0000870FFF7C9F8012001F0C9FE85E0012171
:1010F0003CA001F0C2FF01287AD102F08BF802F087
:1011000040F802F081F8394803F077FC70B13748B5
:101110001F3803F072FC48B101203149087001F01A
:1011200062FC002001F0ABFE08B010BD60E00000E2
:10113000050000200600002031384232302074655E
:101140007374212120282D25642E25642900000098
:10115000313842323020746573742121202825648F
:101160002E2564290000000002000020A001214279
:101170004F4B210088812242B0812142540000203F
:101180000900002003000020C9620008DA6200089C
:10119000040000204D4158343835205258000000DA
:1011A0004D4158343835205458000000343835202B
:1011B00052582D2D2D3E75617274312054582100E6
:1011C0003438352054582D2D2D3E22616263313242
:1011D000332200006162633132330D0A00000000E7
:1011E0000800002041540D0A00000000B93A002018
:1011F000601CC4B202201B490870032CFFF677AFB5
:10120000002001F03CFE00BF08B010BD00BF02F09E
:1012100053F84FF4A06002F089FA4FF4E13002F085
:10122000C4F84FF4E13002F04DF94FF4165002F0DB
:10123000E1F900F093FA00F015F901F046FA00F038
:1012400079F901F0AFFBFFF702FAFFF74EFCFFF769
:10125000FFFBFFF7F0FDFFF73AFFFFF778FEFFF720
:10126000C5FE000008000020704700BFFEE700BF79
:10127000FEE700BFFEE700BFFEE77047704770471C
:10128000704700000CB50020019000906C48006889
:1012900040F480306A49086000BF6948006800F483
:1012A000003000900198401C0190009818B90198F6
:1012B000B0F5A06FF1D16248006800F4003010B1C1
:1012C0000120009001E0002000900098012843D107
:1012D0005C48006840F010005A4908600846006801
:1012E00020F0030008600846006840F00200086033
:1012F000534840685249486008464068486008467C
:10130000406840F4806048600846406820F47C10E3
:1013100048600846406840F4E810486008460068A5
:1013200040F08070086000BF4548006800F0007021
:101330000028F9D04248406820F003004049486046
:101340000846406840F00200486000BF3C484068E2
:1013500000F00C000828F9D10CBD10B5FFF792FF82
:1013600010BD10B53648006840F0010034490860EF
:1013700008464068344908403149486008460068DA
:10138000324908402E4908600846006820F4802051
:1013900008600846406820F4FE0048604FF41F00D3
:1013A0008860FFF7DAFF4FF000602949086010BD40
:1013B00010B5002100200022214B5B6803F00C01D6
:1013C00021B1042906D0082928D107E0214B224C5D
:1013D000236027E01F4B204C236023E0184B5B6801
:1013E00003F47010164B5B6803F48032022303EBA6
:1013F000904022B9194B4343174C23600DE0104B2A
:101400005B6803F4003323B1144B4343124C236055
:1014100003E0104B4343104C236003E00D4B0E4C94
:10142000236000BF00BF064B5B68C3F303130C4C83
:10143000E15C094B1B68CB40074C236010BD0000EA
:1014400000100240002002400000FFF8FFFFF6FEFF
:1014500008ED00E000127A000C00002000093D00B9
:101460001000002008B501212C2002F0E9FC4FF407
:101470008070ADF8000010208DF8030003208DF877
:1014800002006946254802F01FFA4FF48071234894
:1014900002F0C7FA0420ADF8000010208DF8030018
:1014A00003208DF8020069461D4802F00DFA042160
:1014B0001B4802F0B6FA4FF48050ADF8000010203F
:1014C0008DF8030003208DF802006946154802F0EC
:1014D000FBF94FF48051134802F0A3FA08BD00282D
:1014E00003DD0021104A116002E001210E4A116063
:1014F0007047002803DD00210C4A116002E0012141
:101500000A4A11607047002803DD0021084A116073
:1015100002E00121064A1160704700000008014006
:1015200000140140000C0140A001214288812242A8
:10153000B081214208B50121102002F081FC42F265
:101540000100ADF8000048208DF8030069462E48E0
:1015500002F0BAF90120ADF8000028208DF8030050
:1015600069462A4802F0B0F908BD10B501212748A4
:1015700002F03DFA01280BD00121234802F037FA8E
:1015800030B14FF40051204802F031FA002838D130
:10159000322001F0CEFE01211C4802F028FA012879
:1015A0000BD102E00A2001F0C4FE0121174802F02D
:1015B0001EFA0128F6D0012010BD0121124802F0C8
:1015C00016FA58B902E00A2001F0B3FE01210E48D4
:1015D00002F00DFA0028F6D00220EDE74FF400519A
:1015E000094802F004FA60B902E00A2001F0A1FE05
:1015F0004FF40051044802F0FAF90028F5D0032016
:10160000DAE70020D8E700000010014000080140A0
:1016100070B50546002405E0601CC4B2C82C01DD8D
:10162000002070BD0221394802F0C1FF0028F3D02C
:101630002946364802F068FF002405E0601CC4B269
:10164000C82C01DD0020ECE70121304802F0AFFF9B
:101650000028F3D02D4802F059FFC0B2E1E700B5F1
:1016600087B00121042002F0EBFB0121080302F006
:10167000E7FBE020ADF8180018208DF81B000320D0
:101680008DF81A0006A9224802F01EF9E021204830
:1016900002F0C7F90020ADF804004FF48270ADF8F5
:1016A00006000020ADF808000220ADF80A00012075
:1016B000ADF80C004002ADF80E003820ADF8100077
:1016C0000020ADF812000720ADF8140001A90F4862
:1016D00002F044FE01210D4802F0E5FEFF20FFF775
:1016E00097FF07B000BD10B50446084800884FF6C4
:1016F000C7710840054908800846008820430880D3
:101700000121024802F0CFFE10BD00000030014070
:101710000008014010B500240020DB49086090203B
:10172000FFF776FF0020FFF773FF0020FFF770FF41
:101730000020FFF76DFFFF20FFF76AFF44EA002457
:10174000FF20FFF765FF04430120D049C1F8900155
:101750002146CFA002F076FF204610BD08B501213A
:10176000102002F06DFB1020ADF800008DF8030092
:1017700003208DF802006946C94802F0A5F810213F
:10178000C74802F04EF90120BF490860FFF767FF24
:101790000020FFF7A8FFFFF7BDFFC249088008BD82
:1017A00010B500240020B84908600520FFF730FF7D
:1017B000FF20FFF72DFF04460120B449C1F8900136
:1017C000204610BD10B504460020AF490860012036
:1017D000FFF71EFF2046FFF71BFF0120AB49C1F8B2
:1017E000900110BD10B50020A74908600620FFF742
:1017F0000FFF0120A549C1F8900110BD10B50020D0
:10180000A14908600420FFF703FF01209F49C1F8A8
:10181000900110BD2DE9F04106460C461746002008
:10182000994908600320FFF7F3FEC4F30740FFF770
:10183000EFFEC4F30720FFF7EBFEE0B2FFF7E8FE90
:10184000002505E0FF20FFF7E3FE7055681C85B218
:10185000BD42F7DB01208C490860BDE8F08110B57E
:1018600000BFFFF79DFF00F001000028F9D110BD77
:101870002DE9F04106460C461746FFF7B3FF00205E
:10188000814908600220FFF7C3FEC4F30740FFF759
:10189000BFFEC4F30720FFF7BBFEE0B2FFF7B8FEC0
:1018A000002504E0705DFFF7B3FE681C85B2BD4201
:1018B000F8DB012074490860FFF7D1FFBDE8F08133
:1018C0002DE9F04107460E461446F0B2C0F580758A
:1018D000AC4200DC254612E02A4631463846FFF786
:1018E000C7FFAC4200D10BE02F442E44601B84B2F2
:1018F000B4F5807F02DD4FF4807500E02546EBE70C
:1019000000BFBDE8F08110B50446214666A002F094
:1019100099FE2403FFF766FFFFF7A1FF00205A4955
:1019200008602020FFF774FEC4F30740FFF770FE45
:10193000C4F30720FFF76CFEE0B2FFF769FE012059
:101940005249C1F89001FFF78AFF10BD2DE9F05F01
:1019500081460F461646DFF858B14FEA1738C7F3ED
:101960000B0ACAF58054A64200DC344644E04FEA34
:1019700008314FF480525846FFF74CFF002508E02D
:101980000AEB05001BF80000FF2800D003E0681CEC
:1019900085B2A542F4DB00BFA54216DA4046FFF748
:1019A000B2FF002507E019F8050005EB0A010BF866
:1019B0000100681C85B2A542F5DB4FEA08314FF4FF
:1019C00080525846FFF77CFF04E0224639464846DD
:1019D000FFF776FFA64200D10FE008F101084FF0B3
:1019E000000AA1442744301B86B2B6F5805F02DDB1
:1019F0004FF4805400E03446B9E700BFBDE8F09FE3
:101A000010B5FFF7EFFEFFF72AFF00201E49086020
:101A1000C720FFF7FDFD01201C49C1F89001FFF729
:101A20001EFF10BD10B5002017490860B920FFF750
:101A3000EFFD01201549C1F89001032001F055FC8C
:101A400010BD10B5002010490860AB20FFF7E0FD85
:101A500001200E49C1F89001032001F046FC10BDA1
:101A600010B54FF48071134803F076F84FF480728C
:101A700000211048FFF7CEFE0E4802F0BEFF08B965
:101A8000002010BD0B48FCE79001224200002242DA
:101A900049443D3078253034782E0D0A000000008E
:101AA000001001402000002066653A25780D0A00EC
:101AB000680100206800002030B5014601F01F04D5
:101AC000C1F34513CA0AE50205EB43151544A8B254
:101AD00030BD2DE9F04706460F4690469A46002451
:101AE00045464FEA4800C0F103094AE07A1991B22D
:101AF000321990B2524600F00CFF7A1991B2321BA3
:101B000090B2524600F005FF7A1B91B2321990B2A2
:101B1000524600F0FEFE7A1B91B2321B90B2524642
:101B200000F0F7FE3A1991B2721990B2524600F0E5
:101B3000F0FE3A1991B2721B90B2524600F0E9FEE3
:101B40003A1B91B2721990B2524600F0E2FE3A1B73
:101B500091B2721B90B2524600F0DBFEB9F1000F59
:101B600005DA042000FB049000F1060907E0601B81
:101B7000042101FB009000F10A09681E85B2601C77
:101B800084B2AC42B2DBAC4237D17A1991B232198D
:101B900090B2524600F0BDFE7A1991B2321990B25D
:101BA000524600F0B6FE7A1B91B2321990B25246FC
:101BB00000F0AFFE7A1B91B2321B90B2524600F099
:101BC000A8FE3A1991B2721990B2524600F0A1FEE5
:101BD0003A1991B2721B90B2524600F09AFE3A1B2B
:101BE00091B2721990B2524600F093FE3A1B91B234
:101BF000721B90B2524600F08CFEBDE8F0872DE9D2
:101C0000FF4F83B0804689464946404600F077FE44
:101C10000598A0EB08050698A0EB0906002D02DB4D
:101C20000120029003E04FF0FF3002906D42002E41
:101C300002DB0120019003E04FF0FF30019076427B
:101C40004FEA450A4FEA460BB54219DDABEB0504F6
:101C5000002712E049464046109A00F05AFE002C38
:101C600005DBA4EB0A04019848441FFA80F95C44A0
:101C7000029840441FFA80F87F1CAF42EADD18E06A
:101C8000AAEB0604002712E049464046109A00F0ED
:101C900040FE002C05DBA4EB0B04029840441FFA25
:101CA00080F85444019848441FFA80F97F1CB742D9
:101CB000EADD07B0BDE8F08F2DE9F84305460C4694
:101CC00016461F46DDF820804EF67D700090A8195C
:101CD00082B2234621462846FFF791FF42F665105F
:101CE00004F1010CBC441FFA8CF305EB060CACF1BB
:101CF000010C1FFA8CF204F1010C1FFA8CF105EBB8
:101D0000060CACF1010C00901FFA8CF0FFF777FF86
:101D100042F665100090E01983B2A81982B2E0196A
:101D200081B22846FFF76BFF4EF67D700090E019F8
:101D300083B22A4621462846FFF761FF04F1010CD1
:101D4000BC44ACF1020C1FFA8CF305F1010CB44455
:101D5000ACF1020C1FFA8CF204F1010C1FFA8CF1A9
:101D600005F1010C1FFA8CF0CDF80080FFF747FF5A
:101D7000BDE8F8832DE9F84305460C4616461F4694
:101D8000DDF82080B8F1000F39D14EF67D7000905B
:101D9000A81982B2234621462846FFF730FF42F6B3
:101DA000651004F1010CBC441FFA8CF305EB060C22
:101DB000ACF1010C1FFA8CF204F1010C1FFA8CF14A
:101DC00005EB060CACF1010C00901FFA8CF0FFF74C
:101DD00016FF42F665100090E01983B2A81982B28E
:101DE000E01981B22846FFF70AFF4EF67D70009099
:101DF000E01983B22A4621462846FFF700FFB8F1D2
:101E0000010F39D142F665100090A81982B223461D
:101E100021462846FFF7F3FE4EF67D7004F1010CD3
:101E2000BC441FFA8CF305EB060CACF1010C1FFA55
:101E30008CF204F1010C1FFA8CF105EB060CACF1ED
:101E4000010C00901FFA8CF0FFF7D9FE4EF67D7062
:101E50000090E01983B2A81982B2E01981B2284635
:101E6000FFF7CDFE42F665100090E01983B22A46D6
:101E700021462846FFF7C3FEB8F1020F39D14FF6CD
:101E8000FF700090A81982B2234621462846FFF72A
:101E9000B6FE4FF6FF7004F1010CBC441FFA8CF340
:101EA00005EB060CACF1010C1FFA8CF204F1010CED
:101EB0001FFA8CF105EB060CACF1010C00901FFA37
:101EC0008CF0FFF79CFE4FF6FF700090E01983B294
:101ED000A81982B2E01981B22846FFF790FE4FF6AA
:101EE000FF700090E01983B22A4621462846FFF78A
:101EF00086FEBDE8F883F8B504460D4616461F4633
:101F000044F208202B463246294600902046FFF72F
:101F100076FE48F210406A1C93B291B2621C0090A7
:101F200090B23246FFF76BFE44F208203B46224651
:101F3000294600902046FFF762FE48F21040631CDD
:101F40009AB26B1C99B2631C009098B23B46FFF7A3
:101F500056FE4FF6FF703B4632463946009020460B
:101F6000FFF74DFE4FF6FF703B4632462946009084
:101F70003046FFF744FEF8BDF8B506460F46144656
:101F80001D464FF6FF703B462246394600903046CC
:101F9000FFF735FE4FF6FF702B463246394600906C
:101FA0003046FFF72CFE48F210406A1E93B291B201
:101FB000721C009090B22246FFF721FE44F20820E6
:101FC0002B462246294600903046FFF718FE48F27D
:101FD0001040631E9AB27B1C99B2631E009098B2A7
:101FE0002B46FFF70CFE44F208202B4622463946CA
:101FF00000902046FFF703FEF8BD2DE9F84F074695
:10200000884693469A46DDF828900097B3E099F801
:10201000000080283DDA99F800600D2E05D1009F60
:1020200008F110001FFA80F830E0202E03DDA6F141
:10203000200086B200E00026002422E000251CE0FB
:1020400004EB0610F849085C80212941084040B1A2
:1020500008EB040291B27A1990B25A4600F059FC8A
:1020600009E0D34507D008EB040291B27A1990B287
:10207000524600F04EFC681CC5B2082DE0DB601C27
:10208000C4B2102CDADB07F1080087B209F10109AC
:1020900071E0002668E006EB0610E44911F8100034
:1020A00099F8001088425DD106EB0610DF4901EB7C
:1020B0004000407899F80110884253D100244FE045
:1020C000002520E006EB0610D84901EB4000801CFB
:1020D00010F8141080202841014041B108EB04029F
:1020E00091B27A1990B25A4600F013FC09E0D34538
:1020F00007D008EB040291B27A1990B2524600F070
:1021000008FC681CC5B2082DDCDB002524E006EBCA
:102110000610C64901EB4000801C012101EB44017F
:10212000405C80212941084048B108EB040291B28B
:102130007A19083290B25A4600F0EBFB0AE0D34518
:1021400008D008EB040291B27A19083290B25246D4
:1021500000F0DFFB681CC5B2082DD8DB601CC4B2E0
:10216000102CADDB701C86B22D2E94DB09F1020918
:1021700007F1100087B299F8000000287FF447AFFC
:10218000BDE8F88F2DE9F05F0646884693469A46EB
:10219000DDF82890E2E099F80000802835DA99F817
:1021A0000070202F03DDA7F1200087B200E0002798
:1021B000002522E000241CE005EB07109A49095C89
:1021C00080202041014041B108EB050291B2321953
:1021D00090B25A4600F09DFB09E0D34507D008EBCA
:1021E000050291B2321990B2524600F092FB601C87
:1021F000C4B2082CE0DB681CC5B2102DDADB09F193
:10220000010906F1080086B2A8E000279EE007EB6E
:10221000870000EB4710864911F8100099F800106C
:1022200088427CD107EB870000EB4710804901EB27
:102230004000407899F801108842F2D1002580E0F2
:10224000002423E007EB870000EB4710784901EBFF
:102250004000801C05EB4501405C80212141084085
:1022600040B108EB050291B2321990B25A4600F023
:1022700050FB09E0D34507D008EB050291B23219B3
:1022800090B2524600F045FB601CC4B2082CD9DB6A
:10229000002426E007EB870000EB4710644901EBC0
:1022A0004000801C05EB4501491C405C8021214118
:1022B000084048B108EB050291B23219083290B2D9
:1022C0005A4600F026FB0AE0D34508D008EB050289
:1022D00091B23219083290B2524600F01AFB601CDB
:1022E000C4B2082CD6DB002427E007EB870000EB04
:1022F00047104F4901EB4000801C05EB4501891C4C
:10230000405C80212141084050B108EB050291B2A8
:102310003219103290B25A4600F0FBFA0BE013E08B
:10232000D34508D008EB050291B23219103290B2B1
:10233000524600F0EEFA601CC4B2082CD5DB681CD3
:10234000C5B2182DFFF67CAF781C87B2142FFFF6AC
:102350005EAF09F1020906F1180086B299F8000093
:1023600000287FF418AFBDE8F09F2DE9F05F074625
:10237000884692469946002531E000242BE02D49FD
:102380000A9801EBC01000EB850010F804B000269D
:102390001DE08020304100EA0B0050B108EB05023F
:1023A00091B207EBC402324490B2524600F0B1FA47
:1023B0000BE0CA4509D008EB050291B207EBC40255
:1023C000324490B24A4600F0A4FA701CC6B2082EFD
:1023D000DFDB601CC4B2042CD1DB681CC5B2202D2D
:1023E000CBDBBDE8F09F2DE9FF4F81B005460F46DE
:1023F0009946DDF838A04FF0000B00200090002433
:102400008046002638E01AF808002038C0B2009054
:10241000002429E0009800EB4000074901EB400050
:1024200010F804B000261BE0136500088572000850
:10243000A1780008046B0008EB6200080BF00100B3
:1024400028B1B9192819039A00F063FA04E0B91900
:1024500028194A4600F05DFA4FEA6B0B701CC6B2B1
:10246000082EEBDB601CC4B2062CD3DBA81DC5B262
:1024700008F1010000F0FF081AF808000028C2D196
:1024800005B0BDE8F08F2DE9F84304460D46164629
:102490001F46DDF820804FF6FF7000F0F3F83B4652
:1024A000324629462046CDF80080FFF7A6FD00F011
:1024B000BDF8BDE8F8832DE9F84304460D461646FD
:1024C0001F46DDF820803B46324629462046CDF89F
:1024D0000080FFF792FD00F0A9F8BDE8F8832DE930
:1024E000F84304460D4616461F46DDF820804FF699
:1024F000FF7000F0C7F83B46324629462046CDF82B
:102500000080FFF770FF00F091F8BDE8F8832DE937
:10251000F84304460D4616461F46DDF820803B462C
:10252000324629462046CDF80080FFF75CFF00F0D8
:102530007DF8BDE8F883000008B50121182001F0FE
:102540007FFC4FF47040ADF8000003208DF80200CE
:1025500010208DF803006946F94801F0B5F9C02054
:10256000ADF8000003208DF8020010208DF8030064
:102570006946F44801F0A8F908BD0021082118E0D7
:1025800000F080022AB14FF40042ED4B10331A6084
:1025900004E04FF40042EA4B14331A604FF4005247
:1025A000E74B14331A601B1F1A604206100E4A1EB6
:1025B000D1B20029E4DC704710B504464020E1495F
:1025C00048612046FFF7D9FF10BD10B504464020F2
:1025D000DC4908612046FFF7D0FF10BD10B5044666
:1025E0004020D84908612012FFF7C7FFE0B2FFF78B
:1025F000C4FF10BD30B505460C462846FFF7DCFF8A
:102600002046FFF7E2FF30BD10B54FF48040CC49C3
:1026100014310860642000F08CFE4FF48040C849FB
:1026200010310860322000F084FE10BD7047F0B514
:1026300004460D4616461F462A20FFF7BDFF002020
:10264000FFF7C3FFA11CC8B2FFF7BFFF0020FFF7D1
:10265000BCFFB11CC8B2FFF7B8FF2B20FFF7ACFFDF
:102660000020FFF7B2FFE91CC8B2FFF7AEFF002061
:10267000FFF7ABFFF91CC8B2FFF7A7FF2C20FFF74D
:102680009BFFF0BD70B506467F231A460021084621
:10269000FFF7CDFF2C20FFF78FFF002408E0002577
:1026A00003E03046FFF79AFF6D1C802DF9D3641CC0
:1026B000802CF4D370BD002803DD8021A14A116174
:1026C00002E080219F4A5161704710B5FFF734FF47
:1026D000FFF79AFF0120FFF7EEFF1120FFF76CFFD5
:1026E000782000F026FEB120FFF766FF0120FFF7FB
:1026F0006CFF2C20FFF769FF2D20FFF766FFB2204B
:10270000FFF75AFF0120FFF760FF2C20FFF75DFF66
:102710002D20FFF75AFFB320FFF74EFF0120FFF7F0
:1027200054FF2C20FFF751FF2D20FFF74EFF012013
:10273000FFF74BFF2C20FFF748FF2D20FFF745FF49
:10274000B420FFF739FF0720FFF73FFFC020FFF756
:1027500033FFA220FFF739FF0220FFF736FF842066
:10276000FFF733FFC120FFF727FFC520FFF72DFF3D
:10277000C220FFF721FF0A20FFF727FF0020FFF705
:1027800024FFC320FFF718FF8A20FFF71EFF2A202F
:10279000FFF71BFFC420FFF70FFF8A20FFF715FF8D
:1027A000EE20FFF712FFC520FFF706FF0E20FFF710
:1027B0000CFF3620FFF700FFC820FFF706FFE020E0
:1027C000FFF7FAFE0F20FFF700FF1A20FFF7FDFECC
:1027D0000F20FFF7FAFE1820FFF7F7FE2F20FFF774
:1027E000F4FE2820FFF7F1FE2020FFF7EEFE222066
:1027F000FFF7EBFE1F20FFF7E8FE1B20FFF7E5FECB
:102800002320FFF7E2FE3720FFF7DFFE0020FFF76F
:10281000DCFE0720FFF7D9FE0220FFF7D6FE1020CE
:10282000FFF7D3FEE120FFF7C7FE0F20FFF7CDFE35
:102830001B20FFF7CAFE0F20FFF7C7FE1720FFF788
:10284000C4FE3320FFF7C1FE2C20FFF7BEFE292077
:10285000FFF7BBFE2E20FFF7B8FE3020FFF7B5FED6
:102860003020FFF7B2FE3920FFF7AFFE3F20FFF721
:10287000ACFE0020FFF7A9FE0720FFF7A6FE03200D
:10288000FFF7A3FE1020FFF7A0FE2A20FFF794FE1B
:102890000020FFF79AFE0020FFF797FE0020FFF7C9
:1028A00094FE7F20FFF791FE2B20FFF785FE00208E
:1028B000FFF78BFE0020FFF788FE0020FFF785FE64
:1028C0009F20FFF782FEF020FFF776FE0120FFF742
:1028D0007CFEF620FFF770FE0020FFF776FE3A2020
:1028E000FFF76AFE0520FFF770FE2920FFF764FE60
:1028F0004FF6FF70FFF7C6FEFFF798FE10BD30B52C
:1029000004460D462B46224629462046FFF78FFEF9
:1029100030BD70B504460D461646802C00DB70BDF8
:10292000802D00DBFBE7681C83B2601C82B2294665
:102930002046FFF77CFE3046FFF750FE00BFEEE773
:10294000000C01400010014060B505460E463146BE
:102950002846FFF7D4FFE0B2FFF737FE204660BD00
:102960002DE9F04704460D4616461F46DDF820A027
:102970003B46324629462046FFF759FE2C20FFF7FA
:102980001BFEA0460AE0A94604E05046FFF726FEDB
:1029900009F10109B945F8D308F10108B045F2D3AE
:1029A000BDE8F08708B50121102001F049FA0220A6
:1029B000ADF8000010208DF8030003208DF8020010
:1029C00069460E4800F080FF02210C4801F029F80A
:1029D00008BD002803DD0021094A116002E0012141
:1029E000074A1160704710B50120FFF7F2FF64201D
:1029F00000F09FFC0020FFF7ECFF10BD001001402D
:102A00008401224210B59148006820F470008F497B
:102A100008600846006840F44010086000208C49B7
:102A2000086040F2EE2000F060FC01208949C1F806
:102A300094010F2000F059FC10BD10B5002483480C
:102A4000006820F47000814908600846006840F47E
:102A50000000086004E0601CC4B2012000F045FCE6
:102A60007B488038006808B1C82CF4DBC82C01DB37
:102A7000012010BD002404E0601CC4B2012000F05D
:102A800034FC73488038006808B9F02CF4DBF02C73
:102A900001DB0120EDE70020EBE710B56B48006893
:102AA00020F47000694908600846006840F440104E
:102AB0000860002066490860022000F016FC012032
:102AC0006449C1F894016148006820F470005F49CE
:102AD00008600846006840F4000008600C2000F020
:102AE00004FC5B488038006808B1012400E0002441
:102AF000322000F0FAFB204610BD70B500260125FB
:102B000008E0FFF7CAFF0446E00140EA6600C6B2EB
:102B1000681CC5B2082DF4DD304670BD70B50446A2
:102B20004A48006820F47000484908600846006878
:102B300040F440100860012520E004F00106641014
:102B40006EB1002042490860022000F0CEFB012057
:102B50004049C1F894013C2000F0C7FB0CE0002084
:102B60003B4908603C2000F0C0FB01203949C1F816
:102B70009401022000F0B9FB681CC5B2082DDCDD11
:102B800070BD10B5FFF73EFFFFF757FFCC20FFF7F2
:102B9000C5FF4420FFF7C2FF10BD08B50121082082
:102BA00001F04EF92020ADF8000010208DF8030050
:102BB00003208DF802006946244800F085FE20219C
:102BC000224800F02EFFFFF71DFFFFF736FF08BD7C
:102BD0002DE9F05FFFF7D5FFFFF714FFFFF72DFF9B
:102BE000CC20FFF79BFFBE20FFF798FFFFF785FF84
:102BF0008346FFF782FF8146B9F1070F0ADD6FEACE
:102C0000090000F0FF096FEA0B0000F0FF0B4FF026
:102C1000000A01E04FF0010A4C46200204B204EB26
:102C20000B0004B2204603F030FA074600220A4B9C
:102C300003F042FA054603F0F9F904B214B1204654
:102C4000BDE8F09F604200B2FAE70000000C0140CE
:102C500094812142008021420000E43F0FB410B56E
:102C6000ADF5027D00244FF4007102A801F096FF3B
:102C700085A8019002A8019A849901F0D1FC002056
:102C8000019002A801F0B9FE0446214602A800F016
:102C9000F2FB0DF5027D10BC5DF814FB10B5044687
:102CA000204600F046FB10BD10B500BF0021F848DB
:102CB000A0F83A1790F83807401CC1B2F44880F8E1
:102CC000381790F83807142803DB0021F04880F803
:102CD0003817EF4890F8384704EB4401C1EBC411B2
:102CE000A0F5005202EB81004FF4FA7101F034FFBD
:102CF0000020E84921F8140010BD70B50446E448EE
:102D000090F83857E34830F81560B6F5FA7F02DBE3
:102D1000FFF7CAFF24E005EB4500C0EBC510DE4914
:102D200001EB80008455DA48B0F83A07401C81B2C4
:102D3000D748A0F83A17D74830F81500401CD549B5
:102D400021F8150026B93E2C02D1FFF7ADFF07E0B0
:102D5000D24800780D2803D10A2C01D1FFF7A4FF37
:102D6000CE48047070BD70B506464FF4FA71304617
:102D700001F0F2FEC64890F8391790F83807814202
:102D800035D1C34890F83907C5490978884215D12B
:102D9000C048C349097830F8110000280EDDBD484D
:102DA000BF49097830F81100BE490988884205D129
:102DB000BD480078401CBC4908700DE0B44890F84C
:102DC0003907B7490870B348097830F81100B54998
:102DD00008800020B4490870B3480078032804DD57
:102DE000FFF762FFB1A0FFF739FF002070BD00BF01
:102DF000A74890F83947A74830F8145004EB44002E
:102E0000C0EBC410A44A02EB80012A46304601F010
:102E10005EFE04EB4400C0EBC4109F4A02EB80034B
:102E20009B4890F839172A46A7A0FFF717FF04EB35
:102E30004401C1EBC411984A02EB81004FF4FA71CE
:102E400001F08AFE0020934921F81400904890F880
:102E50003907401CC1B28E4880F8391790F83907FD
:102E6000142803DB00218A4880F8391700208C4998
:102E700008708C4908808C4908702846B6E738B538
:102E800004460121082000F0DBFF0120ADF800001E
:102E900010208DF8030003208DF8020069468E484B
:102EA00000F012FD01218C4800F0BDFD002C07DD73
:102EB0004FF4FA70FFF7F2FE0121874800F0B1FDF0
:102EC00086A0FFF7CBFE38BD0FB410B5ADF5027D7F
:102ED00000244FF4007102A801F060FE85A8019063
:102EE00002A8019A849901F09BFB0020019002A89E
:102EF00001F083FD0446214602A800F0E7FB0DF532
:102F0000027D10BC5DF814FB70B50446002504B9C1
:102F100070BD204601F071FD85B22946204600F0C3
:102F2000D5FB214670A0FFF799FE00BFF0E770B512
:102F300002460C4611460AB9002070BD08783028B8
:102F400016DB0878392813DC002306E00878514D99
:102F50004D35E854491C581CC3B2142B06DA29B16C
:102F60000878302802DB08783928EFDD0120E4E713
:102F70000020E2E72DE9F04105460F46002415B98F
:102F80000020BDE8F0815BA1284601F024FD044645
:102F900084B10026641D00E0641C14B12078202850
:102FA000FAD0204601F00AFDC1B2394880F85C171A
:102FB0000120E6E70020E4E72DE9F04106460F4650
:102FC000002416B90020BDE8F0814CA1304601F084
:102FD00002FD0446002C30D0A41D4AA1204601F079
:102FE000FAFC04460CB90020EDE7641C45A120461C
:102FF00001F0F1FC04460CB90020E4E7641CD4B1F4
:10300000002500E0641C14B120782228FAD1641C49
:103010001E2120482E3001F09FFD05E020781D493B
:103020002E314855641C6D1C142D03DA14B1207820
:103030002228F3D100BF0120C5E70020C3E770B507
:1030400004460D4600260CB9002070BD29462046D6
:10305000FFF7B2FF08B10120F7E729462046FFF746
:1030600089FF08B10120F0E729462046FFF75FFFFE
:1030700008B10120E9E70020E7E72DE9F041054626
:103080000E460027B84615B90020BDE8F0813BE0A8
:103090005C3300206C3A00205C13002022000020EA
:1030A0002300002024000020260000202A2A2A2AAB
:1030B0002A2A2A6368616E67654C696E652A2A2A26
:1030C0002A2A2A2A0D0A00005B25645D2C5B2564F0
:1030D0005D2C257300000000000C01400D0A706F8C
:1030E0007765720D0A00000041543E3E3E3A25735A
:1030F0000D0A00002B4353513A0000002B434F5060
:10310000533A00002C0000002846FFF7FDFE16B9D8
:103110000020BDE8F0810027B8462AE03220FFF702
:10312000BDFD4848FFF71FFE0446B4B146A145481F
:1031300001F051FC08B101270FE044A1414801F022
:103140004AFC20B943A13F4801F045FC08B10327E0
:1031500003E021463B48FFF772FF08F1010000F051
:10316000FF08002F00DD05E0B8F1C80F01DD0227E0
:1031700000E0D3E700BF294638A0FFF76FFD3846CF
:10318000C7E710B51E240CE0012137A0FFF775FF3B
:10319000384801F032FC00B108E040F6B830FFF7E3
:1031A0007DFD201EA4F10101CCB2EDDC00BF10BDFD
:1031B00010B588B02021684601F0F0FC08242D48A5
:1031C0001F3001F01AFC30B12BA12A481F3001F04A
:1031D00002FC00B10524012129A0FFF74EFF2B4876
:1031E00090F87B07A0420DD0224629A1684601F045
:1031F00035FA01216846FFF740FF012802D1234834
:1032000080F87B4708B010BD10B5012124A0FFF75E
:1032100034FF10BD10B528240DE0012123A0FFF7D5
:103220002CFF14481F3001F0E8FB00B108E04FF418
:103230007A70FFF733FD201EA4F10101CCB2ECDC63
:1032400000BF10BD681100204F4B00004552524F87
:10325000520000004641494C00000000454E442009
:1032600041543A257300000041542B434F50533FC3
:103270000D0A00009A3A0020343630313100000047
:1032800041542B4E42414E443F0D0A005C33002016
:1032900041542B4E42414E443D25640D0A0000002E
:1032A00041542B4353510D0A0000000041542B435D
:1032B000494D490D0A00000010B56FF0040000F000
:1032C00084FA2E4800682E49B0FBF1F02D490870B1
:1032D0000846007800EB4001C1EBC0104FF6FF71CB
:1032E00001EAC0002849088010BD0146254A12782D
:1032F0004A434FF0E0235A6100229A611A4612694C
:1033000042F001021A6100BF4FF0E022106900F0A4
:1033100001021AB100F48032002AF5D04FF0E02209
:10332000126922F001024FF0E0231A6100229A6133
:1033300070470146144A12884A434FF0E0235A610D
:1033400000229A611A46126942F001021A6100BF16
:103350004FF0E022106900F001021AB100F480324F
:10336000002AF5D04FF0E022126922F001024FF05E
:10337000E0231A6100229A61704700000C000020CF
:1033800000127A00280000202A000020014600BF19
:10339000704700BF3E4A128802F04002002AF9D06E
:1033A000C2B23B4B1B1D1A80704710B586B0044655
:1033B000012144F2040000F043FD4FF40070ADF829
:1033C000140003208DF8160018208DF8170005A9A9
:1033D000304800F079FA4FF48060ADF81400042012
:1033E0008DF8170005A92B4800F06EFA25208DF8FE
:1033F000000003208DF801008DF8020001208DF8F7
:103400000300684600F097F901940020ADF8080029
:10341000ADF80A00ADF80C00ADF810000C20ADF8C6
:103420000E0001A91A4800F0B2FD012240F2255118
:10343000174800F044FE0121154800F034FE06B0A4
:1034400010BD10B540F22551114800F01DFF18B114
:103450000F4800F099FEC4B210BD10B504462146D5
:103460000B4800F08DFE00BF8021094800F0F6FEF9
:103470000028F9D010BD70B505460E46002403E0C3
:10348000285DFFF7EAFF641CB442F9D370BD000069
:10349000003801400008014008B50121082000F073
:1034A000CFFC0220ADF8000010208DF803000320AF
:1034B0008DF802006946484800F006FA00204749A6
:1034C000086008BD10B586B004460121042000F054
:1034D000B7FC0121480400F0C0FC0420ADF8140042
:1034E00003208DF8160018208DF8170005A93C4818
:1034F00000F0EAF90820ADF8140004208DF8170058
:1035000005A9374800F0E0F926208DF800000320D7
:103510008DF801008DF8020001208DF80300684647
:1035200000F009F901940020ADF80800ADF80A0098
:10353000ADF80C00ADF810000C20ADF80E0001A99C
:10354000284800F024FD012240F22551254800F0D2
:10355000B6FD0121234800F0A6FDFFF79DFF06B050
:1035600010BD10B540F225511E4800F08DFE78B117
:103570001D480068401C1C4908601A4800F004FE01
:10358000C4B21A48006818B120461849096888472B
:1035900010BD10B504462146124800F0F1FD00BFF1
:1035A0008021104800F05AFE0028F9D010BD70B5F7
:1035B00006460C460E48006820440D490860002568
:1035C00003E0705DFFF7E5FF6D1CA542F9D370BD08
:1035D0000649086070470000000C014084812142C8
:1035E0000008014000440040380000203C0000205A
:1035F0003400002010B586B004460121082000F0F8
:103600001FFC0121880400F028FC4FF48060ADF815
:10361000140003208DF8160018208DF8170005A956
:10362000304800F051F94FF40060ADF81400042068
:103630008DF8170005A92B4800F046F927208DF8D2
:10364000000003208DF801008DF8020001208DF8A4
:103650000300684600F06FF801940020ADF8080000
:10366000ADF80A00ADF80C00ADF810000C20ADF874
:103670000E0001A91C4800F08AFC012240F22551ED
:10368000194800F01CFD0121174800F00CFD06B0A0
:1036900010BD10B540F22551134800F0F5FD30B1D2
:1036A000114800F071FDC4B22046FFF726FB10BDA3
:1036B00010B5044621460C4800F062FD00BF802191
:1036C000094800F0CBFD0028F9D010BD70B50546C3
:1036D0000E46002403E0285DFFF7EAFF641CB442B5
:1036E000F9D370BD000C01400048004009488047F4
:1036F00009480047FEE7FEE7FEE7FEE7FEE7FEE7D4
:10370000FEE7FEE7FEE7FEE704480549054A064BEB
:10371000704700006313000831010008383B0020A7
:1037200038410020383D0020383D00203149014318
:10373000314A1160704770B5002100230F22C47810
:1037400004B32D4C246804F4E064C4F5E064210A59
:10375000C1F10403CA40447804FA03F184781440A8
:1037600021430901254C0678A155047804F01F0572
:103770000124AC4005786D11AD0005F1E025C5F8D8
:10378000004109E0047804F01F050124AC401C4D01
:103790000678761145F8264070BD1A4A0A40024361
:1037A000154B1B1F1A60704739B1134A121D12685E
:1037B0000243114B1B1D1A6006E00F4A121D1268CE
:1037C00082430D4B1B1D1A607047042808D14FF02F
:1037D000E021096941F004014FF0E022116107E0A6
:1037E0004FF0E021096921F004014FF0E02211615E
:1037F000704700000000FA050CED00E000E400E076
:1038000080E100E080FFFF1F10B50446CC488442F1
:1038100008D10121042000F02DFB0021042000F03C
:1038200029FB46E0C748844208D10121082000F066
:1038300021FB0021082000F01DFB3AE0C248844231
:1038400008D10121102000F015FB0021102000F00C
:1038500011FB2EE0BD48844208D10121202000F058
:1038600009FB0021202000F005FB22E0B84884423B
:1038700008D10121402000F0FDFA0021402000F095
:10388000F9FA16E0B348844208D10121802000F003
:10389000F1FA0021802000F0EDFA0AE0AE488442FF
:1038A00007D10121801500F0E5FA0021A01500F0F4
:1038B000E1FA10BD10B50121084600F0DBFA002145
:1038C000012000F0D7FA10BD2DE9F0410246002595
:1038D0000026002000230024002791F803C00CF0EC
:1038E0000F0591F803C00CF0100CBCF1000F03D0D1
:1038F00091F802C04CEA050591F800C0BCF1000F38
:1039000031D0146800202BE04FF0010C0CFA00F3CA
:10391000B1F800C00CEA03069E4220D183004FF0AC
:103920000F0C0CFA03F7BC4305FA03FC4CEA040441
:1039300091F803C0BCF1280F06D14FF0010C0CFA2E
:1039400000FCC2F814C00AE091F803C0BCF1480FB3
:1039500005D14FF0010C0CFA00FCC2F810C0401C5D
:103960000828D1D31460B1F800C0BCF1FF0F34DDDA
:10397000546800202EE000F1080C4FF0010808FA0E
:103980000CF3B1F800C00CEA03069E4221D183007B
:103990004FF00F0C0CFA03F7BC4305FA03FC4CEA9A
:1039A000040491F803C0BCF1280F05D100F1080C04
:1039B00008FA0CF8C2F8148091F803C0BCF1480F63
:1039C00007D100F1080C4FF0010808FA0CF8C2F812
:1039D0001080401C0828CED35460BDE8F0814FF61B
:1039E000FF710180022181700421C170704702467D
:1039F000002093680B400BB1012000E000207047CD
:103A00000146886880B2704702460020D3680B40A8
:103A10000BB1012000E0002070470146C86880B269
:103A2000704701617047416170470AB1016100E070
:103A300041617047C16070474FF480320A43826130
:103A40008161826182698269704702460020434B2E
:103A500018684FF68073184040EA021008433F4B45
:103A6000186070473E49C8617047F0B50A460023A8
:103A700000240021002500F00046B6F1004F02D1DD
:103A8000364EF16901E0354E7168C0F3034583B2EB
:103A900000F44016B6F5401F08D121F070612F4E9A
:103AA000766826F070662D4F7E6012E000F4801676
:103AB000B6F5801F06D1032606FA05F4A14341F0AE
:103AC000706106E0460D360103FA06F6B14341F097
:103AD000706122B1460D360103FA06F6314300F05B
:103AE0000046B6F1004F02D11C4EF16101E01B4EC1
:103AF0007160F0BD30B500228B071C0F0F2303FA55
:103B000004F2164B08338C1053F824309343134CB3
:103B100008348D1044F8253023468C1053F8243097
:103B20008C07240F00FA04F423430C4C08348D1046
:103B300044F8253030BD0A49DC3108607047000088
:103B400000080140000C0140001001400014014039
:103B500000180140001C014000200140000001400D
:103B600000002042DF48006840F00100DD490860A5
:103B700008464068DC490840DA4948600846006861
:103B8000DA490840D74908600846006820F48020D8
:103B900008600846406820F4FE0048604FF41F00AB
:103BA00088607047CF49096821F48031CD4A11609F
:103BB0001146096821F480211160B0F5803F03D0DF
:103BC000B0F5802F0ED106E0C649096841F4803176
:103BD000C44A116007E0C349096841F4A021C14A01
:103BE000116000E000BF00BF704710B50146002221
:103BF000002300204A11012A02D1BA4C236806E0B2
:103C0000022A02D1B74C236A01E0B64C636A01F084
:103C10001F02012494401C400CB1012000E0002050
:103C200010BD38B5002000900024002500BF3120D1
:103C3000FFF7DBFF05460098401C00900098B0F5A8
:103C4000A06F01D0002DF2D03120FFF7CEFF08B1D8
:103C5000012400E00024204638BD01460020A14A8E
:103C6000106820F0F80040EAC10010607047A049D9
:103C700008607047024600209A4B586820F47C1078
:103C800042EA01031843974B586070479849086609
:103C9000704701460020934A506820F00300084313
:103CA000506070478F48406800F00C007047014634
:103CB00000208C4A506820F0F000084350607047A4
:103CC00001460020874A506820F4E06008435060B5
:103CD000704701460020834A506820F4605040EA53
:103CE000C1005060704729B17E4A527A02437D4B31
:103CF0005A7204E07B4A527A82437A4B5A72704776
:103D00007B49D8310860704701460020754A5068E9
:103D100020F440400843506070470021714A20322F
:103D20001170704A82F82010012802D004280AD1AC
:103D300004E001216B4A2032117005E00521694A37
:103D40002032117000E000BF00BF70476949086071
:103D500070476449096A0143624A116270476549C4
:103D600044390860704730B5002100220024002348
:103D70005C4D6D6805F00C0121B1042905D00829BE
:103D800023D105E05C4D056022E05B4D05601FE03E
:103D9000544D6D6805F47012524D6D6805F4803411
:103DA000022505EB92421CB9544D554305600BE0CA
:103DB0004C4D6D6805F400351DB1504D55430560FF
:103DC00002E04D4D5543056002E04B4D056000BFDC
:103DD00000BF444D6D6805F0F0010909484D6B5C6A
:103DE0000568DD4045603F4D6D6805F4E061090AF6
:103DF000434D6B5C4568DD4085603A4D6D6805F468
:103E00006051C90A3E4D6B5C4568DD40C560354D6B
:103E10006D6805F44041890B3A4D6B5CC568B5FB94
:103E2000F3F5056130BD29B12E4A526902432D4B8D
:103E30005A6104E02B4A526982432A4B5A61704707
:103E400029B1284A92690243264B9A6104E0254A27
:103E500092698243234B9A61704729B1214AD26902
:103E60000243204BDA6104E01E4AD26982431D4BB3
:103E7000DA61704729B11B4AD2680243194BDA60F4
:103E800004E0184AD2688243164BDA60704729B1C1
:103E9000144A12690243134B1A6104E0114A126971
:103EA0008243104B1A6170471249403908607047CD
:103EB0000F49C86470470B49C87170470948406A88
:103EC00040F0807007494862704701460020054A6B
:103ED00092680A400AB1012000E0002070470149C1
:103EE00088727047001002400000FFF8FFFFF6FEE6
:103EF000000042428004424200127A0000093D0064
:103F0000400000205000002010B50446FB488442C9
:103F100009D101218803FFF7ADFF00214FF4804054
:103F2000FFF7A8FF32E0F648844209D10121480496
:103F3000FFF7ADFF00214FF40030FFF7A8FF25E0A9
:103F4000F048844209D101218804FFF7A0FF002135
:103F50004FF48020FFF79BFF18E0EB48844209D123
:103F60000121C804FFF793FF00214FF40020FFF761
:103F70008EFF0BE0E548844208D101210805FFF7D8
:103F800086FF00214FF48010FFF781FF10BD2DE95F
:103F9000F04786B005460E460024A24600BFA14663
:103FA0000027B08900B100BF2F462C8A4CF6FF7065
:103FB0000440F08804432C82AC894EF6F310044090
:103FC000B08831890843718908430443AC81AC8AC5
:103FD0004FF6FF400440B0890443AC8201A8FFF7CC
:103FE000C2FEC648874202D1DDF810A001E0DDF82C
:103FF0000CA0A88900F4004040B10AEBCA0000EB15
:104000000A1031684900B0FBF1F807E00AEBCA007A
:1040100000EB0A1031688900B0FBF1F86420B8FBAE
:10402000F0F004012009642101FB1089A88900F443
:10403000004040B1322000EBC900B0FBF1F000F0CD
:104040000700044308E0322000EB09106421B0FBB4
:10405000F1F000F00F0004432C8106B0BDE8F087BA
:104060004FF41651016000218180C18001810C2133
:10407000418100218181704710B502460020108ADD
:104080004FF2FF0318400B884C8823438C8823434E
:10409000CC8823431843108210BD00210180418049
:1040A0008180C180704721B1828942F400528281AF
:1040B00004E082894DF6FF731A4082817047F0B5A3
:1040C0000346002400260025002040F66A17B94266
:1040D00000D100BF1846C1F3421401F01F060127AA
:1040E00007FA06F5012C01D10C3004E0022C01D1B5
:1040F000103000E014301AB107682F43076002E067
:104100000768AF430760F0BD1AB1838A0B4383820F
:1041100002E0838A8B4383827047028A4FF6F073F2
:104120001A400282028A0A430282704782894FF251
:10413000FF731A40828182890A438281704721B1CC
:10414000828942F00202828104E082894FF6FD7387
:104150001A4082817047028A4FF6DF731A4002824A
:10416000028A0A430282704721B1028A42F48042E5
:10417000028204E0028A4BF6FF731A400282704703
:10418000C1F308028280704701468888C0F30800A6
:104190007047818941F0010181817047028BD2B261
:1041A0000283028B42EA012202837047028B02F4EF
:1041B0007F420283028B0A430283704721B1828AC5
:1041C00042F02002828204E0828A4FF6DF731A40B6
:1041D0008282704721B1828A42F01002828204E01A
:1041E000828A4FF6EF731A408282704721B1828A29
:1041F00042F00802828204E0828A4FF6F7731A4086
:104200008282704721B1828942F40042828103E0B8
:104210008289C2F30E028281704721B1828A42F400
:104220000062828204E0828A4FF2FF731A40828227
:104230007047828A4FF6FB731A408282828A0A4351
:104240008282704721B1828A42F00202828204E0B7
:10425000828A4FF6FD731A40828270470246002020
:10426000B1F5007F00D100BF13880B400BB10120D6
:1042700000E00020704701F40072B2F5007F00D129
:1042800000BFCA430280704770B502460024002375
:104290000025002040F66A16B14200D100BFC1F3EC
:1042A000421501F01F03012606FA03F3012D02D186
:1042B0009689334006E0022D02D1168A334001E090
:1042C000968A33400C12012606FA04F4168834400C
:1042D00013B10CB1012000E0002070BD10B5002228
:1042E000002340F66A14A14200D100BF0A12012443
:1042F0009440A3B2DC43048010BD000000380140AC
:104300000044004000480040004C00400050004085
:1043100010B50446BE48844208D101218014FFF73D
:10432000A9FD0021A014FFF7A5FD16E0B9488442BD
:1043300008D101210014FFF7AAFD00212014FFF786
:10434000A6FD0AE0B448844207D10121C013FFF75B
:104350009EFD0021E013FFF79AFD10BD10B500226D
:10436000028802F441520B884C8823438C882343F3
:10437000CC8823430C8923434C8923438C892343D2
:10438000CC8923431A430280838B4FF2FF7423406E
:1043900083830B8A038210BD2DE9F04F85B005465B
:1043A0000C464FF0000902274FF000084FF0010BB8
:1043B0000026B246A88B4FF240010840A883022095
:1043C0002884B5F81C90A068022801D100BF38E00D
:1043D000A08810B94FF0010B01E04FF0020B8D489F
:1043E000854200D100E000BF6846FFF7BCFCDDF865
:1043F00000A0E088B0F5007F0AD14FEA1A2000EB58
:1044000080004000A168B0FBF1F0401D86B20BE0D7
:104410004FEA4B10BAFBF0F000EB80004000A168BF
:10442000B0FBF1F0401D86B20A20B6FBF0F606F0B4
:104430000108A6EB0800C0F34F074FF6FF7000EA33
:104440000828022F01DBFF2F02DD02274FF00008B2
:10445000E08840EA080038432884A088A1890843FE
:10446000618808432188084340F4006040EA090954
:10447000A5F81C9005B0BDE8F08F002101804180B7
:104480008180C180018141818181C18107210182B7
:1044900070470021018041808180C18002218160BC
:1044A00000218181704721B1028842F040020280E0
:1044B00004E002884FF6BF731A400280704721B1B2
:1044C000828B42F48062828304E0828B4FF6FF335A
:1044D0001A408283704730B5002400230C11012557
:1044E000A540ABB21AB185881D43858002E085885E
:1044F0009D43858030BD1AB183880B43838002E0E1
:1045000083888B4383807047818170470146888907
:1045100070474FF6FF62914204D0028842F48072E5
:10452000028004E002884FF6FF631A400280704761
:1045300021B1828842F00402828004E082884FF632
:10454000FB731A408280704702884FF2FF731A4053
:10455000028002880A4302807047018841F480513A
:104560000180704721B1028842F40052028004E0C9
:1045700002884DF6FF731A40028070470246002001
:10458000012901D0108B00E0908A70470146088A0B
:104590007047B1F5804F04D1028842F48042028016
:1045A00004E002884BF6FF731A400280704702460F
:1045B000002013890B400BB1012000E00020704760
:1045C000CA4302817047F0B5024600200024002350
:1045D000002501F00F070126BE40B4B20B110126E1
:1045E0009E40B3B2968806EA03051689264016B1A6
:1045F0000DB1012000E00020F0BD10B5002201F057
:104600000F040123A3409AB2D343038110BD0000DD
:104610000030014000380040003C0040704700007E
:104620001CB50C46064B7B4469460090204600F0C2
:104630006AFB04460020694600F078FB20461CBD5A
:10464000030700000FB4044910B503AA029800F054
:1046500089FB10BC5DF814FB2C0000200FB41CB5C6
:10466000084B06AA7B4469460090059800F04BFB76
:1046700004460020694600F059FB20461CBC5DF84A
:1046800014FB0000C506000070B50446856900688B
:10469000C10601D5302600E02026C00707D070BD36
:1046A000D4E9012130469047206A401C20626D1EEB
:1046B000F6D570BD70B5044685690078C00707D18E
:1046C00070BDD4E9012120209047206A401C20625F
:1046D0006D1EF6D570BD70B50C460546012A05D095
:1046E0002878800600D5EA69002302E0012305E06E
:1046F0005B1C934202D2E05C0028F9D1A869E6185D
:10470000C01AA861286A184428622846FFF7BCFF2F
:1047100004E0D5E9012114F8010B9047B442F8D325
:104720002846FFF7C7FF70BD2DE9F041064600247B
:1047300010687529314616A510D000F05FFA0028E0
:1047400002DA404213A507E031688A0701D512A5B5
:1047500002E0490704D511A5012401E000F057FA51
:1047600000210A2206F1240709E0B0FBF2FCB0FBAD
:10477000F2F302FB1C00303078541846491C002824
:10478000F3D123462A463046BDE8F04100F048BA4E
:10479000000000002D0000002B00000020000000A1
:1047A000F0B40D460188090502D5214C7C4402E095
:1047B0001F4C7C440E34002100F1240608E002F076
:1047C0000F071209E75D42EA03721B097754491C7F
:1047D00052EA0307F3D102780023120704D5702DA3
:1047E00006D009B1022311342246F0BC00F018BAF9
:1047F00001231034F8E770B504460D4621461068D1
:1048000000F005FA024629462046BDE87040002324
:10481000C6E7D21D22F00703D3E90023C0E70368EF
:10482000126843F0200303600823C3610023B7E745
:104830006F3600002DE9F05F894604464FF0000A0C
:10484000DFF874B1FB44C0F820A02046E168884737
:10485000002874D0252806D0D4E901219047206A89
:10486000401C2062F1E700265F462046E168884749
:104870002028054607DB312D05D2781910F8200CC9
:1048800008B10643F1E7B00701D526F00406C4F8E5
:104890001CA00027C4F818A02A2D09D0284601F032
:1048A00092FB38B304EB8708303DC8F8185019E084
:1048B00059F8041B204604EB87029161E1688847A0
:1048C000012F054618D1E069002820DA26F02006DD
:1048D0001DE0D8F8180000EB800005EB40003038F0
:1048E000C8F818002046E1688847054601F06BFBD0
:1048F0000028EED1012F0AD02E2D08D12046E168E4
:1049000088477F1C0546022F46F02006C4DBA069BD
:10491000002803DA404246F00106A061F00701D00A
:1049200026F010066C2D0BD0682D09D04C2D39D0F7
:104930006A2D35D0742D35D07A2D33D016E038E07D
:10494000E1682F4620468847B842054609D16C2FBA
:1049500026D04FF48060E16806432046884705462C
:1049600004E06C2F1AD04FF4807006430DB3A5F10C
:104970004100192802D8203546F400664A462946E7
:10498000204626604E46FBF70DFC80B101280BD077
:10499000F61D26F0070000F1080956E74020E4E77D
:1049A0008020D8E70020D6E706F104094DE7284625
:1049B00052E7206ABDE8F09FFF35000070B506465B
:1049C00000F018F90468054630460A22002100F07C
:1049D000AFFA2C6070BD30B505460B462A4613F879
:1049E000014B12F8010B08B1A042F8D01CB100280D
:1049F00002D06D1CF1E7284630BD10B5431C02E023
:104A000010F8011B71B18107FAD14FF0013202C8D1
:104A10008C1A8C4314EAC211F9D0C01A0A0603D0CA
:104A2000C01E10BDC01A10BD0A0401D0801E10BDEA
:104A30000902FCD0401E10BD40EA010370B59B077F
:104A40002ED14FF00136042A2AD308C810C99D1B65
:104A50009D43121F15EAC61517D0D8B2E1B2401A0D
:104A600050EA056110D198B2A1B2401A50EA05414E
:104A70000AD123F07F4024F07F41401A50EA0521FB
:104A800002D1180EA0EB146070BDA342DBD018BA9F
:104A900021BA884201D9012070BD4FF0FF3070BDAE
:104AA0000AB9002070BD10F8013B11F8014B63B149
:104AB000A3420AD1521E08D010F8013B11F8014B55
:104AC0001BB1A34201D1521EEDD1181B70BD032AA8
:104AD00040F2308010F0030C00F0158011F8013B1B
:104AE000BCF1020F624498BF11F801CB00F8013B02
:104AF00038BF11F8013BA2F1040298BF00F801CBC6
:104B000038BF00F8013B11F0030300F04982083A76
:104B1000C0F0088051F8043B083A51F804CBA0E8F3
:104B20000810F5E7121D5CBF51F8043B40F8043B48
:104B3000AFF30080D20724BF11F8013B11F801CB7D
:104B400048BF11F8012B24BF00F8013B00F801CB4E
:104B500048BF00F8012B70474FF000020429C0F055
:104B6000128010F0030C00F01B80CCF1040CBCF19F
:104B7000020F18BF00F8012BA8BF20F8022BA1EBF1
:104B80000C0100F00DB85FEAC17C24BF00F8012BD6
:104B900000F8012B48BF00F8012B70474FF00002CE
:104BA00000B5134694469646203922BFA0E80C5023
:104BB000A0E80C50B1F12001BFF4F7AF090728BFFE
:104BC000A0E80C5048BF0CC05DF804EB890028BF7A
:104BD00040F8042B08BF704748BF20F8022B11F0A3
:104BE000804F18BF00F8012B70477047704770471F
:104BF0007047000000487047D83A002009684A050D
:104C000001D540B27047C905FCD500B270470968AC
:104C10004A0501D5C0B27047C905FCD580B27047BE
:104C20002DE9F0470D4699469246044600F12408C6
:104C30000168880604D5E06921F01001216000E0D8
:104C40000120A84201DD471B00E00027A1697A1975
:104C500002EB0900081AA0612078C00602D42046A1
:104C6000FFF712FD002608E0D4E901211AF806003A
:104C70009047206A401C761C20624E45F4DB207869
:104C8000C0060AD52046FFF7FFFC06E0D4E9012163
:104C900030209047206A401C2062381EA7F101078F
:104CA000F4DC07E0D4E9012118F805009047206AF8
:104CB000401C2062281EA5F10105F3DC2046FFF709
:104CC000F9FC2078000602D50220BDE8F08701201B
:104CD000FBE711680268006A530501D508700AE015
:104CE000D30501D5088006E0130603D5C217C1E934
:104CF000000200E0086001207047000001694A1CC2
:104D000002610878704700B58FB0CDE9013100210C
:104D1000059105497944CDE9031011466846FFF72E
:104D200089FD0FB000BD0000E5FFFFFF0A6802F833
:104D3000010B0A60704710B5436913B1AFF30080EF
:104D400001E0FFF7C8FC012010BD127800F124013A
:104D50000A7000224A700122EDE711684FF0FF321D
:104D6000E9E70000074B70B50D467B44FFF7CBFF2A
:104D70000446284600F009FC10B14FF0FF3070BD2A
:104D8000204670BD25E6FFFF2DE9FF5F15468A46E8
:104D90000446DFF8AC80F8440027D8E900103E460E
:104DA000CDE9001010E03AF816106A4602A800F0AB
:104DB000F0FB411C07D02178890603D5E269391838
:104DC00091420DD80744761C2078800602D5E06910
:104DD000B84205DDAE42E6DB3AF816000028E2D123
:104DE000A069C01BA0612046FFF74EFCD8E9001067
:104DF000CDE90010002017E03AF818106A4602A822
:104E000000F0C7FBB0F1FF3F81460BD000250DF14C
:104E1000080B05E0D4E901211BF8050090476D1C43
:104E20004D45F7D308F10100B0428046E4DB206A2B
:104E3000384420622046FFF73DFCBDE8FF9F00009C
:104E4000BE3000002DE9F0418046D21D22F007025D
:104E50000025D2E90002F52915A614D0011E72F131
:104E6000000106DA0023D0EB030063EB020211A677
:104E700008E0D8F800108B0701D50FA602E049071B
:104E800001D50EA601251146002408F1240704E0EF
:104E900000F0C4F830323A55641C50EA0102F7D1F0
:104EA0002B46324621464046BDE8F041FFF7B8BEEA
:104EB000000000002D0000002B000000200000007A
:104EC00030B4002100F1240408E002F00705D20804
:104ED000303542EA4372DB086554491C52EA030547
:104EE000F3D10468002310A2250708D504F020049C
:104EF0000C4304D0C46901230CA2641EC46130BCFD
:104F0000FFF78EBE10B5044621461068FFF77FFEFE
:104F100002462046BDE810400023D1E7D21D22F012
:104F20000701D1E90023CBE70000000030000000BA
:104F30002DE9F04791460F4680460446002614F8B6
:104F4000015B2DB100F062F80068405DC007F6D14A
:104F50002B2D02D02D2D18D0641E4A4639462046EE
:104F600000F0C4FA27B13968A14201D1C7F8008026
:104F70004FF0020471050BD54042002803DDFFF716
:104F800039FE0460A007BDE8F08746F48066E4E7D8
:104F90000028F8DAFFF72EFE04606FF00040F2E719
:104FA00010B5203AC0F00B80B1E81850203AA0E8C4
:104FB0001850B1E81850A0E81850BFF4F5AF5FEAF8
:104FC000027C24BFB1E81850A0E8185044BF18C9AB
:104FD00018C0BDE810405FEA827C24BF51F8043B52
:104FE00040F8043B08BF7047D20728BF31F8023BA6
:104FF00048BF11F8012B28BF20F8023B48BF00F83A
:10500000012B704700487047D83A002010B500F0D7
:1050100005FB001D10BD00BFBD0F000030B5B0F195
:105020000A024FEA900E71F100034EEA817EB0EB66
:105030000E0061EB91014FEA101E4EEA017E10EB6B
:105040000E0041EB11114FEA102E4EEA016E10EBEB
:105050000E0041EB11214FEA104E4EEA014E10EBCB
:105060000E0041EB1141401841F100014FEAD00020
:1050700040EA41704FEAD10110EB80054FEA81040C
:1050800044EA907444EB01046D1944EB0404521B90
:10509000A3414FF0000348BF0A3200D530BD401C89
:1050A00041F1000130BD70472DE9FF4F0C461E460F
:1050B0004FF0FF378BB0D2E90001DDF860800A9035
:1050C0008A46C1F30A5505B93D46002108464FF00E
:1050D0000000BAF1000F00F4400005DA00EB800098
:1050E0004FF4400101EA50004FEA9059B9F1010F25
:1050F00000DDB9460A9850EA4A000ED044F6105036
:10510000A5F2FF3545432F14B8F1000F1ED07542AC
:10511000291E1EDDC9F100021CE0B8F1010F4FF09D
:10512000000001D0302103E0F24305E02154401C8F
:10513000B042FBDB30460022002121540B99C1F81C
:105140000880C1E900200FB0BDE8F08FBD1B6D1CC9
:10515000DEE74A4600DA694206A800F0B1FA06AB7B
:1051600093E8070003AB83E8070050460A9900F074
:105170005BFB8DE80700A0F500501F3800900398F6
:10518000002D09DD42F21F014A46084403A903909D
:10519000684600F0BAFD08E0A0F500504A461F3806
:1051A00003A90390684600F0C4FD8DE807000004E1
:1051B000000C03D04FF0FF30410800E01046B8F17A
:1051C000000F03D00022009215461EE0751E05D484
:1051D000FFF724FF303262556D1EF9D5B346012228
:1051E000084302D000227F1C04E02078302801D13F
:1051F00000227F1E002A099786D01DE0112D07DAB4
:10520000FFF70CFF303262556D1C50EA0102F5D1F8
:10521000084302D00098C8B10EE00021681E05E0E6
:10522000235C625C63542254401E491C8142F7DBBC
:10523000AB46A81B401E0990002004F80B000B98F9
:10524000099AC0F80880C0E9002B7CE711264FF0CE
:10525000000859E72DE9F04F88460446D21D22F098
:10526000070191B0D1E90001CDE90A0100F097FEF4
:1052700002460B98C00F01D02D2007E0206881075F
:1052800001D52B2002E0202101EAC000032A099069
:1052900001D0072A05DB03464146204600F0C2F94B
:1052A0000BE12078800601D5E06900E00620B8F126
:1052B000650F814606D0B8F1660F18D0B8F1670FB8
:1052C00070D131E00020B9F1110F009001DB112302
:1052D00001E009F101030AAA01A90CA8FFF7E4FE05
:1052E000DDE90C70002609F10105834647E0012045
:1052F0004B4600904FF000470AAA01A90CA8FFF7FF
:10530000D3FEDDE90DB00C995D46002610B909F118
:1053100001000D18B9EB050003D4C0F1FF3609F107
:105320000105A5EB09002BE0B9F1010F01DA4FF0FF
:1053300001090020B9F1110F0090484601DD112349
:1053400000E003460AAA01A90CA8FFF7ADFEDDE9BB
:105350000C704D4600268346207800070AD4AB45E2
:1053600000DA5D4601A8012D04DD411911F8011C88
:10537000302907D04F4502DA17F1040F04DA012073
:1053800082460FE06D1EEEE7002F02DCED1B3E446F
:1053900003E0781CA84200DD7D1CB81B00F1010A67
:1053A0004FF000472078000703D4AA4501DB4FF0F7
:1053B000FF3A0021B7F1004F0DF143088DF843107B
:1053C00024D002202B23002F01DA7F422D230A2133
:1053D000021EA0F1010000DC5FB197FBF1FC97FB1E
:1053E000F1F201FB1C7C17460CF1300C08F801CDE2
:1053F000EEE7A8F1010003702188090501D54521D8
:1054000000E06521A0F1010800F8011C09980FA92E
:10541000A1EB0807FF1D00B10120411901EBEA7063
:10542000A1693844081A401EA0612078C00602D441
:105430002046FFF729F9099828B1D4E901219047BE
:10544000206A401C20622078C00622D52046FFF743
:105450001BF91EE0002E04DBB34502DD01A8805DD0
:1054600000E03020D4E901219047206A401C2062EE
:10547000761CAAF101005FEA000A0AD100F0CEF81A
:10548000C0680168405CD4E901219047206A401C53
:105490002062281EA5F10105DCDC07E0D4E901212A
:1054A00018F8010B9047206A401C2062381EA7F1B3
:1054B0000107F3DC2046FFF7FDF8032011B043E6B7
:1054C00010B5436913B1AFF3008001E0FFF75CFC56
:1054D000012010BD128800F1240182840022C284C0
:1054E0000122EDE711684FF0FF32E9E72DE9F05FA7
:1054F000824615468B4600270AF10104B94600781A
:10550000302801D09DB113E014F8010B0127782851
:1055100003D0582801D045B10AE00DB1102D07D1B4
:10552000002714F8010B102502E0082500E00A25E9
:105530000026B0460EE005FB080005FB06F101273A
:105540001FFA80F801EB1046B6F5803F00D3B9464C
:1055500014F8010B294600F0A5F80028EBDABBF19E
:10556000000F05D00FB1641E00E05446CBF8004098
:10557000B9F1000F06D0FFF73DFB02210160C81E04
:10558000BDE8F09F48EA0640FAE7007B00F08000A3
:10559000704770B516460C460546FFF737FD0368A1
:1055A00093F80101012806D0FF2C0FD8185D68B1CF
:1055B00001202C7070BDD3F807013246214603F25A
:1055C000071303442846BDE8704018474FF0FF30EA
:1055D00070BD7546FFF716FDAE4605006946534699
:1055E00020F00700854618B020B5FEF78DF8BDE81D
:1055F00020404FF000064FF000074FF000084FF03A
:10560000000B21F00701AC46ACE8C009ACE8C009CA
:10561000ACE8C009ACE8C0098D4670470048704747
:10562000F83A00202DE9F0411F46044603260168A0
:10563000072A01F4006004DB08B116A505E016A5F1
:1056400003E008B115A500E015A521F010002060C9
:10565000A069C01EA0610FB1401EA0612046FFF7E7
:1056600013F84FB1D4E9012138469047206A401C15
:105670002062C01C206206E0206AFAE7D4E901211A
:1056800015F8010B9047761EF8D22046FFF712F866
:10569000BDE8F0814E414E006E616E00494E4600FD
:1056A000696E66003A2800D2303820F02002412A84
:1056B00001D3A2F13700884201D34FF0FF30704789
:1056C0002DE9F047814616468AB0334878440DC824
:1056D0008DE80D0030487844801C03AC0DC884E888
:1056E0000D0041F69B300844372190FBF1F290FB0E
:1056F000F1F5A5F1800501FB12041B3C02D56442C3
:10570000012000E00020DFF890A080460027FA4446
:10571000AAF1BE0A0DE0E00709D03246684607EB61
:1057200047010AEB810100F004FB8DE807006410DB
:105730007F1C002CEFD1184F7F44AC3F18E0E807E6
:1057400014D007EB04100DF1180A90E80E008AE857
:105750000E00C068F04201D198190890324606A99F
:1057600003A800F0E6FA03AB83E807006D10641CA1
:10577000002DE4D132466946B8F1000F03A802D0EB
:1057800000F0C3FA01E000F0D4FAC9E90001C9F859
:1057900008200AB0BDE8F0870C2800000446AFF3EB
:1057A00000802046FAF761FD4FF0013C50F8042BD1
:1057B00051F8043B9A4221D1A2EB0C03934313EA24
:1057C000CC1317D150F8042B51F8043B9A4215D151
:1057D000A2EB0C03934313EACC130BD150F8042B28
:1057E00051F8043B9A4209D1A2EB0C03934313EA0C
:1057F000CC13DBD04FF00000704700BFD01A01BAC5
:10580000B1FA81F101F0180122FA01F0CB40C1F1A7
:105810002001DBB2C0B2C01A2CFA01F3D11A9143B5
:1058200011EAC311E6D170475FEA400C08BF91F05E
:10583000000F4FEA8C234FEAC12243EA51514FEA4D
:105840001C5018BF00F5F0404FEA300018BF41F07F
:1058500000415FEA6C5C00F02980BCF1FF3F08BFAB
:1058600040F080407047130C06BF12044FF0100C3C
:105870004FF0000C130E04BF12020CF1080C130FB2
:1058800004BF12010CF1040C930F04BF92000CF141
:10589000020CD30F04BF52000CF1010C11464FF063
:1058A0000002A0F11F00A0EB0C00704711F0004FA8
:1058B00008BF704731F000413FF4D5AF0B0C06BF75
:1058C00009044FF0100C4FF0000C0B0E04BF09023E
:1058D0000CF1080C0B0F04BF09010CF1040C8B0F29
:1058E00004BF89000CF1020CCB0F04BF49000CF17E
:1058F000010CCCF12003A0EB0C0022FA03F302FA16
:105900000CF241EA030100F10100704720F07F4CE6
:1059100080EA030023F07F47ACEB070303F57C53D9
:1059200000F0004003F1FF032DE980494FEA154BD9
:1059300009B44FEA144325EA0B4E24EA03480FF258
:10594000042606EB132749083E785FEA320203FB80
:105950000667C7F5000707FB06F64FEA54374FEA1C
:10596000D64606F1020607FB066CCCF1005C4FEA56
:105970001C472CEA074C07FB06F40CFB06F504EB6E
:1059800015464FEA961634BF00204FF000404FEA0C
:10599000D13706FB07FC4FEA1C4C0CFB0BF7D21B64
:1059A00003FB0CF761EB07010CFB0EF7B0EB0740B4
:1059B00072EB17420CFB08F734BFA2EB0742B2EBC5
:1059C000074261EB17414FEA0C444FEA910706FB8F
:1059D00007FC4FEA1C4C0CFB0BF7B0EBC74072EB1B
:1059E000573203FB0CF734BFA2EBC742B2EBC742FE
:1059F00061EB57310CFB0EF7B0EBC70072EB57723F
:105A00000CFB08F734BFA2EBC702B2EBC70261EB95
:105A10005771039F4FEA816141EA921104EBCC0474
:105A20004FEAD1374FEA826206FB07FC42EA901246
:105A30004FEA80604FEA1C4C0CFB0BF7D21B03FBB8
:105A40000CF761EB07010CFB0EF7B0EB074072EBB4
:105A500017420CFB08F734BFA2EB0742B2EB074238
:105A600061EB17414FEA8C554FEA910704EB9C24F8
:105A700006FB07FC4FEA1C4C0CFB0BF7B0EBC740D6
:105A800072EB573203FB0CF734BFA2EBC742B2EB09
:105A9000C74261EB57310CFB0EF7B0EBC70072EB5E
:105AA00057720CFB08F734BFA2EBC702B2EBC70278
:105AB00061EB577115EB4C254FEA816141EA921178
:105AC0004FEA82624FEAD13742EA901206FB07FCA6
:105AD00044F100044FEA80604FEA1C4C0CFB0BF7CA
