:020000040800F2
:10000000F84000200D1D0008F1020008F30200086E
:10001000F7020008FB020008FF02000800000000D1
:1000200000000000000000000000000003030008C2
:10003000050300080000000007030008090300088A
:10004000271D0008271D0008271D0008271D000880
:10005000271D0008271D0008271D0008271D000870
:10006000271D0008271D0008271D0008271D000860
:10007000271D0008271D0008271D0008271D000850
:10008000271D0008271D0008271D0008271D000840
:10009000271D0008271D0008271D0008271D000830
:1000A000271D0008271D0008271D0008271D000820
:1000B000271D0008271D0008271D0008271D000810
:1000C000271D0008271D0008271D0008271D000800
:1000D000271D0008811B00089F1C0008271D000821
:1000E000271D0008271D0008271D0008271D0008E0
:1000F000271D0008271D0008271D0008271D0008D0
:10010000271D0008271D0008271D0008271D0008BF
:10011000271D0008271D0008271D0008271D0008AF
:10012000271D0008271D0008271D0008271D00089F
:1001300000F002F800F090F80AA090E8000C824469
:100140008344AAF10107DA4501D100F085F8AFF246
:10015000090EBAE80F0013F0010F18BFFB1A43F0A5
:10016000010318472C4500004C450000103A24BFFD
:1001700078C878C1FAD8520724BF30C830C144BF0C
:1001800004680C607047000000230024002500264E
:10019000103A28BF78C1FBD8520728BF30C148BFEA
:1001A0000B6070476E2903F05880702902F0478673
:1001B000662904F0FF81652904F0FC81672904F0B9
:1001C000F9816129AFF3008003681B0A28BF41F061
:1001D0008001692902F0B885642902F0B585752986
:1001E00002F0B2856F2903F05181782902F013865D
:1001F000E92903F0EB80E42903F0E880F52903F016
:10020000E580EF2903F04E81F82902F01286036899
:10021000DB0928BF41F08001632903F05A8073296C
:1002200003F05F80E32903F01984F32903F01E84AF
:10023000002070471FB503F0B5FC0400002000212A
:1002400004F08CF9401C60600020002104F09CF94F
:10025000E0601FBD10B510BD03F07FFC1146FFF735
:10026000E9FF00F009F803F05DFD03B4FFF7F2FFCA
:1002700003BC01F027FC000010B5002401F0B8FB1E
:100280004FF4A06001F062FD4FF4E13001F02CFC6E
:100290004FF4E13001F0B4FC00F0AEFA00F026F9C2
:1002A00000F003FD00F086F900F06CFE0AA20DA13B
:1002B000012001F05BFA0BE001F040F90B4802F07D
:1002C000ACFE002800DD04E04FF47A7001F0CDFBB5
:1002D000F2E700BF002010BD3132333435363738F5
:1002E0000000000054505F4C494E4B009D10002010
:1002F000704700BFFEE700BFFEE700BFFEE700BF9C
:10030000FEE7704770477047704700000CB500204B
:10031000019000906C48006840F480306A490860A1
:1003200000BF6948006800F4003000900198401C4C
:100330000190009818B90198B0F5A06FF1D162480A
:10034000006800F4003010B10120009001E00020AE
:1003500000900098012843D15C48006840F01000EC
:100360005A4908600846006820F003000860084603
:10037000006840F0020008605348406852494860F5
:100380000846406848600846406840F4806048601D
:100390000846406820F47C1048600846406840F4F5
:1003A000E81048600846006840F08070086000BFB0
:1003B0004548006800F000700028F9D042484068C5
:1003C00020F00300404948600846406840F00200C1
:1003D000486000BF3C48406800F00C000828F9D194
:1003E0000CBD10B5FFF792FF10BD10B53648006880
:1003F00040F001003449086008464068344908402C
:100400003149486008460068324908402E49086072
:100410000846006820F4802008600846406820F400
:10042000FE0048604FF41F008860FFF7DAFF4FF0CE
:1004300000602949086010BD10B50021002000228D
:10044000214B5B6803F00C0121B1042906D0082977
:1004500028D107E0214B224C236027E01F4B204C82
:10046000236023E0184B5B6803F47010164B5B6845
:1004700003F48032022303EB904022B9194B43432B
:10048000174C23600DE0104B5B6803F4003323B17D
:10049000144B4343124C236003E0104B4343104C76
:1004A000236003E00D4B0E4C236000BF00BF064BE2
:1004B0005B68C3F303130C4CE15C094B1B68CB4036
:1004C000074C236010BD00000010024000200240D5
:1004D0000000FFF8FFFFF6FE08ED00E000127A00D2
:1004E0000000002000093D000400002008B50121A3
:1004F000142001F0B5FF4FF48070ADF8000010201B
:100500008DF8030003208DF802006946254801F0AC
:10051000EBFC4FF48071234801F093FD8020ADF88F
:10052000000010208DF8030003208DF802006946BA
:100530001D4801F0D9FC80211B4801F082FD4020BC
:10054000ADF8000010208DF8030003208DF80200A4
:100550006946154801F0C8FC4021134801F071FDBF
:1005600008BD002803DD0021104A116002E00121CE
:100570000E4A11607047002803DD00210C4A11600B
:1005800002E001210A4A11607047002804DD0021C1
:10059000074A121F116003E00121054A121F116072
:1005A000704700000008014000100140A0012142F6
:1005B0009C01224208B501211C2001F051FF0120BD
:1005C000ADF8000048208DF803006946344801F07A
:1005D0008BFC2020ADF8000048208DF80300694610
:1005E000304801F081FC0120ADF8000028208DF892
:1005F000030069462C4801F077FC08BD10B50121C5
:10060000294801F004FD01280AD00121244801F005
:10061000FEFC28B12021234801F0F9FC00283CD140
:10062000322001F022FA01211F4801F0F0FC0128DC
:100630000DD102E00A2001F018FA01211A4801F058
:10064000E6FC0128F6D000F0BEFC012010BD01211F
:10065000134801F0DCFC68B902E00A2001F005FA59
:1006600001210F4801F0D3FC0028F6D000F0ABFCCC
:100670000220EBE720210B4801F0C9FC68B902E039
:100680000A2001F0F2F92021064801F0C0FC002800
:10069000F6D000F098FC0320D8E70020D6E7000051
:1006A000000C0140001001400008014070B50546F3
:1006B000002405E0601CC4B2C82C01DD002070BD20
:1006C0000221394802F083FA0028F3D0294636483F
:1006D00002F02AFA002405E0601CC4B2C82C01DD37
:1006E0000020ECE70121304802F071FA0028F3D035
:1006F0002D4802F01BFAC0B2E1E700B587B0012136
:10070000042001F0ADFE0121080301F0A9FEE02064
:10071000ADF8180018208DF81B0003208DF81A0082
:1007200006A9224801F0E0FBE021204801F089FC05
:100730000020ADF804004FF48270ADF806000020F0
:10074000ADF808000220ADF80A000120ADF80C0059
:100750004002ADF80E003820ADF810000020ADF8D2
:1007600012000720ADF8140001A90F4802F006F9A5
:1007700001210D4802F0A7F9FF20FFF797FF07B00E
:1007800000BD10B50446084800884FF6C771084000
:100790000549088008460088204308800121024856
:1007A00002F091F910BD0000003001400008014046
:1007B00010B500240020CF4908609020FFF776FF95
:1007C0000020FFF773FF0020FFF770FF0020FFF706
:1007D0006DFFFF20FFF76AFF44EA0024FF20FFF7C8
:1007E00065FF04430120C449C1F890012146C3A01C
:1007F00002F038FA204610BD08B50121042001F0AE
:100800002FFE1020ADF800008DF8030003208DF8B6
:1008100002006946BD4801F067FB1021BB4801F0AA
:1008200010FC0120B3490860FFF767FF0020FFF7C5
:10083000A8FFFFF7BDFFB649088008BD10B500242A
:100840000020AC4908600520FFF730FFFF20FFF7CC
:100850002DFF04460120A849C1F89001204610BD93
:1008600010B504460020A34908600120FFF71EFFD1
:100870002046FFF71BFF01209F49C1F8900110BDE2
:1008800010B500209B4908600620FFF70FFF0120EC
:100890009949C1F8900110BD10B500209549086034
:1008A0000420FFF703FF01209349C1F8900110BD18
:1008B0002DE9F04106460C46174600208D49086098
:1008C0000320FFF7F3FEC4F30740FFF7EFFEC4F386
:1008D0000720FFF7EBFEE0B2FFF7E8FE002505E09A
:1008E000FF20FFF7E3FE7055681C85B2BD42F7DBC1
:1008F000012080490860BDE8F08110B500BFFFF716
:100900009DFF00F001000028F9D110BD2DE9F04154
:1009100006460C461746FFF7B3FF002075490860EE
:100920000220FFF7C3FEC4F30740FFF7BFFEC4F386
:100930000720FFF7BBFEE0B2FFF7B8FE002504E09A
:10094000705DFFF7B3FE681C85B2BD42F8DB012085
:1009500068490860FFF7D1FFBDE8F0812DE9F0415B
:1009600007460E461446F0B2C0F58075AC4200DC76
:10097000254612E02A4631463846FFF7C7FFAC420B
:1009800000D10BE02F442E44601B84B2B4F5807F6D
:1009900002DD4FF4807500E02546EBE700BFBDE8BF
:1009A000F08110B504462403FFF76AFFFFF7A5FFA7
:1009B0000020504908602020FFF778FEC4F307406C
:1009C000FFF774FEC4F30720FFF770FEE0B2FFF7F5
:1009D0006DFE01204849C1F89001FFF78EFF10BD60
:1009E0002DE9F05F81460F461646DFF828B14FEA41
:1009F0001738C7F30B0ACAF58054A64200D8B4B220
:100A000043E04FEA08314FF480525846FFF750FF59
:100A1000002508E00AEB05001BF80000FF2800D0C5
:100A200003E0681C85B2A542F4DB00BFA54216DADC
:100A30004046FFF7B6FF002507E019F8050005EB73
:100A40000A010BF80100681C85B2A542F5DB4FEAEC
:100A500008314FF480525846FFF780FF04E02246E9
:100A600039464846FFF77AFFA64200D10EE008F16A
:100A700001084FF0000AA1442744361BB6F5805FF9
:100A800002D94FF4805400E0B4B2BAE700BFBDE829
:100A9000F09F10B5FFF7F4FEFFF72FFF0020154978
:100AA0000860C720FFF702FE01201349C1F890013A
:100AB000FFF723FF10BD10B500200E490860B920D4
:100AC000FFF7F4FD01200C49C1F89001032000F06C
:100AD000A8FF10BD10B5002006490860AB20FFF745
:100AE000E5FD01200449C1F89001032000F099FFC1
:100AF00010BD0000900121420000214249443D30D8
:100B000078253034782E0D0A0000000000080140DE
:100B1000140000203C00002008B50121182001F03D
:100B20009FFC4FF48070ADF8000003208DF80200A8
:100B300010208DF803006946F94801F0D5F942F21A
:100B40000310ADF8000003208DF8020010208DF88E
:100B500003006946F34801F0C7F908BD00210821E8
:100B600013E000F0800222B14FF40052ED4B1A6105
:100B700003E04FF40052EB4B5A610122E94B5A61FA
:100B80001A614206100E4A1ED1B20029E9DC7047F4
:100B900010B504464FF48070E149143108602046D6
:100BA000FFF7DCFF10BD10B504464FF48070DC4940
:100BB000103108602046FFF7D1FF10BD10B5044684
:100BC0004FF48070D649103108602012FFF7C6FF3D
:100BD000E0B2FFF7C3FF10BD30B505460C4628460E
:100BE000FFF7D6FF2046FFF7DEFF30BD10B502202D
:100BF000CC494861642000F038FF0220C9490861EF
:100C0000322000F032FF10BD7047F0B504460D46AB
:100C100016461F462A20FFF7BBFF0020FFF7C3FF41
:100C2000A11CC8B2FFF7BFFF0020FFF7BCFFB11C3B
:100C3000C8B2FFF7B8FF2B20FFF7AAFF0020FFF78D
:100C4000B2FFE91CC8B2FFF7AEFF0020FFF7ABFF11
:100C5000F91CC8B2FFF7A7FF2C20FFF799FFF0BDE2
:100C600070B506467F231A4600210846FFF7CDFFE0
:100C70002C20FFF78DFF002408E0002503E030461C
:100C8000FFF79CFF6D1C802DF9D3641C802CF4D3DE
:100C900070BD002804DD4FF48071A24A116103E0A9
:100CA0004FF480719F4A5161704710B5FFF734FFD0
:100CB000FFF79CFF0120FFF7ECFF1120FFF768FF13
:100CC000782000F0D2FEB120FFF762FF0120FFF78D
:100CD0006AFF2C20FFF767FF2D20FFF764FFB2208B
:100CE000FFF756FF0120FFF75EFF2C20FFF75BFFA9
:100CF0002D20FFF758FFB320FFF74AFF0120FFF731
:100D000052FF2C20FFF74FFF2D20FFF74CFF012053
:100D1000FFF749FF2C20FFF746FF2D20FFF743FF89
:100D2000B420FFF735FF0720FFF73DFFC020FFF796
:100D30002FFFA220FFF737FF0220FFF734FF8420A8
:100D4000FFF731FFC120FFF723FFC520FFF72BFF7F
:100D5000C220FFF71DFF0A20FFF725FF0020FFF745
:100D600022FFC320FFF714FF8A20FFF71CFF2A2071
:100D7000FFF719FFC420FFF70BFF8A20FFF713FFCF
:100D8000EE20FFF710FFC520FFF702FF0E20FFF750
:100D90000AFF3620FFF7FCFEC820FFF704FFE02023
:100DA000FFF7F6FE0F20FFF7FEFE1A20FFF7FBFE0F
:100DB0000F20FFF7F8FE1820FFF7F5FE2F20FFF7B2
:100DC000F2FE2820FFF7EFFE2020FFF7ECFE2220A6
:100DD000FFF7E9FE1F20FFF7E6FE1B20FFF7E3FE0B
:100DE0002320FFF7E0FE3720FFF7DDFE0020FFF7AE
:100DF000DAFE0720FFF7D7FE0220FFF7D4FE10200F
:100E0000FFF7D1FEE120FFF7C3FE0F20FFF7CBFE77
:100E10001B20FFF7C8FE0F20FFF7C5FE1720FFF7C6
:100E2000C2FE3320FFF7BFFE2C20FFF7BCFE2920B7
:100E3000FFF7B9FE2E20FFF7B6FE3020FFF7B3FE16
:100E40003020FFF7B0FE3920FFF7ADFE3F20FFF75F
:100E5000AAFE0020FFF7A7FE0720FFF7A4FE03204D
:100E6000FFF7A1FE1020FFF79EFE2A20FFF790FE5D
:100E70000020FFF798FE0020FFF795FE0020FFF707
:100E800092FE7F20FFF78FFE2B20FFF781FE0020D0
:100E9000FFF789FE0020FFF786FE0020FFF783FEA4
:100EA0009F20FFF780FEF020FFF772FE0120FFF782
:100EB0007AFEF620FFF76CFE0020FFF774FE3A2062
:100EC000FFF766FE0520FFF76EFE2920FFF760FEA4
:100ED0004FF6FF70FFF7C4FEFFF796FE10BD30B56A
:100EE00004460D462B46224629462046FFF78DFE36
:100EF00030BD70B504460D461646802C00DB70BD33
:100F0000802D00DBFBE7681C83B2601C82B229469F
:100F10002046FFF77AFE3046FFF750FE00BFEEE7AF
:100F2000000C01400010014060B505460E463146F8
:100F30002846FFF7D4FFE0B2FFF735FE204660BD3C
:100F40002DE9F04704460D4616461F46DDF820A061
:100F50003B46324629462046FFF757FE2C20FFF736
:100F600017FEA0460AE0A94604E05046FFF726FE19
:100F700009F10109B945F8D308F10108B045F2D3E8
:100F8000BDE8F08708B50121082001F069FA0220C8
:100F9000ADF8000010208DF8030003208DF802004A
:100FA00069460E4800F0A0FF02210C4801F049F804
:100FB00008BD002803DD0021094A116002E001217B
:100FC000074A1160704710B50120FFF7F2FF642057
:100FD00000F04BFD0020FFF7ECFF10BD000C0140BE
:100FE000848121420FB410B5ADF5027D00244FF489
:100FF000007102A802F097F885A8019002A8019A52
:10100000849901F01DFE0020019002A802F005F86D
:101010000446214602A800F0CDFD0DF5027D10BC6E
:101020005DF814FB10B50446204600F01EFD10BD0F
:1010300010B500BF0021FB48A0F83A1790F8380718
:10104000401CC1B2F74880F8381790F838071428C8
:1010500003DB0021F34880F83817F24890F838474E
:1010600004EB4401C1EBC412A0F5005101EB820076
:101070004FF4FA7102F035F80021EB4820F8141013
:1010800010BD70B50446E74890F83857E64830F888
:101090001560B6F5FA7F02DBFFF7CAFF25E005EB26
:1010A0004500C0EBC511E14800EB81008455DD48E7
:1010B000B0F83A07401C81B2DA48A0F83A17DA488B
:1010C00030F81500401C81B2D74820F8151026B919
:1010D0003E2C02D1FFF7ACFF07E0D54800780D2881
:1010E00003D10A2C01D1FFF7A3FFD148047070BDD2
:1010F00070B506464FF4FA71304601F0F2FFC94868
:1011000090F8391790F83807814235D1C54890F8E2
:101110003907C8490978884215D1C348C5490978B3
:1011200030F8110000280EDDBF48C249097830F8B8
:101130001100C1490988884205D1C0480078401C87
:10114000BE4908700DE0B74890F83907B9490870F2
:10115000B548097830F81100B74908800020B74930
:101160000870B6480078032804DDFFF761FFB4A0DB
:10117000FFF738FF002070BD00BFAA4890F839473C
:10118000A94830F8145004EB4400C0EBC412A7483F
:1011900000EB82012A46304601F05EFF04EB44007A
:1011A000C0EBC412A14800EB82039E4890F83917A7
:1011B0002A46AAA0FFF716FF04EB4401C1EBC412B4
:1011C0009A4901EB82004FF4FA7101F08AFF002185
:1011D000954820F81410934890F83907401CC1B284
:1011E000904880F8391790F83907142803DB00215C
:1011F0008C4880F8391700208E4908708E49088085
:101200008E4908702846B6E70FB410B5ADF5027DDB
:1012100000244FF4007102A801F085FF85A8019019
:1012200002A8019A849901F00BFD0020019002A808
:1012300001F0F3FE0446214602A800F04DFD0DF535
:10124000027D10BC5DF814FB70B50446002504B99E
:1012500070BD204601F0E1FE85B22946204600F02F
:101260003BFD214681A0FFF7BDFE00BFF0E710B5B2
:1012700002460C46002100230AB9002010BD084692
:10128000FCE72DE9F04105460E460027B84615B9A2
:101290000020BDE8F0812846FFF7D6FF0EB90020F8
:1012A000F7E70027B8462AE03220FFF7BBFE724876
:1012B000FFF71EFF0446B4B170A16F4801F09BFE1A
:1012C00008B101270FE06EA16B4801F094FE20B930
:1012D0006DA1694801F08FFE08B1032703E02146A4
:1012E0006548FFF7C4FF08F1010000F0FF08002F78
:1012F00000DD05E0B8F1640F01DD022700E0D3E76F
:1013000000BF294662A0FFF76DFE3846C1E710B561
:101310008CB004463021684601F005FF22465FA1EB
:10132000684601F0ABFC01216846FFF7AAFF0128DF
:1013300004D15E48047001200CB010BD0020FBE712
:1013400070B5B4B005460E461446C82102A801F097
:10135000EAFE56480078012803D054480078032854
:1013600016D13CB133462A4651A102A8009401F09F
:1013700085FC05E033462A4655A102A801F07EFC13
:10138000012102A8FFF77DFF012801D134B070BD13
:101390000020FBE7F0B5B5B004460D4616461F46E3
:1013A000C82103A801F0BFFE40480078022803D0FE
:1013B0003E48007803280FD12B4622464BA103A8B4
:1013C000CDE9006701F05AFC012103A8FFF759FF9E
:1013D000012801D135B0F0BD0020FBE710B5B2B057
:1013E0000446C821684601F09EFE224648A1684690
:1013F00001F044FC01216846FFF743FF32B010BD05
:1014000010B5B2B00446C821684601F08CFE2246F1
:1014100044A1684601F032FC01216846FFF731FF24
:1014200032B010BD643100207438002064110020F7
:101430001600002017000020180000201A000020CD
:101440002A2A2A2A2A2A2A6368616E67654C696EED
:10145000652A2A2A2A2A2A2A0D0A00005B25645DA9
:101460002C5B25645D2C25730000000041543E3E3A
:101470003E3A25730D0A0000A23800204F4B0000B1
:101480004552524F520000004641494C00000000B6
:10149000454E442041543A257300000041542B43EB
:1014A000574D4F44453D25640D0A00003C10002077
:1014B00041542B43574A41505F4445463D222573D2
:1014C000222C222573222C222573220D0A000000D3
:1014D00041542B43574A41505F4445463D222573B2
:1014E000222C222573220D0A0000000041542B43B8
:1014F000575341505F4445463D222573222C2225F7
:1015000073222C25642C25642C340D0A0000000065
:1015100041542B43495041505F4445463D22257379
:10152000220D0A0041542B4349505354415F444516
:10153000463D222573220D0A000000002DE9F041EE
:101540008CB0002464253021684601F0ECFD0027B2
:10155000A046F7A1684601F091FB00216846FFF71D
:1015600090FE4FF47A7597E00A20FFF75BFDF34891
:10157000FFF7BEFD0746002F75DDF1A1EF4801F032
:101580003AFD04469CB10026E41D1421EE4801F00A
:10159000A8FD05E02178EC488155641C701CC6B29A
:1015A000142E03DA14B120782228F3D174E0E7A1D5
:1015B000E24801F020FD0446ACB1002608341E21AB
:1015C000E148143001F08DFD06E02178DE4814304A
:1015D0008155641C701CC6B21E2E03DA14B120782B
:1015E0002228F2D158E0DBA1D44801F004FD0446E2
:1015F000ACB10026A41D1421D348953001F071FD33
:1016000006E02178D04895308155641C701CC6B224
:10161000142E03DA14B120782228F2D13CE0CFA1B5
:10162000C64801F0E8FC0446ACB10026E41D1E21CA
:10163000C548A93001F055FD06E02178C248A9301F
:101640008155641C701CC6B21E2E03DA14B12078BA
:101650002228F2D120E0AFF2DC11B84801F0CBFC37
:1016600010B14FF0010812E0AFF2EC11B34801F0F5
:10167000C2FC28B9AFF2F011B04801F0BCFC10B1C7
:101680004FF0030803E03946AC48FFF7F0FDB8F12E
:10169000000F00DD05E000BF681E80B2051E3FF7A9
:1016A00063AF00BF2946AFA0FFF79CFC1DB9022025
:1016B0000CB0BDE8F0814046FAE730B5B3B004465F
:1016C0000D46C82101A801F02EFD2B462246A9A1F6
:1016D00001A801F0D3FA012101A8FFF7D2FD33B030
:1016E00030BD2DE9F041054600240026964814300F
:1016F00001F093FC074600BF0AE093481430005DF8
:101700003A2804D090481430005DA855761C641C1B
:10171000BC42F2DBBDE8F08108B50121102000F0E9
:101720009FFE0420ADF8000010208DF80300032078
:101730008DF802006946954800F0D6FB04219348D5
:1017400000F07FFC4FF4FA70FFF76CFC04218F4827
:1017500000F079FC4FF4FA70FFF764FC04218B4829
:1017600000F06FFC8AA0FFF73DFC08BD2DE9F041B9
:1017700004460D4616460027012C0FD172496139E7
:1017800008702A4687A17048603801F077FA32461F
:1017900084A16D48403801F071FA0FE002206A49D7
:1017A000613908702A467FA16748333001F066FA34
:1017B00032467CA16448533001F060FAFFF7ACFF79
:1017C000012179A0FFF75DFD5F48613800780228AC
:1017D00004D05D4861380078032813D15A49613933
:1017E0000878FFF794FD5848613890F8F53090F884
:1017F000F42000F1B4019430FFF7CCFD524895304D
:10180000FFF7ECFD504861380078012804D04E48BD
:101810006138007803280BD14B4961390878FFF70C
:1018200076FD002248494039A1F12000FFF788FDEC
:101830004549613908780121FFF73FFF01215CA08C
:10184000FFF71FFD0020BDE8F0812DE9F041B2B0A7
:1018500000246426C821684601F065FC00250027A5
:1018600039486138007801285ED1374A603A56A17C
:10187000684601F003FA00216846FFF702FD4FF4C5
:101880007A764CE00A20FFF7CDFB2C48FFF730FCBE
:101890000546002D3FDD50A1284801F0ACFB044671
:1018A000FCB14FF00008E41D00202749613981F8A0
:1018B00093004BA1204601F09EFB04464CB1A41CB2
:1018C0003CB1204601F08AFB40B21F49613981F8E2
:1018D00093001D48613890F9931042A0FFF782FBF6
:1018E0001DE0AFF26841154801F085FB08B1012702
:1018F00011E0AFF27441114801F07DFB28B9AFF25D
:1019000078410E4801F077FB08B1032703E0294630
:101910000A48FFF7ACFC002F00DD04E000BF701E9A
:1019200080B2061EAEDC00BF32B0BDE8F081000020
:1019300041542B43494653520D0A0000A23800205F
:1019400053544149500000009D1000205354414D14
:1019500041430000415049500000000041504D41BA
:10196000430000000D0A74727974696D653D256449
:101970002E0D0A0041542B4357444843505F4445C1
:10198000463D25642C25640D0A000000001001402E
:101990000D0A657370383236362072657365740DC2
:1019A0000A00000025730000415445300D0A000074
:1019B00041542B43574C41504F50543D312C323001
:1019C00034370D0A0000000041542B43574C41505E
:1019D0003D222573220D0A002B43574C41503A00FB
:1019E000222C0000727373693A25642E0D0A0000E0
:1019F00010B56FF0040000F0F8F92E4800682E4989
:101A0000B0FBF1F02D4908700846007800EB40016A
:101A1000C1EBC0104FF6FF7101EAC00028490880F1
:101A200010BD0146254A12784A434FF0E0235A611F
:101A300000229A611A46126942F001021A6100BF3F
:101A40004FF0E022106900F001021AB100F4803278
:101A5000002AF5D04FF0E022126922F001024FF087
:101A6000E0231A6100229A6170470146144A1288E5
:101A70004A434FF0E0235A6100229A611A461269E4
:101A800042F001021A6100BF4FF0E022106900F03D
:101A900001021AB100F48032002AF5D04FF0E022A2
:101AA000126922F001024FF0E0231A6100229A61CC
:101AB000704700000000002000127A001C00002087
:101AC0001E000020014600BF704700BF3F4A128839
:101AD00002F04002002AF9D0C2B23C4B1B1D1A8012
:101AE0007047014600BF704710B586B0044601211B
:101AF00044F2040000F0B4FC4FF40070ADF81400A0
:101B000003208DF8160018208DF8170005A930481D
:101B100000F0EAF94FF48060ADF8140004208DF86D
:101B2000170005A92A4800F0DFF925208DF80000EC
:101B300003208DF801008DF8020001208DF80300CC
:101B4000684600F008F901940020ADF80800ADF8EF
:101B50000A00ADF80C00ADF810000C20ADF80E0036
:101B600001A91A4800F023FD012240F2255117482F
:101B700000F0B5FD0121154800F0A5FD06B010BD2F
:101B800010B540F22551114800F08EFE18B10F48F3
:101B900000F00AFEC4B210BD10B5044621460B4841
:101BA00000F0FEFD00BF8021084800F067FE00281D
:101BB000F9D010BD70B505460E46002403E0285D3F
:101BC000FFF7EAFF641CB442F9D370BD003801404E
:101BD0000008014008B50121082000F041FC022066
:101BE000ADF8000010208DF8030003208DF80200EE
:101BF0006946414800F078F900204049086008BD76
:101C000010B586B004460121042000F029FC012112
:101C1000480400F032FC0420ADF8140003208DF8D5
:101C2000160018208DF8170005A9354800F05CF95A
:101C30000820ADF8140004208DF8170005A93048DD
:101C400000F052F926208DF8000003208DF80100E5
:101C50008DF8020001208DF80300684600F07BF843
:101C600001940020ADF80800ADF80A00ADF80C00B2
:101C7000ADF810000C20ADF80E0001A9214800F0CD
:101C800096FC012240F225511E4800F028FD01215A
:101C90001C4800F018FDFFF79DFF06B010BD10B501
:101CA00040F22551174800F0FFFD30B1154800F013
:101CB0007BFDC4B22046FFF7E4F910BD10B5044621
:101CC0002146104800F06CFD00BF80210D4800F057
:101CD000D5FD0028F9D010BD70B505460E4600248C
:101CE00003E0285DFFF7EAFF641CB442F9D370BD3E
:101CF0000549086070470000000C014084812142C2
:101D000000080140004400402400002009488047AA
:101D100009480047FEE7FEE7FEE7FEE7FEE7FEE7CD
:101D2000FEE7FEE7FEE7FEE704480549054A064BE5
:101D300070470000EB03000831010008F83A00206A
:101D4000F8400020F83C0020F83C002031490143D5
:101D5000314A1160704770B5002100230F22C4780A
:101D600004B32D4C246804F4E064C4F5E064210A53
:101D7000C1F10403CA40447804FA03F184781440A2
:101D800021430901254C0678A155047804F01F056C
:101D90000124AC4005786D11AD0005F1E025C5F8D2
:101DA000004109E0047804F01F050124AC401C4DFB
:101DB0000678761145F8264070BD1A4A0A4002435B
:101DC000154B1B1F1A60704739B1134A121D126858
:101DD0000243114B1B1D1A6006E00F4A121D1268C8
:101DE00082430D4B1B1D1A607047042808D14FF029
:101DF000E021096941F004014FF0E022116107E0A0
:101E00004FF0E021096921F004014FF0E022116157
:101E1000704700000000FA050CED00E000E400E06F
:101E200080E100E080FFFF1F10B50446CC488442EB
:101E300008D10121042000F02DFB0021042000F036
:101E400029FB46E0C748844208D10121082000F060
:101E500021FB0021082000F01DFB3AE0C24884422B
:101E600008D10121102000F015FB0021102000F006
:101E700011FB2EE0BD48844208D10121202000F052
:101E800009FB0021202000F005FB22E0B848844235
:101E900008D10121402000F0FDFA0021402000F08F
:101EA000F9FA16E0B348844208D10121802000F0FD
:101EB000F1FA0021802000F0EDFA0AE0AE488442F9
:101EC00007D10121801500F0E5FA0021A01500F0EE
:101ED000E1FA10BD10B50121084600F0DBFA00213F
:101EE000012000F0D7FA10BD2DE9F041024600258F
:101EF0000026002000230024002791F803C00CF0E6
:101F00000F0591F803C00CF0100CBCF1000F03D0CA
:101F100091F802C04CEA050591F800C0BCF1000F31
:101F200031D0146800202BE04FF0010C0CFA00F3C4
:101F3000B1F800C00CEA03069E4220D183004FF0A6
:101F40000F0C0CFA03F7BC4305FA03FC4CEA04043B
:101F500091F803C0BCF1280F06D14FF0010C0CFA28
:101F600000FCC2F814C00AE091F803C0BCF1480FAD
:101F700005D14FF0010C0CFA00FCC2F810C0401C57
:101F80000828D1D31460B1F800C0BCF1FF0F34DDD4
:101F9000546800202EE000F1080C4FF0010808FA08
:101FA0000CF3B1F800C00CEA03069E4221D1830075
:101FB0004FF00F0C0CFA03F7BC4305FA03FC4CEA94
:101FC000040491F803C0BCF1280F05D100F1080CFE
:101FD00008FA0CF8C2F8148091F803C0BCF1480F5D
:101FE00007D100F1080C4FF0010808FA0CF8C2F80C
:101FF0001080401C0828CED35460BDE8F0814FF615
:10200000FF710180022181700421C1707047024676
:10201000002093680B400BB1012000E000207047C6
:102020000146886880B2704702460020D3680B40A2
:102030000BB1012000E0002070470146C86880B263
:10204000704701617047416170470AB1016100E06A
:1020500041617047C16070474FF480320A4382612A
:102060008161826182698269704702460020434B28
:1020700018684FF68073184040EA021008433F4B3F
:10208000186070473E49C8617047F0B50A460023A2
:1020900000240021002500F00046B6F1004F02D1D7
:1020A000364EF16901E0354E7168C0F3034583B2E5
:1020B00000F44016B6F5401F08D121F070612F4E94
:1020C000766826F070662D4F7E6012E000F4801670
:1020D000B6F5801F06D1032606FA05F4A14341F0A8
:1020E000706106E0460D360103FA06F6B14341F091
:1020F000706122B1460D360103FA06F6314300F055
:102100000046B6F1004F02D11C4EF16101E01B4EBA
:102110007160F0BD30B500228B071C0F0F2303FA4E
:1021200004F2164B08338C1053F824309343134CAD
:1021300008348D1044F8253023468C1053F8243091
:102140008C07240F00FA04F423430C4C08348D1040
:1021500044F8253030BD0A49DC3108607047000082
:1021600000080140000C0140001001400014014033
:1021700000180140001C0140002001400000014007
:1021800000002042DF48006840F00100DD4908609F
:1021900008464068DC490840DA494860084600685B
:1021A000DA490840D74908600846006820F48020D2
:1021B00008600846406820F4FE0048604FF41F00A5
:1021C00088607047CF49096821F48031CD4A116099
:1021D0001146096821F480211160B0F5803F03D0D9
:1021E000B0F5802F0ED106E0C649096841F4803170
:1021F000C44A116007E0C349096841F4A021C14AFB
:10220000116000E000BF00BF704710B5014600221A
:10221000002300204A11012A02D1BA4C236806E0AB
:10222000022A02D1B74C236A01E0B64C636A01F07E
:102230001F02012494401C400CB1012000E000204A
:1022400010BD38B5002000900024002500BF3120CB
:10225000FFF7DBFF05460098401C00900098B0F5A2
:10226000A06F01D0002DF2D03120FFF7CEFF08B1D2
:10227000012400E00024204638BD01460020A14A88
:10228000106820F0F80040EAC10010607047A049D3
:1022900008607047024600209A4B586820F47C1072
:1022A00042EA01031843974B586070479849086603
:1022B000704701460020934A506820F0030008430D
:1022C000506070478F48406800F00C00704701462E
:1022D00000208C4A506820F0F0000843506070479E
:1022E00001460020874A506820F4E06008435060AF
:1022F000704701460020834A506820F4605040EA4D
:10230000C1005060704729B17E4A527A02437D4B2A
:102310005A7204E07B4A527A82437A4B5A7270476F
:102320007B49D8310860704701460020754A5068E3
:1023300020F440400843506070470021714A203229
:102340001170704A82F82010012802D004280AD1A6
:1023500004E001216B4A2032117005E00521694A31
:102360002032117000E000BF00BF7047694908606B
:1023700070476449096A0143624A116270476549BE
:1023800044390860704730B5002100220024002342
:102390005C4D6D6805F00C0121B1042905D00829B8
:1023A00023D105E05C4D056022E05B4D05601FE038
:1023B000544D6D6805F47012524D6D6805F480340B
:1023C000022505EB92421CB9544D554305600BE0C4
:1023D0004C4D6D6805F400351DB1504D55430560F9
:1023E00002E04D4D5543056002E04B4D056000BFD6
:1023F00000BF444D6D6805F0F0010909484D6B5C64
:102400000568DD4045603F4D6D6805F4E061090AEF
:10241000434D6B5C4568DD4085603A4D6D6805F461
:102420006051C90A3E4D6B5C4568DD40C560354D65
:102430006D6805F44041890B3A4D6B5CC568B5FB8E
:10244000F3F5056130BD29B12E4A526902432D4B87
:102450005A6104E02B4A526982432A4B5A61704701
:1024600029B1284A92690243264B9A6104E0254A21
:1024700092698243234B9A61704729B1214AD269FC
:102480000243204BDA6104E01E4AD26982431D4BAD
:10249000DA61704729B11B4AD2680243194BDA60EE
:1024A00004E0184AD2688243164BDA60704729B1BB
:1024B000144A12690243134B1A6104E0114A12696B
:1024C0008243104B1A6170471249403908607047C7
:1024D0000F49C86470470B49C87170470948406A82
:1024E00040F0807007494862704701460020054A65
:1024F00092680A400AB1012000E0002070470149BB
:1025000088727047001002400000FFF8FFFFF6FEDF
:10251000000042428004424200127A0000093D005D
:10252000280000203800002010B50446FB488442F3
:1025300009D101218803FFF7ADFF00214FF480404E
:10254000FFF7A8FF32E0F648844209D10121480490
:10255000FFF7ADFF00214FF40030FFF7A8FF25E0A3
:10256000F048844209D101218804FFF7A0FF00212F
:102570004FF48020FFF79BFF18E0EB48844209D11D
:102580000121C804FFF793FF00214FF40020FFF75B
:102590008EFF0BE0E548844208D101210805FFF7D2
:1025A00086FF00214FF48010FFF781FF10BD2DE959
:1025B000F04786B005460E460024A24600BFA1465D
:1025C0000027B08900B100BF2F462C8A4CF6FF705F
:1025D0000440F08804432C82AC894EF6F31004408A
:1025E000B08831890843718908430443AC81AC8ABF
:1025F0004FF6FF400440B0890443AC8201A8FFF7C6
:10260000C2FEC648874202D1DDF810A001E0DDF825
:102610000CA0A88900F4004040B10AEBCA0000EB0E
:102620000A1031684900B0FBF1F807E00AEBCA0074
:1026300000EB0A1031688900B0FBF1F86420B8FBA8
:10264000F0F004012009642101FB1089A88900F43D
:10265000004040B1322000EBC900B0FBF1F000F0C7
:102660000700044308E0322000EB09106421B0FBAE
:10267000F1F000F00F0004432C8106B0BDE8F087B4
:102680004FF41651016000218180C18001810C212D
:10269000418100218181704710B502460020108AD7
:1026A0004FF2FF0318400B884C8823438C88234348
:1026B000CC8823431843108210BD00210180418043
:1026C0008180C180704721B1828942F400528281A9
:1026D00004E082894DF6FF731A4082817047F0B59D
:1026E0000346002400260025002040F66A17B94260
:1026F00000D100BF1846C1F3421401F01F060127A4
:1027000007FA06F5012C01D10C3004E0022C01D1AE
:10271000103000E014301AB107682F43076002E060
:102720000768AF430760F0BD1AB1838A0B43838209
:1027300002E0838A8B4383827047028A4FF6F073EC
:102740001A400282028A0A430282704782894FF24B
:10275000FF731A40828182890A438281704721B1C6
:10276000828942F00202828104E082894FF6FD7381
:102770001A4082817047028A4FF6DF731A40028244
:10278000028A0A430282704721B1028A42F48042DF
:10279000028204E0028A4BF6FF731A4002827047FD
:1027A000C1F308028280704701468888C0F30800A0
:1027B0007047818941F0010181817047028BD2B25B
:1027C0000283028B42EA012202837047028B02F4E9
:1027D0007F420283028B0A430283704721B1828ABF
:1027E00042F02002828204E0828A4FF6DF731A40B0
:1027F0008282704721B1828A42F01002828204E014
:10280000828A4FF6EF731A408282704721B1828A22
:1028100042F00802828204E0828A4FF6F7731A407F
:102820008282704721B1828942F40042828103E0B2
:102830008289C2F30E028281704721B1828A42F4FA
:102840000062828204E0828A4FF2FF731A40828221
:102850007047828A4FF6FB731A408282828A0A434B
:102860008282704721B1828A42F00202828204E0B1
:10287000828A4FF6FD731A4082827047024600201A
:10288000B1F5007F00D100BF13880B400BB10120D0
:1028900000E00020704701F40072B2F5007F00D123
:1028A00000BFCA430280704770B50246002400236F
:1028B0000025002040F66A16B14200D100BFC1F3E6
:1028C000421501F01F03012606FA03F3012D02D180
:1028D0009689334006E0022D02D1168A334001E08A
:1028E000968A33400C12012606FA04F41688344006
:1028F00013B10CB1012000E0002070BD10B5002222
:10290000002340F66A14A14200D100BF0A1201243C
:102910009440A3B2DC43048010BD000000380140A5
:102920000044004000480040004C0040005000407F
:1029300010B50446BE48844208D101218014FFF737
:10294000A9FD0021A014FFF7A5FD16E0B9488442B7
:1029500008D101210014FFF7AAFD00212014FFF780
:10296000A6FD0AE0B448844207D10121C013FFF755
:102970009EFD0021E013FFF79AFD10BD10B5002267
:10298000028802F441520B884C8823438C882343ED
:10299000CC8823430C8923434C8923438C892343CC
:1029A000CC8923431A430280838B4FF2FF74234068
:1029B00083830B8A038210BD2DE9F04F85B0054655
:1029C0000C464FF0000902274FF000084FF0010BB2
:1029D0000026B246A88B4FF240010840A88302208F
:1029E0002884B5F81C90A068022801D100BF38E007
:1029F000A08810B94FF0010B01E04FF0020B8D4899
:102A0000854200D100E000BF6846FFF7BCFCDDF85E
:102A100000A0E088B0F5007F0AD14FEA1A2000EB51
:102A200080004000A168B0FBF1F0401D86B20BE0D1
:102A30004FEA4B10BAFBF0F000EB80004000A168B9
:102A4000B0FBF1F0401D86B20A20B6FBF0F606F0AE
:102A50000108A6EB0800C0F34F074FF6FF7000EA2D
:102A60000828022F01DBFF2F02DD02274FF00008AC
:102A7000E08840EA080038432884A088A1890843F8
:102A8000618808432188084340F4006040EA09094E
:102A9000A5F81C9005B0BDE8F08F002101804180B1
:102AA0008180C180018141818181C18107210182B1
:102AB00070470021018041808180C18002218160B6
:102AC00000218181704721B1028842F040020280DA
:102AD00004E002884FF6BF731A400280704721B1AC
:102AE000828B42F48062828304E0828B4FF6FF3354
:102AF0001A408283704730B5002400230C11012551
:102B0000A540ABB21AB185881D43858002E0858857
:102B10009D43858030BD1AB183880B43838002E0DA
:102B200083888B4383807047818170470146888901
:102B300070474FF6FF62914204D0028842F48072DF
:102B4000028004E002884FF6FF631A40028070475B
:102B500021B1828842F00402828004E082884FF62C
:102B6000FB731A408280704702884FF2FF731A404D
:102B7000028002880A4302807047018841F4805134
:102B80000180704721B1028842F40052028004E0C3
:102B900002884DF6FF731A400280704702460020FB
:102BA000012901D0108B00E0908A70470146088A05
:102BB0007047B1F5804F04D1028842F48042028010
:102BC00004E002884BF6FF731A4002807047024609
:102BD000002013890B400BB1012000E0002070475A
:102BE000CA4302817047F0B502460020002400234A
:102BF000002501F00F070126BE40B4B20B110126DB
:102C00009E40B3B2968806EA03051689264016B19F
:102C10000DB1012000E00020F0BD10B5002201F050
:102C20000F040123A3409AB2D343038110BD0000D7
:102C30000030014000380040003C00407047000078
:102C40001CB50C46064B7B4469460090204600F0BC
:102C50001EFB04460020694600F02CFB20461CBDEC
:102C60006B0600000FB4044910B503AA029800F0E7
:102C70003DFB10BC5DF814FB200000200FB41CB518
:102C8000084B06AA7B4469460090059800F0FFFABD
:102C900004460020694600F00DFB20461CBC5DF890
:102CA00014FB00002D06000070B50446856900681D
:102CB000C10601D5302600E02026C00707D070BD30
:102CC000D4E9012130469047206A401C20626D1EE5
:102CD000F6D570BD70B5044685690078C00707D188
:102CE00070BDD4E9012120209047206A401C206259
:102CF0006D1EF6D570BD70B50C460546012A05D08F
:102D00002878800600D5EA69002302E0012305E067
:102D10005B1C934202D2E05C0028F9D1A869E61856
:102D2000C01AA861286A184428622846FFF7BCFF29
:102D300004E0D5E9012114F8010B9047B442F8D31F
:102D40002846FFF7C7FF70BD2DE9F0410646002475
:102D500010687529314616A510D000F013FA002826
:102D600002DA404213A507E031688A0701D512A5AF
:102D700002E0490704D511A5012401E000F00BFA97
:102D800000210A2206F1240709E0B0FBF2FCB0FBA7
:102D9000F2F302FB1C00303078541846491C00281E
:102DA000F3D123462A463046BDE8F04100F0FCB995
:102DB000000000002D0000002B000000200000009B
:102DC000F0B40D460188090502D5214C7C4402E08F
:102DD0001F4C7C440E34002100F1240608E002F070
:102DE0000F071209E75D42EA03721B097754491C79
:102DF00052EA0307F3D102780023120704D5702D9D
:102E000006D009B1022311342246F0BC00F0CCB93F
:102E100001231034F8E770B504460D4621461068CA
:102E200000F0B9F9024629462046BDE8704000236B
:102E3000C6E7D21D22F00703D3E90023C0E70368E9
:102E4000126843F0200303600823C3610023B7E73F
:102E5000E81700002DE9F05F894604464FF0000AAC
:102E6000DFF874B1FB44C0F820A02046E168884731
:102E7000002874D0252806D0D4E901219047206A83
:102E8000401C2062F1E700265F462046E168884743
:102E90002028054607DB312D05D2781910F8200CC3
:102EA00008B10643F1E7B00701D526F00406C4F8DF
:102EB0001CA00027C4F818A02A2D09D0284601F02C
:102EC00046FB38B304EB8708303DC8F8185019E0CA
:102ED00059F8041B204604EB87029161E16888479A
:102EE000012F054618D1E069002820DA26F02006D7
:102EF0001DE0D8F8180000EB800005EB40003038EA
:102F0000C8F818002046E1688847054601F01FFB15
:102F10000028EED1012F0AD02E2D08D12046E168DD
:102F200088477F1C0546022F46F02006C4DBA069B7
:102F3000002803DA404246F00106A061F00701D004
:102F400026F010066C2D0BD0682D09D04C2D39D0F1
:102F50006A2D35D0742D35D07A2D33D016E038E077
:102F6000E1682F4620468847B842054609D16C2FB4
:102F700026D04FF48060E168064320468847054626
:102F800004E06C2F1AD04FF4807006430DB3A5F106
:102F90004100192802D8203546F400664A462946E1
:102FA000204626604E46FDF7FDF880B101280BD083
:102FB000F61D26F0070000F1080956E74020E4E777
:102FC0008020D8E70020D6E706F104094DE728461F
:102FD00052E7206ABDE8F09F7817000070B50646FA
:102FE00000F0CCF80468054630460A22002100F0C3
:102FF00063FA2C6070BD30B505460B462A4613F8BF
:10300000014B12F8010B08B1A042F8D01CB1002806
:1030100002D06D1CF1E7284630BD10B5431C02E01C
:1030200010F8011B71B18107FAD14FF0013202C8CB
:103030008C1A8C4314EAC211F9D0C01A0A0603D0C4
:10304000C01E10BDC01A10BD0A0401D0801E10BDE4
:103050000902FCD0401E10BD032A40F2308010F05F
:10306000030C00F0158011F8013BBCF1020F624423
:1030700098BF11F801CB00F8013B38BF11F8013BB4
:10308000A2F1040298BF00F801CB38BF00F8013B61
:1030900011F0030300F04882083AC0F0088051F8AC
:1030A000043B083A51F804CBA0E80810F5E7121DDC
:1030B0005CBF51F8043B40F8043BAFF30080D207FB
:1030C00024BF11F8013B11F801CB48BF11F8012BC7
:1030D00024BF00F8013B00F801CB48BF00F8012BEA
:1030E00070474FF000020429C0F0128010F0030C6A
:1030F00000F01B80CCF1040CBCF1020F18BF00F8EB
:10310000012BA8BF20F8022BA1EB0C0100F00DB899
:103110005FEAC17C24BF00F8012B00F8012B48BFF7
:1031200000F8012B70474FF0000200B5134694469B
:103130009646203922BFA0E80C50A0E80C50B1F10F
:103140002001BFF4F7AF090728BFA0E80C5048BF23
:103150000CC05DF804EB890028BF40F8042B08BFC1
:10316000704748BF20F8022B11F0804F18BF00F8BD
:10317000012B704770477047704770470048704791
:10318000983A002009684A0501D540B27047C90540
:10319000FCD500B2704709684A0501D5C0B2704736
:1031A000C905FCD580B270472DE9F0470D46994618
:1031B0009246044600F124080168880604D5E069B7
:1031C00021F01001216000E00120A84201DD471B31
:1031D00000E00027A1697A1902EB0900081AA06132
:1031E0002078C00602D42046FFF75EFD002608E0E6
:1031F000D4E901211AF806009047206A401C761C89
:1032000020624E45F4DB2078C0060AD52046FFF741
:103210004BFD06E0D4E9012130209047206A401C94
:103220002062381EA7F10107F4DC07E0D4E9012190
:1032300018F805009047206A401C2062281EA5F15E
:103240000105F3DC2046FFF745FD2078000602D596
:103250000220BDE8F0870120FBE711680268006AE0
:10326000530501D508700AE0D30501D5088006E0B2
:10327000130603D5C217C1E9000200E0086001206F
:103280007047000001694A1C02610878704700B568
:103290008FB0CDE901310021059105497944CDE98F
:1032A000031011466846FFF7D5FD0FB000BD0000C2
:1032B000E5FFFFFF0A6802F8010B0A60704710B5CE
:1032C000436913B1AFF3008001E0FFF714FD012063
:1032D00010BD127800F124010A7000224A70012208
:1032E000EDE711684FF0FF32E9E70000074B70B5DA
:1032F0000D467B44FFF7CBFF0446284600F009FC4F
:1033000010B14FF0FF3070BD204670BDD5E7FFFF14
:103310002DE9FF5F15468A460446DFF8AC80F84485
:103320000027D8E900103E46CDE9001010E03AF839
:1033300016106A4602A800F0F0FB411C07D0217865
:10334000890603D5E269391891420DD80744761CE5
:103350002078800602D5E069B84205DDAE42E6DBA2
:103360003AF816000028E2D1A069C01BA0612046EF
:10337000FFF79AFCD8E90010CDE90010002017E013
:103380003AF818106A4602A800F0C7FBB0F1FF3FF8
:1033900081460BD000250DF1080B05E0D4E9012191
:1033A0001BF8050090476D1C4D45F7D308F101004F
:1033B000B0428046E4DB206A384420622046FFF7B2
:1033C00089FCBDE8FF9F0000D21200002DE9F0410A
:1033D0008046D21D22F007020025D2E90002F5291D
:1033E00015A614D0011E72F1000106DA0023D0EBFD
:1033F000030063EB020211A608E0D8F800108B0767
:1034000001D50FA602E0490701D50EA601251146F8
:10341000002408F1240704E000F0C4F830323A55E3
:10342000641C50EA0102F7D12B4632462146404641
:10343000BDE8F041FFF7B8BE000000002D0000001D
:103440002B0000002000000030B4002100F1240413
:1034500008E002F00705D208303542EA4372DB0883
:103460006554491C52EA0305F3D10468002310A2F5
:10347000250708D504F020040C4304D0C4690123B7
:103480000CA2641EC46130BCFFF78EBE10B50446AA
:1034900021461068FFF77FFE02462046BDE8104037
:1034A0000023D1E7D21D22F00701D1E90023CBE7A9
:1034B00000000000300000002DE9F04791460F4663
:1034C00080460446002614F8015B2DB100F062F836
:1034D0000068405DC007F6D12B2D02D02D2D18D0ED
:1034E000641E4A463946204600F0C4FA27B13968BE
:1034F000A14201D1C7F800804FF0020471050BD53D
:103500004042002803DDFFF739FE0460A007BDE854
:10351000F08746F48066E4E70028F8DAFFF72EFE2D
:1035200004606FF00040F2E710B5203AC0F00B8065
:10353000B1E81850203AA0E81850B1E81850A0E8B7
:103540001850BFF4F5AF5FEA027C24BFB1E8185011
:10355000A0E8185044BF18C918C0BDE810405FEA81
:10356000827C24BF51F8043B40F8043B08BF7047FD
:10357000D20728BF31F8023B48BF11F8012B28BF02
:1035800020F8023B48BF00F8012B70470048704705
:10359000983A002010B500F005FB001D10BD00BFDB
:1035A000BD0F000030B5B0F10A024FEA900E71F184
:1035B00000034EEA817EB0EB0E0061EB91014FEA11
:1035C000101E4EEA017E10EB0E0041EB11114FEA86
:1035D000102E4EEA016E10EB0E0041EB11214FEA66
:1035E000104E4EEA014E10EB0E0041EB1141401817
:1035F00041F100014FEAD00040EA41704FEAD101A9
:1036000010EB80054FEA810444EA907444EB010416
:103610006D1944EB0404521BA3414FF0000348BF53
:103620000A3200D530BD401C41F1000130BD704769
:103630002DE9FF4F0C461E464FF0FF378BB0D2E905
:103640000001DDF860800A908A46C1F30A5505B989
:103650003D46002108464FF00000BAF1000F00F48B
:10366000400005DA00EB80004FF4400101EA500011
:103670004FEA9059B9F1010F00DDB9460A9850EAB6
:103680004A000ED044F61050A5F2FF3545432F14E2
:10369000B8F1000F1ED07542291E1EDDC9F10002CF
:1036A0001CE0B8F1010F4FF0000001D0302103E021
:1036B000F24305E02154401CB042FBDB30460022BF
:1036C000002121540B99C1F80880C1E900200FB0F6
:1036D000BDE8F08FBD1B6D1CDEE74A4600DA69428B
:1036E00006A800F0B1FA06AB93E8070003AB83E845
:1036F000070050460A9900F05BFB8DE80700A0F533
:1037000000501F3800900398002D09DD42F21F0180
:103710004A46084403A90390684600F0BAFD08E051
:10372000A0F500504A461F3803A90390684600F0F0
:10373000C4FD8DE807000004000C03D04FF0FF30FB
:10374000410800E01046B8F1000F03D000220092BB
:1037500015461EE0751E05D4FFF724FF3032625572
:103760006D1EF9D5B3460122084302D000227F1C0A
:1037700004E02078302801D100227F1E002A09971A
:1037800086D01DE0112D07DAFFF70CFF30326255AD
:103790006D1C50EA0102F5D1084302D00098C8B16F
:1037A0000EE00021681E05E0235C625C6354225435
:1037B000401E491C8142F7DBAB46A81B401E099006
:1037C000002004F80B000B98099AC0F80880C0E9A3
:1037D000002B7CE711264FF0000859E72DE9F04F48
:1037E00088460446D21D22F0070191B0D1E90001BC
:1037F000CDE90A0100F097FE02460B98C00F01D0F8
:103800002D2007E02068810701D52B2002E0202130
:1038100001EAC000032A099001D0072A05DB03460C
:103820004146204600F0C2F90BE12078800601D520
:10383000E06900E00620B8F1650F814606D0B8F1D6
:10384000660F18D0B8F1670F70D131E00020B9F1E0
:10385000110F009001DB112301E009F101030AAA15
:1038600001A90CA8FFF7E4FEDDE90C70002609F1C0
:103870000105834647E001204B4600904FF000478A
:103880000AAA01A90CA8FFF7D3FEDDE90DB00C9937
:103890005D46002610B909F101000D18B9EB0500CD
:1038A00003D4C0F1FF3609F10105A5EB09002BE0B7
:1038B000B9F1010F01DA4FF001090020B9F1110F40
:1038C0000090484601DD112300E003460AAA01A941
:1038D0000CA8FFF7ADFEDDE90C704D4600268346CF
:1038E000207800070AD4AB4500DA5D4601A8012D17
:1038F00004DD411911F8011C302907D04F4502DAC7
:1039000017F1040F04DA012082460FE06D1EEEE786
:10391000002F02DCED1B3E4403E0781CA84200DDD2
:103920007D1CB81B00F1010A4FF00047207800070A
:1039300003D4AA4501DB4FF0FF3A0021B7F1004F55
:103940000DF143088DF8431024D002202B23002FC3
:1039500001DA7F422D230A21021EA0F1010000DCC2
:103960005FB197FBF1FC97FBF1F201FB1C7C174662
:103970000CF1300C08F801CDEEE7A8F1010003705E
:103980002188090501D5452100E06521A0F1010844
:1039900000F8011C09980FA9A1EB0807FF1D00B151
:1039A0000120411901EBEA70A1693844081A401E50
:1039B000A0612078C00602D42046FFF775F9099867
:1039C00028B1D4E901219047206A401C2062207868
:1039D000C00622D52046FFF767F91EE0002E04DB63
:1039E000B34502DD01A8805D00E03020D4E901216B
:1039F0009047206A401C2062761CAAF101005FEA11
:103A0000000A0AD100F0CEF8C0680168405CD4E931
:103A100001219047206A401C2062281EA5F1010563
:103A2000DCDC07E0D4E9012118F8010B9047206A9B
:103A3000401C2062381EA7F10107F3DC2046FFF787
:103A400049F9032011B043E610B5436913B1AFF350
:103A5000008001E0FFF75CFC012010BD128800F13E
:103A6000240182840022C2840122EDE711684FF014
:103A7000FF32E9E72DE9F05F824615468B460027C5
:103A80000AF10104B9460078302801D09DB113E055
:103A900014F8010B0127782803D0582801D045B12C
:103AA0000AE00DB1102D07D1002714F8010B1025E5
:103AB00002E0082500E00A250026B0460EE005FBDE
:103AC000080005FB06F101271FFA80F801EB1046FC
:103AD000B6F5803F00D3B94614F8010B294600F033
:103AE000A5F80028EBDABBF1000F05D00FB1641E7A
:103AF00000E05446CBF80040B9F1000F06D0FFF7C4
:103B00003DFB02210160C81EBDE8F09F48EA064067
:103B1000FAE7007B00F08000704770B516460C464F
:103B20000546FFF737FD036893F80101012806D029
:103B3000FF2C0FD8185D68B101202C7070BDD3F830
:103B400007013246214603F2071303442846BDE825
:103B5000704018474FF0FF3070BD7546FFF716FDF7
:103B6000AE4605006946534620F00700854618B06A
:103B700020B5FEF7D9F8BDE820404FF000064FF021
:103B800000074FF000084FF0000B21F00701AC4692
:103B9000ACE8C009ACE8C009ACE8C009ACE8C009B1
:103BA0008D46704700487047B83A00202DE9F04133
:103BB0001F46044603260168072A01F4006004DB5F
:103BC00008B116A505E016A503E008B115A500E0AB
:103BD00015A521F010002060A069C01EA0610FB1E2
:103BE000401EA0612046FFF75FF84FB1D4E90121E4
:103BF00038469047206A401C2062C01C206206E0C4
:103C0000206AFAE7D4E9012115F8010B9047761EE6
:103C1000F8D22046FFF75EF8BDE8F0814E414E0035
:103C20006E616E00494E4600696E66003A2800D209
:103C3000303820F02002412A01D3A2F13700884217
:103C400001D34FF0FF3070472DE9F047814616460B
:103C50008AB0334878440DC88DE80D003048784468
:103C6000801C03AC0DC884E80D0041F69B3008446D
:103C7000372190FBF1F290FBF1F5A5F1800501FBF6
:103C800012041B3C02D56442012000E00020DFF852
:103C900090A080460027FA44AAF1BE0A0DE0E00792
:103CA00009D03246684607EB47010AEB810100F074
:103CB00004FB8DE8070064107F1C002CEFD1184F27
:103CC0007F44AC3F18E0E80714D007EB04100DF177
:103CD000180A90E80E008AE80E00C068F04201D190
:103CE00098190890324606A903A800F0E6FA03AB3B
:103CF00083E807006D10641C002DE4D1324669464C
:103D0000B8F1000F03A802D000F0C3FA01E000F000
:103D1000D4FAC9E90001C9F808200AB0BDE8F08763
:103D2000200A00000446AFF300802046FCF79DFA0D
:103D30004FF0013C50F8042B51F8043B9A4221D13A
:103D4000A2EB0C03934313EACC1317D150F8042BC6
:103D500051F8043B9A4215D1A2EB0C03934313EAAA
:103D6000CC130BD150F8042B51F8043B9A4209D1E3
:103D7000A2EB0C03934313EACC13DBD04FF000000B
:103D8000704700BFD01A01BAB1FA81F101F01801F1
:103D900022FA01F0CB40C1F12001DBB2C0B2C01A5F
:103DA0002CFA01F3D11A914311EAC311E6D17047FD
:103DB0005FEA400C08BF91F0000F4FEA8C234FEAF6
:103DC000C12243EA51514FEA1C5018BF00F5F040A0
:103DD0004FEA300018BF41F000415FEA6C5C00F030
:103DE0002980BCF1FF3F08BF40F080407047130CB2
:103DF00006BF12044FF0100C4FF0000C130E04BF5E
:103E000012020CF1080C130F04BF12010CF1040C88
:103E1000930F04BF92000CF1020CD30F04BF5200A9
:103E20000CF1010C11464FF00002A0F11F00A0EBB5
:103E30000C00704711F0004F08BF704731F000418F
:103E40003FF4D5AF0B0C06BF09044FF0100C4FF038
:103E5000000C0B0E04BF09020CF1080C0B0F04BF81
:103E600009010CF1040C8B0F04BF89000CF1020C4A
:103E7000CB0F04BF49000CF1010CCCF12003A0EBE7
:103E80000C0022FA03F302FA0CF241EA030100F1FA
:103E90000100704720F07F4C80EA030023F07F4749
:103EA000ACEB070303F57C5300F0004003F1FF0384
:103EB0002DE980494FEA154B09B44FEA144325EA2E
:103EC0000B4E24EA03480FF2042606EB1327490899
:103ED0003E785FEA320203FB0667C7F5000707FB7F
:103EE00006F64FEA54374FEAD64606F1020607FBBC
:103EF000066CCCF1005C4FEA1C472CEA074C07FB30
:103F000006F40CFB06F504EB15464FEA961634BF93
:103F100000204FF000404FEAD13706FB07FC4FEA84
:103F20001C4C0CFB0BF7D21B03FB0CF761EB0701DE
:103F30000CFB0EF7B0EB074072EB17420CFB08F7D7
:103F400034BFA2EB0742B2EB074261EB17414FEAE5
:103F50000C444FEA910706FB07FC4FEA1C4C0CFB94
:103F60000BF7B0EBC74072EB573203FB0CF734BFD3
:103F7000A2EBC742B2EBC74261EB57310CFB0EF725
:103F8000B0EBC70072EB57720CFB08F734BFA2EB23
:103F9000C702B2EBC70261EB5771039F4FEA816121
:103FA00041EA921104EBCC044FEAD1374FEA826226
:103FB00006FB07FC42EA90124FEA80604FEA1C4C75
:103FC0000CFB0BF7D21B03FB0CF761EB07010CFB9F
:103FD0000EF7B0EB074072EB17420CFB08F734BF4B
:103FE000A2EB0742B2EB074261EB17414FEA8C5557
:103FF0004FEA910704EB9C2406FB07FC4FEA1C4C9C
:104000000CFB0BF7B0EBC74072EB573203FB0CF71E
:1040100034BFA2EBC742B2EBC74261EB57310CFB96
:104020000EF7B0EBC70072EB57720CFB08F734BF0A
:10403000A2EBC702B2EBC70261EB577115EB4C253F
:104040004FEA816141EA92114FEA82624FEAD13729
:1040500042EA901206FB07FC44F100044FEA80603C
:104060004FEA1C4C0CFB0BF7D21B03FB0CF761EB6C
:1040700007010CFB0EF7B0EB074072EB17420CFB8D
:1040800008F734BFA2EB0742B2EB074261EB1741DE
:1040900015EB1C154FEA813141EA92414FEA823219
:1040A00042EA90424FEA80304FEA0C7644F1000435
:1040B00048EA03434EEA0B484FF0000EB2EB080CFF
:1040C00071EB030724BF624639464EEB0E0E4FF0EC
:1040D000000B0018524149414BEB0B0BB2EB080CA3
:1040E00071EB03077BF1000B24BF624639464EEBB0
:1040F0000E0E4FF0000B0018524149414BEB0B0BD9
:10410000B2EB080C71EB03077BF1000B24BF624696
:1041100039464EEB0E0E51EA020718BF46F0010673
:1041200016EB0E7655F1000254F1000103D5BDE8FF
:104130008901BDE80088BDE88901BDE80048B619DD
:10414000524141EB0101A3F10103704780807F7E62
:104150007D7C7B7A797877767675747372717170FD
:104160006F6E6E6D6C6C6B6A6A69686867666665AF
:104170006464636362616160605F5F5E5E5D5D5C3D
:104180005C5B5B5A5A5959585857575656555555AE
:104190005454535352525251515050504F4F4F4E0E
:1041A0004E4D4D4D4C4C4C4B4B4B4A4A4A4949495C
:1041B000484848474747474646464545454444449E
:1041C000444343434342424242414141002B26D4AF
:1041D000770021D01CB54FEA370703B44FF0100029
:1041E0004FF010014FF000000FBCBDE810400BF184
:1041F000010BBBF1010F08BF5FEA170722BF12F1E5
:10420000010211F101014FF0004143F1000300F000
:10421000004043EA00007047F9D35708DAE746EA5E
:10422000064613F1400F4FEA16461FDD13F1200F2B
:10423000DFBF16430A46002120335B42C8D0C3F1DA
:10424000200746EA064602FA07F74FEA164646EA0C
:104250000706C3F1200722FA03F201FA07F721FA51
:1042600003F14FF0000342EA0702B1E746EA020613
:1042700046EA06464FEA164646EA0106BCBF46EA4B
:104280000646360C4FF000034FF000024FF00001DD
:104290009EE72DE9C048934630B491E8380007C83E
:1042A00031EA400C48BF34EA430C03D5FFF7F2FD76
:1042B000FFF78CFFF0BCBDE800882DE9C0489346AD
:1042C00030B491E8380007C810F0804F08BF13F0F1
:1042D000804F03D100F005F8FFF778FFF0BCBDE890
:1042E000008820F07F4780EA030023F07F4C07EB33
:1042F0000C03A3F57C5300F00040A3F1FE0392F001
:10430000000F00F0B38095F0000F00F077802DE9EA
:1043100001494FEA11404FEA144621EA004800FBE8
:1043200006FC24EA064708FB06F607FB08F800FB34
:1043300007F718EB06484CEB164C4FEA124B18EBFC
:1043400007484FEA15464CEB174022EA0B4E0BFB91
:1043500006FC25EA06470EFB06F607FB0EFE0BFBE6
:1043600007F71EEB064E4CEB164C4FF000061EEB0B
:10437000074E4CEB174B18EB0B0840F1000018EB05
:104380000E0B58EB000840F100008F1A4FF00001AF
:104390003CBFC943661B14BFB5EB040C00213CBFF6
:1043A000C943F61B4FEA17444EEA8E0E27EA04452E
:1043B0004FEA1C4704FB07622CEA074C05FB07F792
:1043C0000CFB05F604FB0CFC16EB074642EB174210
:1043D00016EB0C4642EB1C421BEB060658EB0202A6
:1043E000414146EA9E0601D5BDE80189B619524110
:1043F00041EB0101A3F10103BDE801894FEA144536
:104400004FEA114724EA054621EA074C05FB07F469
:1044100006FB07F70CFB06F105FB0CFC11EB074153
:1044200044EB17444FEA124711EB0C4144EB1C4498
:1044300022EA074C05FB07F206FB07F70CFB06F622
:1044400005FB0CFC16EB074642EB174216EB0C463D
:1044500042EB1C456A1854F1000148BF7047B61979
:10446000524141EB0101A3F10103704795F0000FA8
:1044700037D04FEA11424FEA144721EA024624EAB4
:10448000074C02FB07F106FB07F70CFB06F402FBE7
:104490000CFC14EB074441EB17414FEA154714EBB2
:1044A0000C4441EB1C4125EA074C02FB07F506FBD7
:1044B00007F70CFB06F602FB0CFC16EB074645EB78
:1044C000174516EB0C4645EB1C42121951F1000141
:1044D00048BF7047B619524141EB0101A3F10103F6
:1044E00070474FEA14454FEA114724EA054621EA8E
:1044F000074C05FB07F106FB07F70CFB06F24FF034
:10450000000605FB0CFC12EB074241EB174112EBD6
:104510000C4251EB1C4148BF7047921841EB01011E
:10452000A3F101037047490050EAC12018BF0420DD
:104530004A0D18BF40F0010040F2FF72B2EB515F2C
:1045400008BF40F00200012808BF0520704730383E
:104550000A2801D2012070470020704710B50029B9
:104560000AD00878002807D005487844FFF7E0FB18
:10457000002801D0002010BD0248784410BD000082
:10458000460100003E01000010B500290AD008785D
:10459000002807D005487844FFF7CAFB002801D05F
:1045A000002010BD0248784410BD00002A0200001F
:1045B00022020000FFF712B930313233343536377A
:1045C0003839414243444546403058003031323357
:1045D0003435363738396162636465664030780057
:1045E00004000008000000000000000200010000BC
:1045F0001000000000000000000000000240000069
:10460000000000A00000000005400000000000C8FD
:10461000000000000C4000000000409C0000000072
:10462000194000000020BCBE000000003440000023
:10463000BFC91B8E00000004B5400000504BCFD016
:104640006607E2CF010000006C4100003E8251AAE3
:10465000DFEEA73401000000D9420000DCB5A0E283
:104660003A301F97FFFFFFFFB4450000FD25A0C8AB
:10467000E9A3C14FFFFFFFFFFF3F000000000080E4
:1046800000000000FF3F000000000080000000006C
:10469000DC470008000000203C0000006C0100081E
:1046A000184800083C000020BC40000088010008B9
:1046B0001001000043000000F8FFFFFF00404040F1
:1046C00040404040404041414141414040404040E5
:1046D0004040404040404040404040404005020291
:1046E0000202020202020202020202020220202050
:1046F00020202020202020020202020202029090AC
:1047000090909090101010101010101010101010A9
:1047100010101010101010100202020202028888FD
:104720008888888808080808080808080808080809
:1047300008080808080808080202020240000000F1
:104740000000000000000000000000000000000069
:104750000000000000000000000000000000000059
:104760000000000000000000000000000000000049
:104770000000000000000000000000000000000039
:104780000000000000000000000000000000000029
:104790000000000000000000000000000000000019
:1047A0000000000000000000000000000000000009
:1047B00000000000000000000000000000000000F9
:1047C0001C00000043000000F8FFFFFF0C00000089
:1047D0000E0000000F0000002E00000000A24A049E
:1047E00000000000000000000102030406070809A1
:1047F00017EF0000000000000000000000000000B3
:104800000000000000000000010203040102030494
:0848100006070809020406086E
:0400000508000131BD
:00000001FF
