:020000040800F2
:10000000A8530020613B0008290500082B050008C3
:100010002F05000833050008370500080000000020
:100020000000000000000000000000003B05000888
:100030003D050008000000003F05000841050008DC
:100040007B3B00087B3B00087B3B00087B3B0008B8
:100050007B3B00087B3B00087B3B00087B3B0008A8
:100060007B3B00087B3B00087B3B00087B3B000898
:100070007B3B00087B3B00087B3B00087B3B000888
:100080007B3B00087B3B00087B3B00087B3B000878
:100090007B3B00087B3B00087B3B00087B3B000868
:1000A0007B3B00087B3B00087B3B00087B3B000858
:1000B0007B3B00087B3B00087B3B00087B3B000848
:1000C0007B3B00087B3B00087B3B00087B3B000838
:1000D0007B3B0008D5390008F33A00087B3B000859
:1000E0007B3B00087B3B00087B3B00087B3B000818
:1000F0007B3B00087B3B00087B3B00087B3B000808
:100100007B3B00087B3B00087B3B00087B3B0008F7
:100110007B3B00087B3B00087B3B00087B3B0008E7
:100120007B3B00087B3B00087B3B00087B3B0008D7
:1001300000F002F800F090F80AA090E8000C824469
:100140008344AAF10107DA4501D100F085F8AFF246
:10015000090EBAE80F0013F0010F18BFFB1A43F0A5
:1001600001031847C87C0000E87C0000103A24BF57
:1001700078C878C1FAD8520724BF30C830C144BF0C
:1001800004680C607047000000230024002500264E
:10019000103A28BF78C1FBD8520728BF30C148BFEA
:1001A0000B6070476E2904F08D87702904F071850B
:1001B000662907F00E85652907F00B85672907F08A
:1001C00008856129AFF3008003681B0A28BF41F04E
:1001D0008001692904F0E284642904F0DF84752930
:1001E00004F0DC846F2905F09482782904F03D85C1
:1001F000E92905F02F82E42905F02C82F52905F084
:100200002982EF2905F09182F82904F03C850368E2
:10021000DB0928BF41F08001632905F09E81732925
:1002200005F0A381E32905F09583F32905F09A836E
:10023000002070471FB505F0F9FA040000200021E6
:1002400006F078FE401C60600020002106F05CFE95
:10025000E0601FBD10B510BD05F06EFC1146FFF744
:10026000E9FF00F05CF805F09AFC03B4FFF7F2FF39
:1002700003BC03F051FB0000F0B59FB0642103A85C
:1002800004F07BFE1CAA1DA91EA803F081FA002819
:100290003BDD1E9807F00EFC044622460B4670A17B
:1002A00003A804F015FC03AB4FF6FF721F210720D3
:1002B00001F0BEF91D9807F0FDFB044622460B46EF
:1002C0006BA103A804F004FC03AB4FF6FF721F21DF
:1002D000082001F0ADF91D9807F0ECFB04460D462F
:1002E0001E9807F0E7FB064632460B4664A16C48B1
:1002F000CDE9004504F0ECFB694804F0B8FD044684
:100300002146674803F080FB07E066A34FF6FF72C3
:100310004FF47841082001F08BF91FB0F0BD08B50B
:10032000002400BF03F08EFA4FF4A06003F038FC05
:100330004FF4E13003F002FB4FF4E13003F08AFBAD
:1003400000F076FB00F0EEF901F087FA00F04EFACB
:1003500001F024FC03F019F956A34FF6FF724FF693
:100360001F01012001F064F957A34FF6FF724FF40B
:100370007841022001F05CF957A25CA1484804F0E2
:10038000A7FB47484FF6FF731F222821009000204B
:1003900001F054F857A25AA1414804F099FB404893
:1003A0004FF6FF731F2232210090002001F046F823
:1003B00055A258A13A4804F08BFB39484FF6FF7319
:1003C0001F223C210090002001F038F842F2107208
:1003D00052A1334804F07CFB31484FF6FF731F22D3
:1003E00046210090002001F029F847A341A23AA13C
:1003F000022002F0DDFC42F21073002219460120B7
:1004000002F073FD2BE0142094FBF0F100FB11408F
:1004100008B902F0A7FA4FF4967094FBF0F100FBD4
:10042000114048B9FFF728FF1D4804F020FD85B2B0
:1004300029461B4802F0E9FA0A2003F040FA14208A
:1004400094FBF0F100FB114038B93648006808B958
:10045000012000E0002033490860601C84B2D2E72C
:10046000CEC2B6C83A252E316620B6C800000000BC
:10047000C6F8D1B93A252E303366204B70610000A2
:10048000CEC2B6C83A252E316620B6C82CC6F8D1E1
:10049000B93A252E303366204B70610D0A000000FA
:1004A0003C00002020202020206572726F722121E4
:1004B00000000000574946492B424D50313830204A
:1004C000544553540000000057494649C4A3CABDCF
:1004D0003A4150C4A3CABD00737A2D79792E746154
:1004E0006F62616F2E636F6D0000000053534944CB
:1004F0003A25730031323334353637380000000086
:100500005053573A257300003139322E3136382E88
:10051000312E310049503A2573000000504F52549B
:100520003A256400A0012142704700BFFEE700BFEA
:10053000FEE700BFFEE700BFFEE770477047704769
:10054000704700000CB50020019000906C480068D6
:1005500040F480306A49086000BF6948006800F4D0
:10056000003000900198401C0190009818B9019843
:10057000B0F5A06FF1D16248006800F4003010B10E
:100580000120009001E0002000900098012843D154
:100590005C48006840F010005A490860084600684E
:1005A00020F0030008600846006840F00200086080
:1005B00053484068524948600846406848600846C9
:1005C000406840F4806048600846406820F47C1031
:1005D00048600846406840F4E810486008460068F3
:1005E00040F08070086000BF4548006800F000706F
:1005F0000028F9D04248406820F003004049486094
:100600000846406840F00200486000BF3C4840682F
:1006100000F00C000828F9D10CBD10B5FFF792FFCF
:1006200010BD10B53648006840F00100344908603C
:100630000846406834490840314948600846006827
:10064000324908402E4908600846006820F480209E
:1006500008600846406820F4FE0048604FF41F0020
:100660008860FFF7DAFF4FF000602949086010BD8D
:1006700010B5002100200022214B5B6803F00C0123
:1006800021B1042906D0082928D107E0214B224CAA
:10069000236027E01F4B204C236023E0184B5B684E
:1006A00003F47010164B5B6803F48032022303EBF3
:1006B000904022B9194B4343174C23600DE0104B77
:1006C0005B6803F4003323B1144B4343124C2360A3
:1006D00003E0104B4343104C236003E00D4B0E4CE2
:1006E000236000BF00BF064B5B68C3F303130C4CD1
:1006F000E15C094B1B68CB40074C236010BD000038
:1007000000100240002002400000FFF8FFFFF6FE4C
:1007100008ED00E000127A000000002000093D0012
:100720000400002008B50121142003F0C3FD4FF49C
:100730008070ADF8000010208DF8030003208DF8C4
:1007400002006946254803F0F9FA4FF48071234806
:1007500003F0A1FB8020ADF8000010208DF803000D
:1007600003208DF8020069461D4803F0E7FA802156
:100770001B4803F090FB4020ADF8000010208DF8DE
:10078000030003208DF802006946154803F0D6FAED
:100790004021134803F07FFB08BD002803DD002142
:1007A000104A116002E001210E4A116070470028D2
:1007B00003DD00210C4A116002E001210A4A1160A8
:1007C0007047002804DD0021074A121F116003E072
:1007D0000121054A121F1160704700000008014006
:1007E00000100140A00121429C01224208B50121D4
:1007F0001C2003F05FFD0120ADF8000048208DF8BB
:1008000003006946344803F099FA2020ADF800004F
:1008100048208DF803006946304803F08FFA012024
:10082000ADF8000028208DF8030069462C4803F03D
:1008300085FA08BD10B50121294803F012FB0128F3
:100840000AD00121244803F00CFB28B120212348C1
:1008500003F007FB00283CD1322003F030F80121DF
:100860001F4803F0FEFA01280DD102E00A2003F030
:1008700026F801211A4803F0F4FA0128F6D001F015
:10088000AEF9012010BD0121134803F0EAFA68B95E
:1008900002E00A2003F013F801210F4803F0E1FA07
:1008A0000028F6D001F09BF90220EBE720210B484D
:1008B00003F0D7FA68B902E00A2003F000F820211B
:1008C000064803F0CEFA0028F6D001F088F903209C
:1008D000D8E70020D6E70000000C014000100140DE
:1008E0000008014070B50546002405E0601CC4B254
:1008F000C82C01DD002070BD0221394804F091F8B8
:100900000028F3D02946364804F038F8002405E0E2
:10091000601CC4B2C82C01DD0020ECE70121304886
:1009200004F07FF80028F3D02D4804F029F8C0B275
:10093000E1E700B587B00121042003F0BBFC0121F1
:10094000080303F0B7FCE020ADF8180018208DF87C
:100950001B0003208DF81A0006A9224803F0EEF9C7
:10096000E021204803F097FA0020ADF804004FF48E
:100970008270ADF806000020ADF808000220ADF846
:100980000A000120ADF80C004002ADF80E0038203E
:10099000ADF810000020ADF812000720ADF81400EB
:1009A00001A90F4803F014FF01210D4803F0B5FF22
:1009B000FF20FFF797FF07B000BD10B504460848B9
:1009C00000884FF6C771084005490880084600882E
:1009D000204308800121024803F09FFF10BD000062
:1009E000003001400008014010B500240020CF492C
:1009F00008609020FFF776FF0020FFF773FF0020CC
:100A0000FFF770FF0020FFF76DFFFF20FFF76AFF81
:100A100044EA0024FF20FFF765FF04430120C44996
:100A2000C1F890012146C3A004F046F8204610BD4D
:100A300008B50121042003F03DFC1020ADF80000B2
:100A40008DF8030003208DF802006946BD4803F0CD
:100A500075F91021BB4803F01EFA0120B349086064
:100A6000FFF767FF0020FFF7A8FFFFF7BDFFB649BC
:100A7000088008BD10B500240020AC49086005209E
:100A8000FFF730FFFF20FFF72DFF04460120A849A4
:100A9000C1F89001204610BD10B504460020A349BE
:100AA00008600120FFF71EFF2046FFF71BFF012013
:100AB0009F49C1F8900110BD10B500209B49086006
:100AC0000620FFF70FFF01209949C1F8900110BDE2
:100AD00010B50020954908600420FFF703FF0120AE
:100AE0009349C1F8900110BD2DE9F04106460C462E
:100AF000174600208D4908600320FFF7F3FEC4F37A
:100B00000740FFF7EFFEC4F30720FFF7EBFEE0B26C
:100B1000FFF7E8FE002505E0FF20FFF7E3FE705534
:100B2000681C85B2BD42F7DB012080490860BDE842
:100B3000F08110B500BFFFF79DFF00F00100002815
:100B4000F9D110BD2DE9F04106460C461746FFF7D6
:100B5000B3FF0020754908600220FFF7C3FEC4F30D
:100B60000740FFF7BFFEC4F30720FFF7BBFEE0B26C
:100B7000FFF7B8FE002504E0705DFFF7B3FE681CC8
:100B800085B2BD42F8DB012068490860FFF7D1FF5C
:100B9000BDE8F0812DE9F04107460E461446F0B25B
:100BA000C0F58075AC4200DC254612E02A4631468D
:100BB0003846FFF7C7FFAC4200D10BE02F442E446C
:100BC000601B84B2B4F5807F02DD4FF4807500E0D5
:100BD0002546EBE700BFBDE8F08110B504462403CD
:100BE000FFF76AFFFFF7A5FF0020504908602020AB
:100BF000FFF778FEC4F30740FFF774FEC4F3072045
:100C0000FFF770FEE0B2FFF76DFE01204849C1F822
:100C10009001FFF78EFF10BD2DE9F05F81460F4672
:100C20001646DFF828B14FEA1738C7F30B0ACAF5A2
:100C30008054A64200D8B4B243E04FEA08314FF4E2
:100C400080525846FFF750FF002508E00AEB0500E8
:100C50001BF80000FF2800D003E0681C85B2A54205
:100C6000F4DB00BFA54216DA4046FFF7B6FF0025C9
:100C700007E019F8050005EB0A010BF80100681CF4
:100C800085B2A542F5DB4FEA08314FF48052584651
:100C9000FFF780FF04E0224639464846FFF77AFF17
:100CA000A64200D10EE008F101084FF0000AA1446D
:100CB0002744361BB6F5805F02D94FF4805400E01C
:100CC000B4B2BAE700BFBDE8F09F10B5FFF7F4FE7D
:100CD000FFF72FFF002015490860C720FFF702FE2D
:100CE00001201349C1F89001FFF723FF10BD10B593
:100CF00000200E490860B920FFF7F4FD01200C49DF
:100D0000C1F89001032002F0B6FD10BD10B500201F
:100D100006490860AB20FFF7E5FD01200449C1F852
:100D20009001032002F0A7FD10BD000090012142B8
:100D30000000214249443D3078253034782E0D0A98
:100D4000000000000008014014000020A000002066
:100D50002DE9F04706460F4690469A460024454640
:100D60004FEA4800C0F103094AE07A1991B23219FA
:100D700090B2524600F095FE7A1991B2321B90B2B1
:100D8000524600F08EFE7A1B91B2321990B2524652
:100D900000F087FE7A1B91B2321B90B2524600F0EF
:100DA00080FE3A1991B2721990B2524600F079FE63
:100DB0003A1991B2721B90B2524600F072FE3A1B81
:100DC00091B2721990B2524600F06BFE3A1B91B28A
:100DD000721B90B2524600F064FEB9F1000F05DAC2
:100DE000042000FB049000F1060907E0601B0421C9
:100DF00001FB009000F10A09681E85B2601C84B2F4
:100E0000AC42B2DBAC4237D17A1991B2321990B20E
:100E1000524600F046FE7A1991B2321990B252460B
:100E200000F03FFE7A1B91B2321990B2524600F0A8
:100E300038FE7A1B91B2321B90B2524600F031FE5E
:100E40003A1991B2721990B2524600F02AFE3A193C
:100E500091B2721B90B2524600F023FE3A1B91B23F
:100E6000721990B2524600F01CFE3A1B91B2721BEE
:100E700090B2524600F015FEBDE8F0872DE9FF4F15
:100E800083B0804689464946404600F000FE0598FA
:100E9000A0EB08050698A0EB0906002D02DB012057
:100EA000029003E04FF0FF3002906D42002E02DB13
:100EB0000120019003E04FF0FF30019076424FEAAD
:100EC000450A4FEA460BB54219DDABEB0504002796
:100ED00012E049464046109A00F0E3FD002C05DB85
:100EE000A4EB0A04019848441FFA80F95C44029874
:100EF00040441FFA80F87F1CAF42EADD18E0AAEBFD
:100F00000604002712E049464046109A00F0C9FD49
:100F1000002C05DBA4EB0B04029840441FFA80F878
:100F20005444019848441FFA80F97F1CB742EADD17
:100F300007B0BDE8F08F2DE9F84305460C4616468C
:100F40001F46DDF820804EF67D700090A81982B211
:100F5000234621462846FFF791FF42F6651004F12B
:100F6000010CBC441FFA8CF305EB060CACF1010C30
:100F70001FFA8CF204F1010C1FFA8CF105EB060C40
:100F8000ACF1010C00901FFA8CF0FFF777FF42F6EE
:100F900065100090E01983B2A81982B2E01981B2FD
:100FA0002846FFF76BFF4EF67D700090E01983B284
:100FB0002A4621462846FFF761FF04F1010CBC4494
:100FC000ACF1020C1FFA8CF305F1010CB444ACF146
:100FD000020C1FFA8CF204F1010C1FFA8CF105F1DE
:100FE000010C1FFA8CF0CDF80080FFF747FFBDE839
:100FF000F8832DE9F84305460C4616461F46DDF8F2
:101000002080B8F1000F39D14EF67D700090A819FC
:1010100082B2234621462846FFF730FF42F665108C
:1010200004F1010CBC441FFA8CF305EB060CACF187
:10103000010C1FFA8CF204F1010C1FFA8CF105EB84
:10104000060CACF1010C00901FFA8CF0FFF716FFB4
:1010500042F665100090E01983B2A81982B2E01937
:1010600081B22846FFF70AFF4EF67D700090E01926
:1010700083B22A4621462846FFF700FFB8F1010F48
:1010800039D142F665100090A81982B22346214654
:101090002846FFF7F3FE4EF67D7004F1010CBC44C8
:1010A0001FFA8CF305EB060CACF1010C1FFA8CF265
:1010B00004F1010C1FFA8CF105EB060CACF1010CEC
:1010C00000901FFA8CF0FFF7D9FE4EF67D7000906D
:1010D000E01983B2A81982B2E01981B22846FFF75D
:1010E000CDFE42F665100090E01983B22A462146F3
:1010F0002846FFF7C3FEB8F1020F39D14FF6FF7053
:101100000090A81982B2234621462846FFF7B6FE72
:101110004FF6FF7004F1010CBC441FFA8CF305EB91
:10112000060CACF1010C1FFA8CF204F1010C1FFA51
:101130008CF105EB060CACF1010C00901FFA8CF061
:10114000FFF79CFE4FF6FF700090E01983B2A819DC
:1011500082B2E01981B22846FFF790FE4FF6FF7089
:101160000090E01983B22A4621462846FFF786FE02
:10117000BDE8F883F8B504460D4616461F4644F20E
:1011800008202B463246294600902046FFF776FE7F
:1011900048F210406A1C93B291B2621C009090B267
:1011A0003246FFF76BFE44F208203B4622462946B2
:1011B00000902046FFF762FE48F21040631C9AB28E
:1011C0006B1C99B2631C009098B23B46FFF756FE29
:1011D0004FF6FF703B463246394600902046FFF7F7
:1011E0004DFE4FF6FF703B46324629460090304692
:1011F000FFF744FEF8BDF8B506460F4614461D46F7
:101200004FF6FF703B462246394600903046FFF7C6
:1012100035FE4FF6FF702B46324639460090304679
:10122000FFF72CFE48F210406A1E93B291B2721C76
:10123000009090B22246FFF721FE44F208202B4690
:101240002246294600903046FFF718FE48F210402B
:10125000631E9AB27B1C99B2631E009098B22B4613
:10126000FFF70CFE44F208202B4622463946009038
:101270002046FFF703FEF8BD2DE9F04F8DB007467D
:10128000884616469B4600200C9082460B902021F3
:1012900003A803F072FE102002900190802F02DA62
:1012A000B8F1800F02DB0DB0BDE8F08F3078A128D7
:1012B00002DB7078A02800DAF5E771783078A13881
:1012C00000EB400001EB4010A03840010B900B9860
:1012D00000F50051202203A8FFF706FC002433E0AC
:1012E00000252EE005EB440003A9085C0C904FF0AC
:1012F000800A4FF0000920E00C9800EA0A0000285C
:101300000ADD08EB040291B207EBC5024A4490B231
:101310005A4600F0C6FB09E008EB040291B207EB65
:10132000C5024A4490B2169A00F0BBFB50460AEB45
:10133000D071C1F3470A09F10109B9F1080FDBDBEC
:101340006D1C022DCEDB641C01988442C8DB00BFFB
:10135000A9E72DE9F04F87B005460E46904699461D
:101360004FF0000BDA4698F8000020380001069094
:101370000020029003900490059008200190102016
:101380000090802D01DA802E02DB07B0BDE8F08FDF
:10139000069800F58051102202A8FFF7A5FB002453
:1013A0001FE002A810F804B04FF0800A002714E0F4
:1013B0000BEA0A0038B1321991B2EA1990B24A46E2
:1013C00000F06FFB06E0321991B2EA1990B2109A60
:1013D00000F067FB4FEA5A0A7F1C01988742E7DB5F
:1013E000641C00988442DCDB00BFCEE72DE9F843A3
:1013F00004460E4690461F46089DA14619E02878EF
:1014000080280BDAF1B2E0B243462A460097FFF794
:10141000A0FF04F1080084B26D1C0AE0F1B2E0B252
:1014200043462A460097FFF727FFAD1C04F1100042
:1014300084B228780028E2D1BDE8F8832DE9FF4F77
:1014400083B005460F469A464FF0000800200190F1
:1014500002900090834600248146002635E01098D3
:1014600010F80900203800F0FF0B0BEB4B004FEA9F
:1014700040084146062201A8FFF736FB00241CE085
:1014800001A8005D0090002613E0009800F0010024
:1014900028B1B9192819059A00F003FB04E0B9191D
:1014A0002819524600F0FDFA009840100090701C78
:1014B000C6B2082EE9DB601CC4B2062CE0DBA81D16
:1014C000C5B209F1010000F0FF09109810F80900F9
:1014D0000028C4D107B0BDE8F08F2DE9FF4F8BB0D5
:1014E00007460E469A464FF0000BD94600200A9058
:1014F000202102A803F041FD102001900090802FD0
:1015000002DB0FB0BDE8F08F3078A12802DB7078E5
:10151000A02802DA6B480A9009E071783078A13887
:1015200000EB400001EB4010A03840010A900A98FF
:1015300000F50051202202A8FFF7D6FA00252EE080
:10154000002429E004EB450002A911F800B04FF097
:1015500080094FF000081BE00BEA0900002808DDB5
:1015600007EBC40101EB080029460D9A00F0B4FA1C
:1015700007E007EBC40101EB08005246294600F0E2
:10158000ABFA484609EBD071C1F3470908F10108ED
:10159000B8F1080FE0DB641C022CD3DB6D1C009853
:1015A0008542CDDB00BFACE72DE9FF4F87B0054694
:1015B0000F4698464FF0000AD146387820384FEA57
:1015C000001B0020039004900590069008200290D4
:1015D00010200190802D02DB0BB0BDE8F08F0BF5E1
:1015E0008051102203A8FFF77FFA00241BE003A814
:1015F00010F804A04FF08009002610E00AEA090064
:1016000028B1A8192146099A00F066FA04E0A81941
:101610004246214600F060FA4FEA5909761C0298CA
:101620008642EBDB641C01988442E0DB00BFD3E719
:101630002DE9F05F0746894692461C460025AB46D9
:10164000082F01DDBDE8F09F17E0207880280ADA36
:10165000E8B253464A462146FFF7A6FF05F10800C7
:1016600085B2641C09E0E8B253464A462146FFF7BA
:1016700034FFA41C05F1100085B220780028E4D1C5
:10168000002610E005F0FF0808E0524631464046CB
:1016900000F022FA08F1010000F0FF08B8F1800F15
:1016A000F3DB701CC6B2102EECDB781E4FF6FF7118
:1016B00001EA001B0BF1100081B2584600F025FA38
:1016C00000BFBFE76093020008B50121182002F0B7
:1016D000F1FD4FF48070ADF8000003208DF802009A
:1016E00010208DF803006946F94802F027FB42F20A
:1016F0000310ADF8000003208DF8020010208DF8D3
:1017000003006946F34802F019FB08BD00210821D7
:1017100013E000F0800222B14FF40052ED4B1A6149
:1017200003E04FF40052EB4B5A610122E94B5A613E
:101730001A614206100E4A1ED1B20029E9DC704738
:1017400010B504464FF48070E1491431086020461A
:10175000FFF7DCFF10BD10B504464FF48070DC4984
:10176000103108602046FFF7D1FF10BD10B50446C8
:101770004FF48070D649103108602012FFF7C6FF81
:10178000E0B2FFF7C3FF10BD30B505460C46284652
:10179000FFF7D6FF2046FFF7DEFF30BD10B5022071
:1017A000CC494861642002F08AF80220C9490861E6
:1017B000322002F084F810BD7047F0B504460D46A3
:1017C00016461F462A20FFF7BBFF0020FFF7C3FF86
:1017D000A11CC8B2FFF7BFFF0020FFF7BCFFB11C80
:1017E000C8B2FFF7B8FF2B20FFF7AAFF0020FFF7D2
:1017F000B2FFA91CC8B2FFF7AEFF0020FFF7ABFF96
:10180000B91CC8B2FFF7A7FF2C20FFF799FFF0BD66
:1018100070B506467F231A4600210846FFF7CDFF24
:101820002C20FFF78DFF002408E0002503E0304660
:10183000FFF79CFF6D1C802DF9D3641C802CF4D322
:1018400070BD002804DD4FF48071A24A116103E0ED
:101850004FF480719F4A5161704710B5FFF734FF14
:10186000FFF79CFF0120FFF7ECFF1120FFF768FF57
:10187000782002F024F8B120FFF762FF0120FFF783
:101880006AFF2C20FFF767FF2D20FFF764FFB220CF
:10189000FFF756FF0120FFF75EFF2C20FFF75BFFED
:1018A0002D20FFF758FFB320FFF74AFF0120FFF775
:1018B00052FF2C20FFF74FFF2D20FFF74CFF012098
:1018C000FFF749FF2C20FFF746FF2D20FFF743FFCE
:1018D000B420FFF735FF0720FFF73DFFC020FFF7DB
:1018E0002FFFA220FFF737FF0220FFF734FF8420ED
:1018F000FFF731FFC120FFF723FFC520FFF72BFFC4
:10190000C220FFF71DFF0A20FFF725FF0020FFF789
:1019100022FFC320FFF714FF8A20FFF71CFF2A20B5
:10192000FFF719FFC420FFF70BFF8A20FFF713FF13
:10193000EE20FFF710FFC520FFF702FF0E20FFF794
:101940000AFF3620FFF7FCFEC820FFF704FFE02067
:10195000FFF7F6FE0F20FFF7FEFE1A20FFF7FBFE53
:101960000F20FFF7F8FE1820FFF7F5FE2F20FFF7F6
:10197000F2FE2820FFF7EFFE2020FFF7ECFE2220EA
:10198000FFF7E9FE1F20FFF7E6FE1B20FFF7E3FE4F
:101990002320FFF7E0FE3720FFF7DDFE0020FFF7F2
:1019A000DAFE0720FFF7D7FE0220FFF7D4FE102053
:1019B000FFF7D1FEE120FFF7C3FE0F20FFF7CBFEBC
:1019C0001B20FFF7C8FE0F20FFF7C5FE1720FFF70B
:1019D000C2FE3320FFF7BFFE2C20FFF7BCFE2920FC
:1019E000FFF7B9FE2E20FFF7B6FE3020FFF7B3FE5B
:1019F0003020FFF7B0FE3920FFF7ADFE3F20FFF7A4
:101A0000AAFE0020FFF7A7FE0720FFF7A4FE032091
:101A1000FFF7A1FE1020FFF79EFE2A20FFF790FEA1
:101A20000020FFF798FE0020FFF795FE0020FFF74B
:101A300092FE7F20FFF78FFE2B20FFF781FE002014
:101A4000FFF789FE0020FFF786FE0020FFF783FEE8
:101A50009F20FFF780FEF020FFF772FE0120FFF7C6
:101A60007AFEF620FFF76CFE0020FFF774FE3A20A6
:101A7000FFF766FE0520FFF76EFE2920FFF760FEE8
:101A80004FF6FF70FFF7C4FEFFF796FE10BD30B5AE
:101A900004460D462B46224629462046FFF78DFE7A
:101AA00030BD70B504460D461646802C00DB70BD77
:101AB000802D00DBFBE7681C83B2601C82B22946E4
:101AC0002046FFF77AFE3046FFF750FE00BFEEE7F4
:101AD000000C014000100140802800DB70471029F5
:101AE00000DBFBE72C4B03EB012323F8102000BFA6
:101AF000F4E760B505460E4631462846FFF7C7FFB6
:101B0000E0B2FFF728FE204660BDF0B505460E4660
:101B1000802D01DC802E00DDF0BD33467F2229467A
:101B20000020FFF74AFE2C20FFF70AFE00240CE0FD
:101B3000002707E0184901EB042131F81700FFF7EF
:101B400015FE7F1C802FF5D3641C102CF0D300BF32
:101B5000E2E72DE9F04704460D4616461F46DDF83C
:101B600020A03B46324629462046FFF726FE2C2081
:101B7000FFF7E6FDA0460AE0A94604E05046FFF75D
:101B8000F5FD09F10109B945F8D308F10108B0459F
:101B9000F2D3BDE8F0870000A010002008B50121B5
:101BA000082002F087FB0220ADF8000010208DF81D
:101BB000030003208DF8020069460E4802F0BEF8CB
:101BC00002210C4802F067F908BD002803DD00215E
:101BD000094A116002E00121074A1160704710B5FF
:101BE0000120FFF7F2FF642001F069FE0020FFF7FB
:101BF000ECFF10BD000C0140848121420FB410B5F0
:101C0000ADF5027D00244FF4007102A803F0B5F990
:101C100085A8019002A8019A849902F03BFF002058
:101C2000019002A803F023F90446214602A801F01E
:101C3000EBFE0DF5027D10BC5DF814FB70B504469B
:101C40000D462146FAA0FFF7D9FF70BD10B5044636
:101C5000204601F034FE10BD10B500BF0021F7484A
:101C6000A0F83A1790F83807401CC1B2F34880F842
:101C7000381790F83807142803DB0021EF4880F864
:101C80003817EE4890F8384704EB4401C1EBC41212
:101C9000A0F5005101EB82004FF4FA7103F04BF90B
:101CA0000021E74820F8141010BD70B50446E34841
:101CB00090F83857E24830F81560B6F5FA7F02DB45
:101CC000FFF7CAFF25E005EB4500C0EBC511DD4875
:101CD00000EB81008455D948B0F83A07401C81B226
:101CE000D648A0F83A17D64830F81500401C81B203
:101CF000D34820F8151026B93E2C02D1FFF7ACFFCF
:101D000007E0D14800780D2803D10A2C01D1FFF754
:101D1000A3FFCD48047070BD70B506464FF4FA714C
:101D2000304603F008F9C54890F8391790F838079D
:101D3000814235D1C14890F83907C44909788842B1
:101D400015D1BF48C149097830F8110000280EDDCF
:101D5000BB48BE49097830F81100BD49098888425E
:101D600005D1BC480078401CBA4908700DE0B34862
:101D700090F83907B5490870B148097830F8110072
:101D8000B34908800020B3490870B248007803289E
:101D900004DDFFF761FFB0A0FFF730FF002070BD4A
:101DA00000BFA64890F83947A54830F8145004EB16
:101DB0004400C0EBC412A34800EB82012A4630461F
:101DC00003F074F804EB4400C0EBC4129D4800EB30
:101DD00082039A4890F839172A46A6A0FFF70EFF0B
:101DE00004EB4401C1EBC412964901EB82004FF4AD
:101DF000FA7103F0A0F80021914820F814108F48E0
:101E000090F83907401CC1B28C4880F8391790F817
:101E10003907142803DB0021884880F8391700208F
:101E20008A4908708A4908808A4908702846B6E7B6
:101E30000FB410B5ADF5027D00244FF4007102A877
:101E400003F09BF885A8019002A8019A849902F0FA
:101E500021FE0020019002A803F009F80446214663
:101E600002A801F063FE0DF5027D10BC5DF814FBC5
:101E700070B50446002504B970BD204602F0F7FF96
:101E800085B22946204601F051FE21467DA0FFF78C
:101E9000B5FE00BFF0E700B5B1B0202129A803F0DE
:101EA0006CF8402119A803F068F86421684603F033
:101EB00064F801208DF80000202275490DF1010021
:101EC00002F0F4FF4022724920310DF1210002F0AE
:101ED000EDFF61224FF448216846FEF79DFE31B0C8
:101EE00000BD2DE9F04706460D464FF000080024DE
:101EF00016B90020BDE8F0876548801E00780128EB
:101F00005CD164A1304602F0A0FF0446ECB100278A
:101F1000641D20215E4803F00EF805E021785C483E
:101F2000C155641C781CC7B2202F08DA3CB1207858
:101F300028B120780D2802D020780A28EED1544903
:101F400056A002F0B9FD0120D4E757A1304602F0B7
:101F50007CFF044604B30027093440214C4820305C
:101F600002F0E9FF06E0217849482030C155641CA1
:101F7000781CC7B2402F08DA3CB1207828B120780D
:101F80000D2802D020780A28EDD14149203149A0FE
:101F900002F092FD0120ADE74BA1304602F055FF63
:101FA00004464CB101203A49891E4870022008704D
:101FB000FFF771FF01209DE701209BE745A1304617
:101FC00002F043FF0446B4B10027641E204602F02D
:101FD0002FFFC7B22246394640A002F06DFD042F04
:101FE00003DAFF214148C15502E041A002F064FD3F
:101FF0004FF0010800BF48A1304602F026FF04461A
:1020000034B100202249891E81F82A014FF00108CD
:1020100043A1304602F019FF044644B10027641E74
:10202000204602F005FFC7B2224639467EE08DE029
:102030000D0A52583A25732E0D0A0000E043002085
:10204000F04A0020E02300201600002017000020A6
:10205000180000201A0000202A2A2A2A2A2A2A6385
:1020600068616E67654C696E652A2A2A2A2A2A2ABF
:102070000D0A00005B25645D2C5B25645D2C2573D7
:102080000000000041543E3E3E3A25730D0A000018
:10209000A2200020737369643A00000073736964BE
:1020A0003D222573220D0A0070617373776F72648D
:1020B0003A0000007374615F70617373776F7264CC
:1020C0003D222573220D0A005749464920474F54A7
:1020D000204950002C434C4F534544003169643D26
:1020E00025642C25732E0D0A00000000E421002039
:1020F0006572726F7221216572726F722121657231
:10210000726F7221216572726F7221216572726F16
:102110007221210D0A000000434C4F53454400003A
:102120002C434F4E4E45435400000000FDA002F0EA
:10213000C3FC042F03DA79B2FE48C15503E0AFF2C5
:10214000500002F0B9FC4FF0010800BFFAA1304680
:1021500002F07BFE04462CB10020FC4981F82A01E4
:102160004FF00108FAA1304602F06FFE0446002C41
:1021700067D00027B946641D0CB90020BAE6F348C1
:1021800090F8290101280BD1204602F051FE00F001
:10219000FF0900E0641C14B120782C28FAD1641CDB
:1021A000204602F045FEE949A1F83C0300E0641C2A
:1021B00014B120783A28FAD1641C4FF4FA71DD4842
:1021C000001D02F0B8FE0020E049A1F83E030EE039
:1021D0002178DE48B0F83E2300F5A4708154641CD9
:1021E000DA48B0F83E03401CD849A1F83E03D7486E
:1021F000B0F83E03B0F5FA7F0BDAD448B0F83E03EE
:10220000D249B1F83C13884203DA14B1A01BA842AA
:10221000DED9CE48B0F83E03CC49B1F83C13884231
:102220000CDBCA48B0F83E1300F5A470FFF706FDBA
:102230000020C649A1F83E03A1F83C034FF0010875
:1022400000BFB8F1000F01DD012053E6BF48B0F830
:102250003E03BE49B1F83C1388423DDABB48B0F8B2
:102260003E03801C2844B0F5FA7F20D8B748B0F868
:102270003E1300F5A4700844AFF2442109880180A0
:10228000B248B0F83E03801CB049A1F83E03B1F853
:102290003E2301F5A47150182A46314602F006FE8D
:1022A000AA48B0F83E032844A849A1F83E03A7482D
:1022B000B0F83E03A549B1F83C1388420CDBA348B3
:1022C000B0F83E1300F5A470FFF7B8FC00209F495A
:1022D000A1F83E03A1F83C0340460BE62DE9F0418E
:1022E00005460E460027B84615B90020BDE8F08126
:1022F0002846FFF7BDFD0EB90020F7E70027B846D6
:102300002AE03220FFF7A2FC9348FFF705FD0446C0
:10231000B4B192A1904802F098FD08B101270FE0F6
:102320008FA18D4802F091FD20B98FA18A4802F05B
:102330008CFD08B1032703E021468748FFF7D1FD54
:1023400008F1010000F0FF08002F00DD05E0B8F102
:10235000640F01DD022700E0D3E700BF294684A017
:10236000FFF74CFC3846C1E710B58CB0044630216D
:10237000684602F002FE224680A1684602F0A8FBF1
:1023800001216846FFF7AAFF012804D16F48447075
:1023900001200CB010BD0020FBE770B5B4B00546BD
:1023A0000E461446C82102A802F0E7FD67484078AF
:1023B000012803D065484078032816D13CB1334644
:1023C0002A4672A102A8009402F082FB05E033467F
:1023D0002A4676A102A802F07BFB012102A8FFF7A2
:1023E0007DFF012801D134B070BD0020FBE7F0B5BE
:1023F000B5B004460D4616461F46C82103A802F094
:10240000BCFD52484078022803D050484078032849
:102410000FD12B4622466CA103A8CDE9006702F03C
:1024200057FB012103A8FFF759FF012801D135B05F
:10243000F0BD0020FBE710B5B2B00446C8216846E5
:1024400002F09BFD1CB1204602F011FD10B90020E6
:1024500032B010BD224665A1684602F039FB012169
:102460006846FFF73BFF0020F2E710B5B2B0044624
:10247000C821684602F081FD1CB1204602F0F7FC3D
:1024800010B9002032B010BD22465DA1684602F0AE
:102490001FFB01216846FFF721FF0020F2E708B586
:1024A0000121102001F006FF0420ADF800001020EB
:1024B0008DF8030003208DF802006946564801F0AC
:1024C0003DFC0421544801F0E6FC4FF4FA70FFF79C
:1024D000BDFB0421504801F0E0FC4FF4FA70FFF717
:1024E000B5FB04214C4801F0D6FC4CA0FFF786FB5D
:1024F00008BD00B5B3B0C82101A802F03EFDFFF74A
:10250000CEFF01214AA0FFF7E9FE0120FFF72CFFD3
:1025100049A101A802F0DCFA012101A8FFF7DEFEC3
:10252000012093E03269643D25642C25732E0D0A49
:1025300000000000E42100206C696E6B20697320AC
:102540006E6F742076616C6964000000A02000202A
:102550002B4950442C0000001E4B00204F4B000024
:102560004552524F520000004641494C00000000C5
:10257000454E442041543A257300000041542B43FA
:10258000574D4F44453D25640D0A000041542B43EF
:10259000574A41505F4445463D222573222C22254F
:1025A00073222C222573220D0A00000041542B4374
:1025B000574A41505F4445463D222573222C22252F
:1025C00073220D0A0000000041542B435753415021
:1025D0005F4445463D222573222C222573222C255B
:1025E000642C25642C340D0A0000000041542B4358
:1025F000495041505F4445463D222573220D0A0053
:1026000041542B4349505354415F4445463D222594
:1026100073220D0A00000000001001400D0A6573CE
:1026200070383236362072657365740D0A0000000A
:10263000415445300D0A000041542B435753544137
:102640005254534D4152543D310D0A00FE49087019
:1026500033B000BD00B5B3B0C82101A802F08DFCB5
:10266000FAA101A802F034FA012101A8FFF736FE11
:102670000020F549087033B000BD2DE9F0418CB061
:10268000002464253021684602F077FC0027A0462C
:10269000F3A1684602F01CFA00216846FFF71EFE0F
:1026A0004FF47A7597E00A20FFF7D0FAEF48FFF76A
:1026B00033FB0746002F75DDEDA1EC4802F0C5FBAA
:1026C0000446ACB10026E41D1421DF48623002F05C
:1026D00032FC06E02178DC4862308155641C701CB5
:1026E000C6B2142E03DA14B120782228F2D172E097
:1026F000E1A1DE4802F0A9FB0446ACB10026083493
:102700001E21D148763002F016FC06E02178CE4832
:1027100076308155641C701CC6B21E2E03DA14B1CB
:1027200020782228F2D156E0D5A1D04802F08DFBC6
:102730000446ACB10026A41D1421C348F73002F0B2
:10274000FAFB06E02178C048F7308155641C701C04
:10275000C6B2142E03DA14B120782228F2D13AE05E
:10276000C9A1C24802F071FB04469CB10026E41DD9
:102770001E21C74802F0DFFB05E02178C4488155DF
:10278000641C701CC6B21E2E03DA14B120782228F5
:10279000F3D120E0AFF23C21B44802F056FB10B177
:1027A0004FF0010812E0AFF24821B04802F04DFBB3
:1027B00028B9AFF24C21AD4802F047FB10B14FF001
:1027C000030803E03946A948FFF78BFBB8F1000F77
:1027D00000DD05E000BF681E80B2051E3FF763AF55
:1027E00000BF2946ABA0FFF709FA1DB902200CB0C3
:1027F000BDE8F0814046FAE730B5B3B004460D4677
:10280000C82101A802F0B9FB2B462246A5A101A8C8
:1028100002F05EF9012101A8FFF760FD33B030BD81
:1028200030B5B3B004460D46C82101A802F0A5FB9F
:10283000012C0ED10121A1A0FFF750FD2A46A3A132
:1028400001A802F045F9012101A8FFF747FD33B0C7
:1028500030BDA3A101A802F03BF9012101A8FFF7B7
:102860003DFD0020F3E730B5B3B004460D46C82166
:1028700001A802F082FB01219EA0FFF72FFD2B464D
:102880002246A0A101A802F023F9012101A8FFF727
:1028900025FD33B030BD30B5B3B004460D46C82178
:1028A00001A802F06AFB012192A0FFF717FD142096
:1028B0002B4622469AA1009001A802F009F90121B5
:1028C00001A8FFF70BFD33B030BD2DE9F0410546FF
:1028D000002400265C48763002F0C9FA074600BFA3
:1028E0000AE059487630005D3A2804D056487630E0
:1028F000005DA855761C641CBC42F2DBBDE8F0818B
:1029000010B5514890F82901012809D14E48B0F876
:1029100042110120FFF784FF012821D1002010BDC2
:10292000494890F8290102280AD14748B0F84011D7
:1029300000F22B10FFF797FF012811D10020EEE7DE
:10294000414890F8290103280AD13F48B0F84011C6
:1029500000F22B10FFF79FFF012801D10020DEE7D6
:102960000120DCE710B54148FFF7D6F90446002CFA
:1029700003DD21463D48FFF7B4FA002010BD2DE9E4
:10298000F04706460027B8460024A146002500BFB0
:102990003648FFF7C1F981462B4890F82A0110B953
:1029A0000020BDE8F087B9F1000F24DD63A12F48B6
:1029B00002F04BFA0446F4B1201D02F039FA074642
:1029C000AFF62C11204602F040FA04469CB1641C7C
:1029D000A04625A002F070F8002505E018F80510C3
:1029E00058A002F069F86D1CBD42F7DB1EA002F092
:1029F00063F82046D5E70520FFF728F9301EA6F139
:102A000001018EB2C4D100BFCBE72DE9F0418EB0F9
:102A100080460F466425302102A802F0AEFA002459
:102A20000026394649A002F047F8074890F82A01E5
:102A300040B94CA002F040F8FFF762FF002802DD29
:102A400000209BE0A1E09CE0A020002041542B430B
:102A50005753544F50534D4152540D0A000000003B
:102A600041542B43494653520D0A00001E4B00208F
:102A700053544149500000005354414D414300001C
:102A8000415049500000000041504D4143000000BA
:102A9000AB2100200D0A74727974696D653D25645F
:102AA0002E0D0A0041542B4357444843505F444580
:102AB000463D25642C25640D0A00000041542B433B
:102AC00049504D55583D310D0A00000041542B43EB
:102AD00049505345525645523D312C25640D0A004C
:102AE00041542B4349505345525645523D300D0AEF
:102AF0000000000041542B4349504D55583D300DC6
:102B00000A00000041542B43495053544152543D54
:102B100022544350222C222573222C25640D0A00B6
:102B200041542B43495053544152543D2255445033
:102B3000222C222573222C25640D0A004950442C96
:102B400000000000253032782C000000455350383A
:102B50003236365F53656E6444617461282564299A
:102B60002E0D0A00657370383236362E6973436F46
:102B70006E6E6563743D302E0D0A00000EB0BDE828
:102B8000F0810120F64981F82A01F54890F82901E1
:102B9000012877D1F24890F947010090F04890F968
:102BA000463190F9452190F94411EEA001F084FFDF
:102BB000002674E0F6488057401C18B1F44880574E
:102BC000032800DD69E0F24882573B46F1A102A8E4
:102BD00001F07EFF002102A8FFF780FB4FF47A7519
:102BE0001CE00A20FFF732F8EF48FFF795F804469B
:102BF000012C04D1EC4800783E2800D112E0002CD2
:102C000004DD2146E848FFF76CF907E0D44890F866
:102C10002A0118B900200EB0BDE8F081681E80B20C
:102C2000051EDEDC00BF2946E0A0FEF7E7FF002D11
:102C300032DD3946404600F079FF4FF47A7526E0E0
:102C40000A20FFF703F8D848FFF766F80446C4489F
:102C500090F82A0108B90020DDE7002C17DDD7A184
:102C6000D14802F0F2F818B1D6A0FEF7C7FF12E083
:102C7000AFF21471CC4802F0E8F820B1D6A0FEF70C
:102C8000BDFF08E011E02146C748FFF72AF9681E9A
:102C900080B2051ED4DC00BF00BF701CC6B2042E7B
:102CA00088DBD2A001F008FF70E03A46D3A102A869
:102CB00001F00EFF002102A8FFF710FB4FF47A7518
:102CC0001AE00A20FEF7C2FFB748FFF725F80446CE
:102CD000012C04D1B44800783E2800D110E0002C2B
:102CE00004DD2146B048FFF7FCF805E09C4890F869
:102CF0002A0108B900208EE7681E80B2051EE0DCBC
:102D000000BF2946A9A0FEF779FF002D3EDD414610
:102D1000BEA0FEF773FF3946404600F007FF4FF4B0
:102D20007A752FE00A20FEF791FF9F48FEF7F4FF27
:102D300004468B4890F82A0108B900206BE7002C64
:102D40001FDD9EA1984802F080F820B19DA0FEF7FB
:102D500055FF01205FE7AFF2F871934802F075F874
:102D600020B19DA0FEF74AFF002054E7012C04D1BA
:102D70008D480078202800D104E021468A48FFF7DA
:102D8000B0F800BF681E80B2051ECBDC002042E711
:102D900000B5B3B0C82101A802F0EFF89EA101A8C8
:102DA00001F096FE012101A8FFF798FA33B000BDAB
:102DB0002DE9F04106460D4617461C464FF0000827
:102DC00014216748623002F0B6F8142170484D387B
:102DD00002F0B1F8012E1FD10120614948702DB1D8
:102DE0002A4691A15E48801C01F072FE2FB13A463E
:102DF0008DA15B48223001F06BFE2CB122468AA1E6
:102E00005748623001F064FE554A2232A2F1200197
:102E100086A0FEF7F3FE21E00520514981F8F50078
:102E2000022081F8F60048702A467FA14C48953070
:102E300001F04EFE3A467CA155488F3801F048FE1D
:102E40002CB1224678A152484D3801F041FE504A3B
:102E50008F3AA2F120017BA0FEF7D0FE002040496E
:102E60000870FFF71CFB0121AFF63C00FFF736FAB4
:102E70003B484078022803D039484078032811D1D4
:102E800037494878FFF770FA354890F8F63090F8EF
:102E9000F52000F1B5019530FFF7A9FA3C484D380F
:102EA000FFF7C9FA2E484078012803D02C48407813
:102EB00003280ED12A494878FFF756FA00222849FC
:102EC0002231A1F12000FFF768FA25486230FFF7B0
:102ED000CCFA234948780121FFF78EFC01215FA03D
:102EE000FFF7FCF90020BDE8F0812DE9F041044630
:102EF0000F4615461E464FF000081948A0F84271CB
:102F00000020174981F82A01FF2081F84401FF21A0
:102F1000134880F8451180F8461180F847111E21AA
:102F2000763002F008F800200D49A1F83E03A1F820
:102F30003C0314211648193801F0FDFF012C0ED175
:102F40000120074981F829012DB12A4636A11048F0
:102F5000193801F0BDFD0248A0F84061ABE089E0FE
:102F6000A020002069645B305D3D2564A3AC6964EA
:102F70005B315D3D2564A3AC69645B325D3D2564D6
:102F8000A3AC69645B335D3D25640D0A000000005D
:102F9000E421002041542B43495053454E443D25E4
:102FA000642C25640D0A00001E4B00207472797495
:102FB000696D653D25642E0D0A00000053454E44A1
:102FC000204F4B0053656E6444617461204F4B2168
:102FD000212E0D0A0000000053656E644461746187
:102FE00020656E64322E0D0A00000000656E6420BC
:102FF0007463702073656E642E0D0A0041542B4378
:10300000495053454E443D25640D0A0053656E6496
:103010003A25732E0D0A000041542B434950434C6E
:103020004F53450D0A000000257300000D0A53544C
:103030004120737369643A25732C207073773A25A5
:10304000730D0A000D0A415020737369643A2573A9
:103050002C207073773A25730D0A000041542B43DE
:10306000574C41504F50543D312C323034370D0ABB
:1030700000000000022C0ED10220614981F82901D4
:103080002DB12A46AFF260015E4801F021FD5C4897
:10309000A0F840610FE0032C0DD10320584981F8BE
:1030A00029012DB12A46AFF28001564801F010FDEA
:1030B0005348A0F840615248B0F8403190F82911C7
:1030C000504A51A0FEF79AFD0020BDE8F0812DE99D
:1030D000F041B2B000246426C821684601F04DFFDB
:1030E000002500274648407801285BD1444A921CBD
:1030F0004EA1684601F0ECFC00216846FFF7EEF8AF
:103100004FF47A7649E00A20FEF7A0FD4B48FEF71F
:1031100003FE0546002D3CDD49A1484801F095FE1F
:103120000446E4B14FF00008E41D0020344981F862
:10313000940045A1204601F088FE044644B1A41C39
:1031400034B1204601F074FE40B22D4981F894005C
:103150002B4890F994103DA0FEF750FD1DE0AFF60E
:103160000441364801F071FE08B1012711E0AFF6C5
:103170001041324801F069FE28B9AFF614412F48DA
:1031800001F063FE08B1032703E029462B48FEF750
:10319000A8FE002F00DD04E000BF701E80B2061EF6
:1031A000B1DC00BF32B0BDE8F08100B5B1B0202184
:1031B00029A801F0E2FE402119A801F0DEFE6421F9
:1031C000684601F0DAFE61224FF448216846FDF7B7
:1031D0008BFC9DF80000012810D120220DF1010187
:1031E0000748801C01F062FE40220DF121010448D5
:1031F000223001F05BFE012031B000BD0020FBE772
:10320000A0200020CB2100200D0A636F6E6E656345
:10321000744D6F64653A25642C2069703A25732CCF
:1032200020706F72743A25640D0A000041542B43DC
:10323000574C41503D222573220D0A001E4B0020A1
:103240002B43574C41503A00222C00007273736993
:103250003A25642E0D0A000010B5044603E04FF431
:103260007A7000F008FB201EA4F101018CB2F6D1A7
:1032700010BD10B5052000F0FEFA052000F0FBFAA5
:10328000052000F0F8FA10BD10B50A2000F0F3FA9E
:1032900010BD10B50446A0B2FFF7DEFF10BD10B59B
:1032A000FE48006820F07040FC490860084600684D
:1032B00040F0405008600846006820F070600860E8
:1032C0000846006840F0407008600120F44908603A
:1032D000F449C1F89801FFF7CCFF0020F0490860DD
:1032E000FFF7C7FF0020EF49C1F8980110BD10B5E6
:1032F000EA48006820F07040E84908600846006825
:1033000040F0405008600020E54908600120E54990
:10331000C1F89801FFF7ADFF0120E1490860FFF710
:10332000A8FF10BD10B50446DC48006820F07040CE
:10333000DA4908600846006840F040500860002CF8
:1033400003DD0120D649086002E00020D44908606E
:103350000120D349091F0860FFF78BFF0020D149E6
:10336000C1F89801FFF785FF10BD10B50024CB48C8
:10337000006820F07040C94908600846006840F0C5
:10338000004008600120C649091F0860FFF771FF6F
:10339000C448D0F81C0108B1012000E00020044618
:1033A0000020BF49091F0860FFF763FF204610BDDA
:1033B00070B50546B948006820F07040B74908600C
:1033C0000846006840F04050086080241CE005EA90
:1033D000040018B10120B249086002E00020B049A1
:1033E0000860FFF746FF0120AD49091F0860FFF79D
:1033F00040FF0020AB49C1F89801FFF73AFF204693
:1034000004EBD071C1F34704002CE0DC0120A44997
:103410000860FFF7AAFF70BD70B500249F480068E0
:1034200020F070409D4908600846006840F0004068
:10343000086001209A490860002517E06006040E24
:1034400001209749091F0860FFF713FF9548D0F83E
:103450001C0108B1012000E0002004430020904935
:10346000091F0860FFF705FF681CC5B2082DE5DBE2
:10347000204670BD70B50446FFF711FFEE20FFF740
:1034800097FF2046FFF794FFFFF709FFEF20FFF7B4
:103490008FFFFFF7C1FF05460120FFF743FFFFF74E
:1034A00026FF284670BD2DE9F0410546FFF7F7FEDF
:1034B000EE20FFF77DFF2846FFF77AFFFFF7EFFECC
:1034C000EF20FFF775FFFFF7A7FF06460020FFF785
:1034D00029FFFFF7A1FF07460120FFF723FFFFF7B2
:1034E00006FF0520FFF7D5FE34023C432046BDE829
:1034F000F08110B5FFF7D3FEEE20FFF759FFF4205F
:10350000FFF756FF2E20FFF753FFFFF7F0FE0520D1
:10351000FFF7BFFEF620FFF7C6FF10BD10B5002471
:10352000FFF7BDFEEE20FFF743FFF420FFF740FF5B
:10353000B420FFF73DFFFFF7DAFE0A20FFF7A9FEF0
:10354000F620FFF7B0FF0446F820FFF793FF00EBEB
:1035500004208411204610BD08B50121082000F088
:10356000A9FEC020ADF8000010208DF80300032054
:103570008DF8020069464948001F00F0DFFBC021BA
:103580004648001F00F087FC08BD10B5FFF7E4FFB8
:10359000D020FFF76FFF552847D10120424908701E
:1035A000AA20FFF780FF00B23F494880AC20FFF718
:1035B0007AFF01B23C488180AE20FFF774FF01B270
:1035C0003948C180B020FFF76EFF37490881B2202B
:1035D000FFF769FF34494881B420FFF764FF32499F
:1035E0008881B620FFF75FFF01B22F48C181B82064
:1035F000FFF759FF01B22C480182BA20FFF753FFB1
:1036000001B229484182BC20FFF74DFF01B2264894
:103610008182BE20FFF747FF01B22348C182D1203B
:10362000FFF728FF2049087602E000201E490870B5
:1036300010BD2DE9F04F8DB0FFF75BFF1A49C8614F
:10364000FFF76CFF184908620846C1698089081AAB
:10365000154949894843C4131348B0F91400C102FD
:103660001148B0F91600204491FBF0F504EB050970
:1036700009F1080000110C494862A9F57A6708466B
:10368000B0F9100007FB07F109134843C4120648BC
:10369000B0F904007843C51208E00000040C0140B2
:1036A0009C81214200802142144D002004EB050A38
:1036B0005A49B1F902100AEB8101022202EB8100A2
:1036C000C11700EB917189100C915448B0F90600B4
:1036D000784344135148B0F90E0007FB07F1091372
:1036E000484305146019801C4FEAA00A4B48008922
:1036F0000AF5004148434FEAD03B4848016A0C981C
:10370000081A43F2D40100FB01F8B8F1004F04D2CB
:103710004FEA4800B0FBFBF602E0B8FBFBF04600C6
:10372000301200FB00F440F6DE30604304143C48E5
:1037300070430514601900F6CF6006EB201037497E
:103740008862886A04F0E2F9019004F0B3F900227B
:10375000344BCDE9020103F0F1FC334A334BCDE9A0
:10376000040102F0BFFE0022314BCDE9060103F057
:10377000C5FF00222F4BCDE9080103F08BFECDE9F8
:103780000A0103F0EDFB2549C8620DB0BDE8F08FDA
:103790002DE9F05F044689469246204800780128CA
:1037A00038D1FFF746FF1D48406A4FF47A7190FB0D
:1037B000F1F201FB1200194948620846806A1E496D
:1037C00090FBF1F201FB120014498862486A04F090
:1037D0009DF9834604F06EF907460022174B03F06B
:1037E000ADFC054603F0BCFB20600C49886A04F080
:1037F0008DF9834604F05EF907460022104B03F072
:103800009DFC054603F0ACFBC9F800000348C06A04
:10381000CAF8000001480078BDE8F09F144D002070
:1038200043E3FFFFD0BCF8406C45D9CC955BC83F63
:103830000000F03F40A5E54040420F00000024405A
:1038400000408F4010B56FF0040000F0F8F92E48EA
:1038500000682E49B0FBF1F02D4908700846007849
:1038600000EB4001C1EBC0104FF6FF7101EAC00050
:103870002849088010BD0146254A12784A434FF076
:10388000E0235A6100229A611A46126942F001024D
:103890001A6100BF4FF0E022106900F001021AB176
:1038A00000F48032002AF5D04FF0E022126922F0B5
:1038B00001024FF0E0231A6100229A61704701462D
:1038C000144A12884A434FF0E0235A6100229A6159
:1038D0001A46126942F001021A6100BF4FF0E0225D
:1038E000106900F001021AB100F48032002AF5D00C
:1038F0004FF0E022126922F001024FF0E0231A613A
:1039000000229A61704700000000002000127A0037
:103910001C0000201E000020014600BF704700BFB1
:103920003F4A128802F04002002AF9D0C2B23C4B52
:103930001B1D1A807047014600BF704710B586B046
:103940000446012144F2040000F0B4FC4FF400707E
:10395000ADF8140003208DF8160018208DF817001C
:1039600005A9304800F0EAF94FF48060ADF8140082
:1039700004208DF8170005A92A4800F0DFF925205A
:103980008DF8000003208DF801008DF80200012061
:103990008DF80300684600F008F901940020ADF8A6
:1039A0000800ADF80A00ADF80C00ADF810000C20CE
:1039B000ADF80E0001A91A4800F023FD012240F2E3
:1039C0002551174800F0B5FD0121154800F0A5FD6F
:1039D00006B010BD10B540F22551114800F08EFE22
:1039E00018B10F4800F00AFEC4B210BD10B504466D
:1039F00021460B4800F0FEFD00BF8021084800F082
:103A000067FE0028F9D010BD70B505460E460024AB
:103A100003E0285DFFF7EAFF641CB442F9D370BDF0
:103A2000003801400008014008B50121082000F0DD
:103A300041FC0220ADF8000010208DF803000320A7
:103A40008DF802006946414800F078F900204049AD
:103A5000086008BD10B586B004460121042000F0BE
:103A600029FC0121480400F032FC0420ADF81400C8
:103A700003208DF8160018208DF8170005A9354889
:103A800000F05CF90820ADF8140004208DF8170050
:103A900005A9304800F052F926208DF800000320D7
:103AA0008DF801008DF8020001208DF803006846B2
:103AB00000F07BF801940020ADF80800ADF80A0092
:103AC000ADF80C00ADF810000C20ADF80E0001A907
:103AD000214800F096FC012240F225511E4800F0DA
:103AE00028FD01211C4800F018FDFFF79DFF06B0DE
:103AF00010BD10B540F22551174800F0FFFD30B160
:103B0000154800F07BFDC4B22046FEF7CEF810BD8C
:103B100010B504462146104800F06CFD00BF80211E
:103B20000D4800F0D5FD0028F9D010BD70B5054650
:103B30000E46002403E0285DFFF7EAFF641CB44250
:103B4000F9D370BD0549086070470000000C0140C2
:103B500084812142000801400044004024000020EC
:103B60000948804709480047FEE7FEE7FEE7FEE711
:103B7000FEE7FEE7FEE7FEE7FEE7FEE7044805494D
:103B8000054A064B70470000230600083101000873
:103B9000A84D0020A8530020A84F0020A84F0020C7
:103BA00031490143314A1160704770B5002100234B
:103BB0000F22C47804B32D4C246804F4E064C4F5E7
:103BC000E064210AC1F10403CA40447804FA03F115
:103BD0008478144021430901254C0678A1550478C6
:103BE00004F01F050124AC4005786D11AD0005F10E
:103BF000E025C5F8004109E0047804F01F05012420
:103C0000AC401C4D0678761145F8264070BD1A4A26
:103C10000A400243154B1B1F1A60704739B1134A03
:103C2000121D12680243114B1B1D1A6006E00F4A59
:103C3000121D126882430D4B1B1D1A607047042829
:103C400008D14FF0E021096941F004014FF0E02272
:103C5000116107E04FF0E021096921F004014FF004
:103C6000E0221161704700000000FA050CED00E051
:103C700000E400E080E100E080FFFF1F10B5044693
:103C8000CC48844208D10121042000F02DFB002102
:103C9000042000F029FB46E0C748844208D10121F6
:103CA000082000F021FB0021082000F01DFB3AE075
:103CB000C248844208D10121102000F015FB0021E8
:103CC000102000F011FB2EE0BD48844208D10121F4
:103CD000202000F009FB0021202000F005FB22E05D
:103CE000B848844208D10121402000F0FDFA0021AB
:103CF000402000F0F9FA16E0B348844208D10121CF
:103D0000802000F0F1FA0021802000F0EDFA0AE0B6
:103D1000AE48844207D10121801500F0E5FA002168
:103D2000A01500F0E1FA10BD10B50121084600F021
:103D3000DBFA0021012000F0D7FA10BD2DE9F04197
:103D4000024600250026002000230024002791F8C9
:103D500003C00CF00F0591F803C00CF0100CBCF17F
:103D6000000F03D091F802C04CEA050591F800C09D
:103D7000BCF1000F31D0146800202BE04FF0010C93
:103D80000CFA00F3B1F800C00CEA03069E4220D101
:103D900083004FF00F0C0CFA03F7BC4305FA03FC49
:103DA0004CEA040491F803C0BCF1280F06D14FF08F
:103DB000010C0CFA00FCC2F814C00AE091F803C030
:103DC000BCF1480F05D14FF0010C0CFA00FCC2F811
:103DD00010C0401C0828D1D31460B1F800C0BCF159
:103DE000FF0F34DD546800202EE000F1080C4FF086
:103DF000010808FA0CF3B1F800C00CEA03069E4271
:103E000021D183004FF00F0C0CFA03F7BC4305FAE5
:103E100003FC4CEA040491F803C0BCF1280F05D15F
:103E200000F1080C08FA0CF8C2F8148091F803C0ED
:103E3000BCF1480F07D100F1080C4FF0010808FA57
:103E40000CF8C2F81080401C0828CED35460BDE89E
:103E5000F0814FF6FF710180022181700421C17051
:103E600070470246002093680B400BB1012000E030
:103E7000002070470146886880B2704702460020E3
:103E8000D3680B400BB1012000E0002070470146D1
:103E9000C86880B2704701617047416170470AB1DC
:103EA000016100E041617047C16070474FF48032AA
:103EB0000A43826181618261826982697047024638
:103EC0000020434B18684FF68073184040EA0210F8
:103ED00008433F4B186070473E49C8617047F0B5D2
:103EE0000A46002300240021002500F00046B6F118
:103EF000004F02D1364EF16901E0354E7168C0F3D2
:103F0000034583B200F44016B6F5401F08D121F0F6
:103F100070612F4E766826F070662D4F7E6012E03D
:103F200000F48016B6F5801F06D1032606FA05F4C4
:103F3000A14341F0706106E0460D360103FA06F632
:103F4000B14341F0706122B1460D360103FA06F625
:103F5000314300F00046B6F1004F02D11C4EF16132
:103F600001E01B4E7160F0BD30B500228B071C0FC5
:103F70000F2303FA04F2164B08338C1053F8243045
:103F80009343134C08348D1044F8253023468C108D
:103F900053F824308C07240F00FA04F423430C4C0C
:103FA00008348D1044F8253030BD0A49DC310860F2
:103FB0007047000000080140000C01400010014063
:103FC0000014014000180140001C01400020014085
:103FD0000000014000002042DF48006840F001007E
:103FE000DD49086008464068DC490840DA49486015
:103FF00008460068DA490840D74908600846006862
:1040000020F4802008600846406820F4FE004860E4
:104010004FF41F0088607047CF49096821F4803150
:10402000CD4A11601146096821F480211160B0F574
:10403000803F03D0B0F5802F0ED106E0C649096855
:1040400041F48031C44A116007E0C349096841F472
:10405000A021C14A116000E000BF00BF704710B549
:1040600001460022002300204A11012A02D1BA4C45
:10407000236806E0022A02D1B74C236A01E0B64C5D
:10408000636A01F01F02012494401C400CB101201E
:1040900000E0002010BD38B500200090002400256D
:1040A00000BF3120FFF7DBFF05460098401C009061
:1040B0000098B0F5A06F01D0002DF2D03120FFF7AD
:1040C000CEFF08B1012400E00024204638BD01469F
:1040D0000020A14A106820F0F80040EAC1001060FA
:1040E0007047A04908607047024600209A4B586804
:1040F00020F47C1042EA01031843974B5860704744
:1041000098490866704701460020934A506820F09D
:1041100003000843506070478F48406800F00C006F
:104120007047014600208C4A506820F0F000084398
:104130005060704701460020874A506820F4E060D4
:1041400008435060704701460020834A506820F4BD
:10415000605040EAC1005060704729B17E4A527AEF
:1041600002437D4B5A7204E07B4A527A82437A4B77
:104170005A7270477B49D831086070470146002069
:10418000754A506820F44040084350607047002151
:10419000714A20321170704A82F82010012802D032
:1041A00004280AD104E001216B4A2032117005E095
:1041B0000521694A2032117000E000BF00BF70473E
:1041C0006949086070476449096A0143624A11629B
:1041D0007047654944390860704730B500210022B6
:1041E000002400235C4D6D6805F00C0121B1042909
:1041F00005D0082923D105E05C4D056022E05B4D28
:1042000005601FE0544D6D6805F47012524D6D68E5
:1042100005F48034022505EB92421CB9544D5543F8
:1042200005600BE04C4D6D6805F400351DB1504D37
:104230005543056002E04D4D5543056002E04B4D8E
:10424000056000BF00BF444D6D6805F0F00109092D
:10425000484D6B5C0568DD4045603F4D6D6805F479
:10426000E061090A434D6B5C4568DD4085603A4D6D
:104270006D6805F46051C90A3E4D6B5C4568DD40D0
:10428000C560354D6D6805F44041890B3A4D6B5C56
:10429000C568B5FBF3F5056130BD29B12E4A5269F9
:1042A00002432D4B5A6104E02B4A526982432A4B48
:1042B0005A61704729B1284A92690243264B9A6194
:1042C00004E0254A92698243234B9A61704729B1E1
:1042D000214AD2690243204BDA6104E01E4AD269C6
:1042E00082431D4BDA61704729B11B4AD2680243F1
:1042F000194BDA6004E0184AD2688243164BDA6040
:10430000704729B1144A12690243134B1A6104E041
:10431000114A12698243104B1A61704712494039A1
:10432000086070470F49C86470470B49C8717047EF
:104330000948406A40F0807007494862704701466A
:104340000020054A92680A400AB1012000E00020DE
:104350007047014988727047001002400000FFF862
:10436000FFFFF6FE000042428004424200127A0043
:1043700000093D00280000203800002010B5044648
:10438000FB48844209D101218803FFF7ADFF0021DA
:104390004FF48040FFF7A8FF32E0F648844209D18D
:1043A00001214804FFF7ADFF00214FF40030FFF773
:1043B000A8FF25E0F048844209D101218804FFF7D5
:1043C000A0FF00214FF48020FFF79BFF18E0EB488F
:1043D000844209D10121C804FFF793FF00214FF463
:1043E0000020FFF78EFF0BE0E548844208D1012151
:1043F0000805FFF786FF00214FF48010FFF781FFCB
:1044000010BD2DE9F04786B005460E460024A246B1
:1044100000BFA1460027B08900B100BF2F462C8AFB
:104420004CF6FF700440F08804432C82AC894EF6B1
:10443000F3100440B088318908437189084304436C
:10444000AC81AC8A4FF6FF400440B0890443AC8293
:1044500001A8FFF7C2FEC648874202D1DDF810A0CE
:1044600001E0DDF80CA0A88900F4004040B10AEB9F
:10447000CA0000EB0A1031684900B0FBF1F807E010
:104480000AEBCA0000EB0A1031688900B0FBF1F8B2
:104490006420B8FBF0F004012009642101FB1089BD
:1044A000A88900F4004040B1322000EBC900B0FB05
:1044B000F1F000F00700044308E0322000EB09109F
:1044C0006421B0FBF1F000F00F0004432C8106B032
:1044D000BDE8F0874FF41651016000218180C18052
:1044E00001810C21418100218181704710B5024674
:1044F0000020108A4FF2FF0318400B884C8823439A
:104500008C882343CC8823431843108210BD00219C
:10451000018041808180C180704721B1828942F44D
:104520000052828104E082894DF6FF731A40828135
:104530007047F0B50346002400260025002040F611
:104540006A17B94200D100BF1846C1F3421401F006
:104550001F06012707FA06F5012C01D10C3004E0F3
:10456000022C01D1103000E014301AB107682F433B
:10457000076002E00768AF430760F0BD1AB1838AA5
:104580000B43838202E0838A8B4383827047028AD3
:104590004FF6F0731A400282028A0A430282704781
:1045A00082894FF2FF731A40828182890A43828195
:1045B000704721B1828942F00202828104E082893F
:1045C0004FF6FD731A4082817047028A4FF6DF73FF
:1045D0001A400282028A0A430282704721B1028A8B
:1045E00042F48042028204E0028A4BF6FF731A40D2
:1045F00002827047C1F308028280704701468888B2
:10460000C0F308007047818941F001018181704742
:10461000028BD2B20283028B42EA012202837047EC
:10462000028B02F47F420283028B0A4302837047AB
:1046300021B1828A42F02002828204E0828A4FF60F
:10464000DF731A408282704721B1828A42F01002E1
:10465000828204E0828A4FF6EF731A4082827047AA
:1046600021B1828A42F00802828204E0828A4FF6F7
:10467000F7731A408282704721B1828942F4004266
:10468000828103E08289C2F30E028281704721B1E8
:10469000828A42F40062828204E0828A4FF2FF73CF
:1046A0001A4082827047828A4FF6FB731A408282D8
:1046B000828A0A438282704721B1828A42F00202D2
:1046C000828204E0828A4FF6FD731A40828270472C
:1046D00002460020B1F5007F00D100BF13880B40D7
:1046E0000BB1012000E00020704701F40072B2F528
:1046F000007F00D100BFCA430280704770B50246F8
:10470000002400230025002040F66A16B14200D1A3
:1047100000BFC1F3421501F01F03012606FA03F39F
:10472000012D02D19689334006E0022D02D1168A6E
:10473000334001E0968A33400C12012606FA04F455
:104740001688344013B10CB1012000E0002070BD88
:1047500010B50022002340F66A14A14200D100BF28
:104760000A1201249440A3B2DC43048010BD00006F
:10477000003801400044004000480040004C004028
:104780000050004010B50446BE48844208D10121C3
:104790008014FFF7A9FD0021A014FFF7A5FD16E086
:1047A000B948844208D101210014FFF7AAFD002175
:1047B0002014FFF7A6FD0AE0B448844207D1012186
:1047C000C013FFF79EFD0021E013FFF79AFD10BD17
:1047D00010B50022028802F441520B884C88234312
:1047E0008C882343CC8823430C8923434C8923435F
:1047F0008C892343CC8923431A430280838B4FF255
:10480000FF74234083830B8A038210BD2DE9F04F90
:1048100085B005460C464FF0000902274FF000080E
:104820004FF0010B0026B246A88B4FF24001084022
:10483000A88302202884B5F81C90A068022801D122
:1048400000BF38E0A08810B94FF0010B01E04FF035
:10485000020B8D48854200D100E000BF6846FFF79B
:10486000BCFCDDF800A0E088B0F5007F0AD14FEA7B
:104870001A2000EB80004000A168B0FBF1F0401D61
:1048800086B20BE04FEA4B10BAFBF0F000EB800071
:104890004000A168B0FBF1F0401D86B20A20B6FBD3
:1048A000F0F606F00108A6EB0800C0F34F074FF63C
:1048B000FF7000EA0828022F01DBFF2F02DD02272C
:1048C0004FF00008E08840EA080038432884A088B8
:1048D000A1890843618808432188084340F40060A7
:1048E00040EA0909A5F81C9005B0BDE8F08F002149
:1048F000018041808180C180018141818181C181AC
:104900000721018270470021018041808180C180A0
:104910000221816000218181704721B1028842F02B
:104920004002028004E002884FF6BF731A40028002
:10493000704721B1828B42F48062828304E0828BD3
:104940004FF6FF331A408283704730B500240023AE
:104950000C110125A540ABB21AB185881D43858095
:1049600002E085889D43858030BD1AB183880B4362
:10497000838002E083888B43838070478181704706
:104980000146888970474FF6FF62914204D0028841
:1049900042F48072028004E002884FF6FF631A40FE
:1049A0000280704721B1828842F00402828004E0D4
:1049B00082884FF6FB731A408280704702884FF25C
:1049C000FF731A40028002880A4302807047018800
:1049D00041F480510180704721B1028842F40052B5
:1049E000028004E002884DF6FF731A40028070478F
:1049F00002460020012901D0108B00E0908A704708
:104A00000146088A7047B1F5804F04D1028842F40C
:104A10008042028004E002884BF6FF731A40028055
:104A200070470246002013890B400BB1012000E0C3
:104A300000207047CA4302817047F0B5024600204B
:104A400000240023002501F00F070126BE40B4B268
:104A50000B1101269E40B3B2968806EA030516891B
:104A6000264016B10DB1012000E00020F0BD10B5C8
:104A7000002201F00F040123A3409AB2D343038123
:104A800010BD00000030014000380040003C0040F4
:104A9000704700001CB50C46064B7B4469460090ED
:104AA000204600F038FD04460020694600F046FD2F
:104AB00020461CBD9F0A00000FB4044910B503AA8C
:104AC000029800F057FD10BC5DF814FB2000002098
:104AD0000FB41CB5084B06AA7B44694600900598A4
:104AE00000F019FD04460020694600F027FD20462D
:104AF0001CBC5DF814FB0000610A000070B50446A0
:104B000085690068C10601D5302600E02026C0076F
:104B100007D070BDD4E9012130469047206A401C7F
:104B200020626D1EF6D570BD70B5044685690078AB
:104B3000C00707D170BDD4E9012120209047206A29
:104B4000401C20626D1EF6D570BD70B50C46054642
:104B5000012A05D02878800600D5EA69002302E002
:104B6000012305E05B1C934202D2E05C0028F9D1EE
:104B7000A869E618C01AA861286A1844286228465D
:104B8000FFF7BCFF04E0D5E9012114F8010B9047C1
:104B9000B442F8D32846FFF7C7FF70BD2DE9F041B6
:104BA0000646002410687529314616A510D000F07D
:104BB0001EFA002802DA404213A507E031688A078E
:104BC00001D512A502E0490704D511A5012401E091
:104BD00000F016FA00210A2206F1240709E0B0FBD2
:104BE000F2FCB0FBF2F302FB1C00303078541846A4
:104BF000491C0028F3D123462A463046BDE8F0413F
:104C000000F007BA000000002D0000002B0000009B
:104C100020000000F0B40D460188090502D5214CA2
:104C20007C4402E01F4C7C440E34002100F1240639
:104C300008E002F00F071209E75D42EA03721B0960
:104C40007754491C52EA0307F3D102780023120774
:104C500004D5702D06D009B1022311342246F0BCD0
:104C600000F0D7B901231034F8E770B504460D46BB
:104C70002146106800F0C4F9024629462046BDE8E6
:104C800070400023C6E7D21D22F00703D3E90023BA
:104C9000C0E70368126843F0200303600823C36180
:104CA0000023B7E7A23000002DE9F05F89460446F3
:104CB0004FF0000ADFF874B1FB44C0F820A0204692
:104CC000E1688847002874D0252806D0D4E901215E
:104CD0009047206A401C2062F1E700265F4620468C
:104CE000E16888472028054607DB312D05D2781971
:104CF00010F8200C08B10643F1E7B00701D526F003
:104D00000406C4F81CA00027C4F818A02A2D09D056
:104D1000284601F0DFFB38B304EB8708303DC8F8C4
:104D2000185019E059F8041B204604EB87029161E2
:104D3000E1688847012F054618D1E069002820DA8C
:104D400026F020061DE0D8F8180000EB800005EBE7
:104D500040003038C8F818002046E168884705460A
:104D600001F0B8FB0028EED1012F0AD02E2D08D17A
:104D70002046E16888477F1C0546022F46F0200642
:104D8000C4DBA069002803DA404246F00106A061B6
:104D9000F00701D026F010066C2D0BD0682D09D03D
:104DA0004C2D39D06A2D35D0742D35D07A2D33D095
:104DB00016E038E0E1682F4620468847B8420546AD
:104DC00009D16C2F26D04FF48060E168064320465D
:104DD0008847054604E06C2F1AD04FF480700643D4
:104DE0000DB3A5F14100192802D8203546F400661C
:104DF0004A462946204626604E46FBF7D3F980B145
:104E000001280BD0F61D26F0070000F1080956E72F
:104E10004020E4E78020D8E70020D6E706F1040927
:104E20004DE7284652E7206ABDE8F09F3230000087
:104E300070B5064600F0CCF80468054630460A22F4
:104E4000002100F07DFC2C6070BD30B505460B469E
:104E50002A4613F8014B12F8010B08B1A042F8D012
:104E60001CB1002802D06D1CF1E7284630BD10B5FA
:104E7000431C02E010F8011B71B18107FAD14FF019
:104E8000013202C88C1A8C4314EAC211F9D0C01A3C
:104E90000A0603D0C01E10BDC01A10BD0A0401D0FE
:104EA000801E10BD0902FCD0401E10BD032A40F236
:104EB000308010F0030C00F0158011F8013BBCF1BC
:104EC000020F624498BF11F801CB00F8013B38BFD4
:104ED00011F8013BA2F1040298BF00F801CB38BFE2
:104EE00000F8013B11F0030300F06284083AC0F0BF
:104EF000088051F8043B083A51F804CBA0E80810A8
:104F0000F5E7121D5CBF51F8043B40F8043BAFF3DA
:104F10000080D20724BF11F8013B11F801CB48BF34
:104F200011F8012B24BF00F8013B00F801CB48BF6A
:104F300000F8012B70474FF000020429C0F01280E6
:104F400010F0030C00F01B80CCF1040CBCF1020F3C
:104F500018BF00F8012BA8BF20F8022BA1EB0C0111
:104F600000F00DB85FEAC17C24BF00F8012B00F807
:104F7000012B48BF00F8012B70474FF0000200B52D
:104F8000134694469646203922BFA0E80C50A0E86C
:104F90000C50B1F12001BFF4F7AF090728BFA0E81A
:104FA0000C5048BF0CC05DF804EB890028BF40F8E6
:104FB000042B08BF704748BF20F8022B11F0804F28
:104FC00018BF00F8012B7047704770477047704753
:104FD00000487047444D002010B5FFF7F9FF006806
:104FE00010BD10B50446FFF7F3FF046010BD09685B
:104FF0004A0501D540B27047C905FCD500B27047DB
:1050000009684A0501D5C0B27047C905FCD580B210
:1050100070472DE9F0470D4699469246044600F147
:1050200024080168880604D5E06921F01001216098
:1050300000E00120A84201DD471B00E00027A16934
:105040007A1902EB0900081AA0612078C00602D480
:105050002046FFF753FD002608E0D4E901211AF8A5
:1050600006009047206A401C761C20624E45F4DB07
:105070002078C0060AD52046FFF740FD06E0D4E9B7
:10508000012130209047206A401C2062381EA7F181
:105090000107F4DC07E0D4E9012118F80500904786
:1050A000206A401C2062281EA5F10105F3DC204681
:1050B000FFF73AFD2078000602D50220BDE8F08710
:1050C0000120FBE711680268006A530501D50870EA
:1050D0000AE0D30501D5088006E0130603D5C21700
:1050E000C1E9000200E008600120704770472DE927
:1050F000FF4F0C461E464FF0FF378BB0D2E9000140
:10510000DDF860800A908A46C1F30A5505B93D462C
:10511000002108464FF00000BAF1000F00F44000F3
:1051200005DA00EB80004FF4400101EA50004FEA3D
:105130009059B9F1010F00DDB9460A9850EA4A00CA
:105140000ED044F61050A5F2FF3545432F14B8F1A8
:10515000000F1ED07542291E1EDDC9F100021CE0A1
:10516000B8F1010F4FF0000001D0302103E0F2430D
:1051700005E02154401CB042FBDB304600220021F8
:1051800021540B99C1F80880C1E900200FB0BDE897
:10519000F08FBD1B6D1CDEE74A4600DA694206A8A7
:1051A00000F034FC06AB93E8070003AB83E807008C
:1051B00050460A9900F03CFD8DE80700A0F500502C
:1051C0001F3800900398002D0ADD42F21F014A4665
:1051D0000844002303A90390684600F0A5FF09E0F6
:1051E000A0F500504A461F38002303A903906846E3
:1051F00000F0AFFF8DE807000004000C03D04FF073
:10520000FF30410800E01046B8F1000F03D0002243
:10521000009215461EE0751E05D400F00BFB3032DF
:1052200062556D1EF9D5B3460122084302D0002213
:105230007F1C04E02078302801D100227F1E002A44
:10524000099784D01DE0112D07DA00F0F3FA30320F
:1052500062556D1C50EA0102F5D1084302D0009856
:10526000C8B10EE00021681E05E0235C625C635457
:105270002254401E491C8142F7DBAB46A81B401E4E
:105280000990002004F80B000B98099AC0F80880D8
:10529000C0E9002B7AE711264FF0000857E72DE907
:1052A000F04F88460446D21D22F0070191B0D1E9A3
:1052B0000001CDE90A0101F083F802460B98C00F06
:1052C00001D02D2007E02068810701D52B2002E0C6
:1052D000202101EAC000032A099001D0072A05DB3A
:1052E00003464146204600F0EBFA0BE120788006A9
:1052F00001D5E06900E00620B8F1650F814606D0CF
:10530000B8F1660F18D0B8F1670F70D131E0002006
:10531000B9F1110F009001DB112301E009F1010344
:105320000AAA01A90CA8FFF7E2FEDDE90C7000262D
:1053300009F10105834647E001204B4600904FF0FC
:1053400000470AAA01A90CA8FFF7D1FEDDE90DB0BC
:105350000C995D46002610B909F101000D18B9EB52
:10536000050003D4C0F1FF3609F10105A5EB0900E2
:105370002BE0B9F1010F01DA4FF001090020B9F17A
:10538000110F0090484601DD112300E003460AAAF0
:1053900001A90CA8FFF7ABFEDDE90C704D46002615
:1053A0008346207800070AD4AB4500DA5D4601A8A1
:1053B000012D04DD411911F8011C302907D04F459A
:1053C00002DA17F1040F04DA012082460FE06D1EA5
:1053D000EEE7002F02DCED1B3E4403E0781CA84200
:1053E00000DD7D1CB81B00F1010A4FF0004720785A
:1053F000000703D4AA4501DB4FF0FF3A0021B7F1C3
:10540000004F0DF143088DF8431024D002202B23C8
:10541000002F01DA7F422D230A21021EA0F1010094
:1054200000DC5FB197FBF1FC97FBF1F201FB1C7C08
:1054300017460CF1300C08F801CDEEE7A8F1010099
:1054400003702188090501D5452100E06521A0F1FF
:10545000010800F8011C09980FA9A1EB0807FF1D1E
:1054600000B10120411901EBEA70A1693844081A22
:10547000401EA0612078C00602D42046FFF73EFB04
:10548000099828B1D4E901219047206A401C206284
:105490002078C00622D52046FFF730FB1EE0002E04
:1054A00004DBB34502DD01A8805D00E03020D4E9D3
:1054B00001219047206A401C2062761CAAF101005D
:1054C0005FEA000A0AD100F0B1F9C0680168405CE7
:1054D000D4E901219047206A401C2062281EA5F1D2
:1054E0000105DCDC07E0D4E9012118F8010B904745
:1054F000206A401C2062381EA7F10107F3DC204619
:10550000FFF712FB032011B041E6000001694A1CBD
:1055100002610878704700B58FB0CDE901310021F4
:10552000059105497944CDE9031011466846FFF716
:10553000BBFB0FB000BD0000E5FFFFFF0A6802F8EB
:10554000010B0A60704710B5436913B1AFF30080D7
:1055500001E0FFF7FAFA012010BD127800F12401F2
:105560000A7000224A700122EDE711684FF0FF3205
:10557000E9E70000074B70B50D467B44FFF7CBFF12
:105580000446284600F0B4FA10B14FF0FF3070BD69
:10559000204670BDA1E3FFFF2DE9FF5F15468A4657
:1055A0000446DFF8AC80F8440027D8E900103E46F6
:1055B000CDE9001010E03AF816106A4602A800F093
:1055C0009BFA411C07D02178890603D5E269391876
:1055D00091420DD80744761C2078800602D5E069F8
:1055E000B84205DDAE42E6DB3AF816000028E2D10B
:1055F000A069C01BA0612046FFF780FAD8E900101F
:10560000CDE90010002017E03AF818106A4602A809
:1056100000F072FAB0F1FF3F81460BD000250DF18A
:10562000080B05E0D4E901211BF8050090476D1C2B
:105630004D45F7D308F10100B0428046E4DB206A13
:10564000384420622046FFF76FFABDE8FF9F000054
:10565000DE2700002DE9F0418046D21D22F007022E
:105660000025D2E90002F52915A614D0011E72F119
:10567000000106DA0023D0EB030063EB020211A65F
:1056800008E0D8F800108B0701D50FA602E0490703
:1056900001D50EA601251146002408F1240704E0D7
:1056A00000F0C8F830323A55641C50EA0102F7D1D4
:1056B0002B46324621464046BDE8F041FFF7A9BCE3
:1056C000000000002D0000002B0000002000000062
:1056D00030B4002100F1240408E002F00705D208EC
:1056E000303542EA4372DB086554491C52EA03052F
:1056F000F3D10468002310A2250707D5A40600D41F
:1057000021B1C46901230DA2641EC46130BCFFF73E
:1057100080BC10B5044621461068FFF771FC0246B4
:105720002046BDE810400023D2E7D21D22F0070139
:10573000D1E90023CCE700000000000030000000A9
:105740002DE9F04791460F4680460446002614F89E
:10575000015B2DB100F062F80068405DC007F6D132
:105760002B2D02D02D2D18D0641E4A4639462046D6
:1057700000F0FCF827B13968A14201D1C7F80080D8
:105780004FF0020471050BD54042002803DDFFF7FE
:105790001FFC0460A007BDE8F08746F48066E4E7DC
:1057A0000028F8DAFFF714FC04606FF00040F2E71D
:1057B00010B5203AC0F00B80B1E81850203AA0E8AC
:1057C0001850B1E81850A0E81850BFF4F5AF5FEAE0
:1057D000027C24BFB1E81850A0E8185044BF18C993
:1057E00018C0BDE810405FEA827C24BF51F8043B3A
:1057F00040F8043B08BF7047D20728BF31F8023B8E
:1058000048BF11F8012B28BF20F8023B48BF00F821
:10581000012B704700487047444D002010B500F040
:1058200005F8001D10BD00BF0D17000000487047AF
:10583000644D002030B5B0F10A024FEA900E71F1CC
:1058400000034EEA817EB0EB0E0061EB91014FEA5E
:10585000101E4EEA017E10EB0E0041EB11114FEAD3
:10586000102E4EEA016E10EB0E0041EB11214FEAB3
:10587000104E4EEA014E10EB0E0041EB1141401864
:1058800041F100014FEAD00040EA41704FEAD101F6
:1058900010EB80054FEA810444EA907444EB010464
:1058A0006D1944EB0404521BA3414FF0000348BFA1
:1058B0000A3200D530BD401C41F1000130BD00006E
:1058C0002DE9F0411F46044603260168072A01F42A
:1058D000006004DB08B116A505E016A503E008B1D9
:1058E00015A500E015A521F010002060A069C01EDC
:1058F000A0610FB1401EA0612046FFF7FFF84FB135
:10590000D4E9012138469047206A401C2062C01C1F
:10591000206206E0206AFAE7D4E9012115F8010BBC
:105920009047761EF8D22046FFF7FEF8BDE8F081DA
:105930004E414E006E616E00494E4600696E660033
:1059400010B5436913B1AFF3008001E0FFF724FE07
:10595000012010BD128800F1240182840022C2843B
:105960000122EDE711684FF0FF32E9E72DE9F05F22
:10597000824615468B4600270AF10104B946007895
:10598000302801D09DB113E014F8010B01277828CD
:1059900003D0582801D045B10AE00DB1102D07D130
:1059A000002714F8010B102502E0082500E00A2565
:1059B0000026B0460EE005FB080005FB06F10127B6
:1059C0001FFA80F801EB1046B6F5803F00D3B946C8
:1059D00014F8010B294600F0D4F80028EBDABBF1EB
:1059E000000F05D00FB1641E00E05446CBF8004014
:1059F000B9F1000F06D0FFF7EBFA02210160C81ED3
:105A0000BDE8F09F48EA0640FAE700002DE9F047BC
:105A1000814616468AB0354878440DC88DE80D0099
:105A200032487844801C03AC0DC884E80D0041F670
:105A30009B300844372190FBF1F290FBF1F5A5F182
:105A4000800501FB12041B3C02D56442012000E0EA
:105A50000020DFF898A080460027FA44AAF1BE0A89
:105A60000EE0E0070AD03246684607EB4701012303
:105A70000AEB810100F06DFB8DE8070064107F1CCC
:105A8000002CEED1194F7F44AE3F19E0E80715D046
:105A900007EB04100DF1180A90E80E008AE80E00DA
:105AA000C068F04201D1981908903246012306A936
:105AB00003A800F04EFB03AB83E807006D10641CE5
:105AC000002DE3D14FF0010332466946B8F1000FD3
:105AD00003A802D000F028FB01E000F03AFBC9E97E
